{
  "_format": "hh-sol-artifact-1",
  "contractName": "AlgebraFactoryUpgradeable",
  "sourceName": "contracts/AlgebraFactoryUpgradeable.sol",
  "abi": [
    {
      "inputs": [],
      "stateMutability": "nonpayable",
      "type": "constructor"
    },
    {
      "inputs": [],
      "name": "AddressZero",
      "type": "error"
    },
    {
      "anonymous": false,
      "inputs": [
        {
          "indexed": false,
          "internalType": "address",
          "name": "token",
          "type": "address"
        },
        {
          "indexed": false,
          "internalType": "bool",
          "name": "isRebase",
          "type": "bool"
        },
        {
          "indexed": false,
          "internalType": "enum YieldMode",
          "name": "mode",
          "type": "uint8"
        }
      ],
      "name": "ConfigurationForRebaseToken",
      "type": "event"
    },
    {
      "anonymous": false,
      "inputs": [
        {
          "indexed": true,
          "internalType": "address",
          "name": "defaultBlastGovernor",
          "type": "address"
        }
      ],
      "name": "DefaultBlastGovernor",
      "type": "event"
    },
    {
      "anonymous": false,
      "inputs": [
        {
          "indexed": true,
          "internalType": "address",
          "name": "defaultBlastPoints",
          "type": "address"
        }
      ],
      "name": "DefaultBlastPoints",
      "type": "event"
    },
    {
      "anonymous": false,
      "inputs": [
        {
          "indexed": true,
          "internalType": "address",
          "name": "defaultBlastPointsOperator",
          "type": "address"
        }
      ],
      "name": "DefaultBlastPointsOperator",
      "type": "event"
    },
    {
      "anonymous": false,
      "inputs": [
        {
          "indexed": false,
          "internalType": "uint16",
          "name": "newDefaultCommunityFee",
          "type": "uint16"
        }
      ],
      "name": "DefaultCommunityFee",
      "type": "event"
    },
    {
      "anonymous": false,
      "inputs": [
        {
          "indexed": false,
          "internalType": "uint16",
          "name": "newDefaultFee",
          "type": "uint16"
        }
      ],
      "name": "DefaultFee",
      "type": "event"
    },
    {
      "anonymous": false,
      "inputs": [
        {
          "indexed": false,
          "internalType": "address",
          "name": "defaultPluginFactoryAddress",
          "type": "address"
        }
      ],
      "name": "DefaultPluginFactory",
      "type": "event"
    },
    {
      "anonymous": false,
      "inputs": [
        {
          "indexed": false,
          "internalType": "int24",
          "name": "newDefaultTickspacing",
          "type": "int24"
        }
      ],
      "name": "DefaultTickspacing",
      "type": "event"
    },
    {
      "anonymous": false,
      "inputs": [
        {
          "indexed": false,
          "internalType": "uint8",
          "name": "version",
          "type": "uint8"
        }
      ],
      "name": "Initialized",
      "type": "event"
    },
    {
      "anonymous": false,
      "inputs": [
        {
          "indexed": true,
          "internalType": "address",
          "name": "previousOwner",
          "type": "address"
        },
        {
          "indexed": true,
          "internalType": "address",
          "name": "newOwner",
          "type": "address"
        }
      ],
      "name": "OwnershipTransferStarted",
      "type": "event"
    },
    {
      "anonymous": false,
      "inputs": [
        {
          "indexed": true,
          "internalType": "address",
          "name": "previousOwner",
          "type": "address"
        },
        {
          "indexed": true,
          "internalType": "address",
          "name": "newOwner",
          "type": "address"
        }
      ],
      "name": "OwnershipTransferred",
      "type": "event"
    },
    {
      "anonymous": false,
      "inputs": [
        {
          "indexed": true,
          "internalType": "address",
          "name": "token0",
          "type": "address"
        },
        {
          "indexed": true,
          "internalType": "address",
          "name": "token1",
          "type": "address"
        },
        {
          "indexed": false,
          "internalType": "address",
          "name": "pool",
          "type": "address"
        }
      ],
      "name": "Pool",
      "type": "event"
    },
    {
      "anonymous": false,
      "inputs": [
        {
          "indexed": false,
          "internalType": "bool",
          "name": "mode_",
          "type": "bool"
        }
      ],
      "name": "PublicPoolCreationMode",
      "type": "event"
    },
    {
      "anonymous": false,
      "inputs": [
        {
          "indexed": false,
          "internalType": "uint256",
          "name": "timestamp",
          "type": "uint256"
        }
      ],
      "name": "RenounceOwnershipFinish",
      "type": "event"
    },
    {
      "anonymous": false,
      "inputs": [
        {
          "indexed": false,
          "internalType": "uint256",
          "name": "timestamp",
          "type": "uint256"
        },
        {
          "indexed": false,
          "internalType": "uint256",
          "name": "finishTimestamp",
          "type": "uint256"
        }
      ],
      "name": "RenounceOwnershipStart",
      "type": "event"
    },
    {
      "anonymous": false,
      "inputs": [
        {
          "indexed": false,
          "internalType": "uint256",
          "name": "timestamp",
          "type": "uint256"
        }
      ],
      "name": "RenounceOwnershipStop",
      "type": "event"
    },
    {
      "anonymous": false,
      "inputs": [
        {
          "indexed": true,
          "internalType": "bytes32",
          "name": "role",
          "type": "bytes32"
        },
        {
          "indexed": true,
          "internalType": "bytes32",
          "name": "previousAdminRole",
          "type": "bytes32"
        },
        {
          "indexed": true,
          "internalType": "bytes32",
          "name": "newAdminRole",
          "type": "bytes32"
        }
      ],
      "name": "RoleAdminChanged",
      "type": "event"
    },
    {
      "anonymous": false,
      "inputs": [
        {
          "indexed": true,
          "internalType": "bytes32",
          "name": "role",
          "type": "bytes32"
        },
        {
          "indexed": true,
          "internalType": "address",
          "name": "account",
          "type": "address"
        },
        {
          "indexed": true,
          "internalType": "address",
          "name": "sender",
          "type": "address"
        }
      ],
      "name": "RoleGranted",
      "type": "event"
    },
    {
      "anonymous": false,
      "inputs": [
        {
          "indexed": true,
          "internalType": "bytes32",
          "name": "role",
          "type": "bytes32"
        },
        {
          "indexed": true,
          "internalType": "address",
          "name": "account",
          "type": "address"
        },
        {
          "indexed": true,
          "internalType": "address",
          "name": "sender",
          "type": "address"
        }
      ],
      "name": "RoleRevoked",
      "type": "event"
    },
    {
      "anonymous": false,
      "inputs": [
        {
          "indexed": false,
          "internalType": "address",
          "name": "newVaultFactory",
          "type": "address"
        }
      ],
      "name": "VaultFactory",
      "type": "event"
    },
    {
      "inputs": [],
      "name": "DEFAULT_ADMIN_ROLE",
      "outputs": [
        {
          "internalType": "bytes32",
          "name": "",
          "type": "bytes32"
        }
      ],
      "stateMutability": "view",
      "type": "function"
    },
    {
      "inputs": [],
      "name": "POOLS_ADMINISTRATOR_ROLE",
      "outputs": [
        {
          "internalType": "bytes32",
          "name": "",
          "type": "bytes32"
        }
      ],
      "stateMutability": "view",
      "type": "function"
    },
    {
      "inputs": [],
      "name": "POOLS_CREATOR_ROLE",
      "outputs": [
        {
          "internalType": "bytes32",
          "name": "",
          "type": "bytes32"
        }
      ],
      "stateMutability": "view",
      "type": "function"
    },
    {
      "inputs": [],
      "name": "POOL_INIT_CODE_HASH",
      "outputs": [
        {
          "internalType": "bytes32",
          "name": "",
          "type": "bytes32"
        }
      ],
      "stateMutability": "view",
      "type": "function"
    },
    {
      "inputs": [],
      "name": "acceptOwnership",
      "outputs": [],
      "stateMutability": "nonpayable",
      "type": "function"
    },
    {
      "inputs": [
        {
          "internalType": "address",
          "name": "token0",
          "type": "address"
        },
        {
          "internalType": "address",
          "name": "token1",
          "type": "address"
        }
      ],
      "name": "computePoolAddress",
      "outputs": [
        {
          "internalType": "address",
          "name": "pool",
          "type": "address"
        }
      ],
      "stateMutability": "view",
      "type": "function"
    },
    {
      "inputs": [
        {
          "internalType": "address",
          "name": "",
          "type": "address"
        }
      ],
      "name": "configurationForBlastRebaseTokens",
      "outputs": [
        {
          "internalType": "enum YieldMode",
          "name": "",
          "type": "uint8"
        }
      ],
      "stateMutability": "view",
      "type": "function"
    },
    {
      "inputs": [
        {
          "internalType": "address",
          "name": "tokenA",
          "type": "address"
        },
        {
          "internalType": "address",
          "name": "tokenB",
          "type": "address"
        }
      ],
      "name": "createPool",
      "outputs": [
        {
          "internalType": "address",
          "name": "pool",
          "type": "address"
        }
      ],
      "stateMutability": "nonpayable",
      "type": "function"
    },
    {
      "inputs": [],
      "name": "defaultBlastGovernor",
      "outputs": [
        {
          "internalType": "address",
          "name": "",
          "type": "address"
        }
      ],
      "stateMutability": "view",
      "type": "function"
    },
    {
      "inputs": [],
      "name": "defaultBlastPoints",
      "outputs": [
        {
          "internalType": "address",
          "name": "",
          "type": "address"
        }
      ],
      "stateMutability": "view",
      "type": "function"
    },
    {
      "inputs": [],
      "name": "defaultBlastPointsOperator",
      "outputs": [
        {
          "internalType": "address",
          "name": "",
          "type": "address"
        }
      ],
      "stateMutability": "view",
      "type": "function"
    },
    {
      "inputs": [],
      "name": "defaultCommunityFee",
      "outputs": [
        {
          "internalType": "uint16",
          "name": "",
          "type": "uint16"
        }
      ],
      "stateMutability": "view",
      "type": "function"
    },
    {
      "inputs": [
        {
          "internalType": "address",
          "name": "pool",
          "type": "address"
        }
      ],
      "name": "defaultConfigurationForPool",
      "outputs": [
        {
          "internalType": "uint16",
          "name": "communityFee",
          "type": "uint16"
        },
        {
          "internalType": "int24",
          "name": "tickSpacing",
          "type": "int24"
        },
        {
          "internalType": "uint16",
          "name": "fee",
          "type": "uint16"
        },
        {
          "internalType": "address",
          "name": "communityVault",
          "type": "address"
        }
      ],
      "stateMutability": "view",
      "type": "function"
    },
    {
      "inputs": [],
      "name": "defaultFee",
      "outputs": [
        {
          "internalType": "uint16",
          "name": "",
          "type": "uint16"
        }
      ],
      "stateMutability": "view",
      "type": "function"
    },
    {
      "inputs": [],
      "name": "defaultPluginFactory",
      "outputs": [
        {
          "internalType": "contract IAlgebraPluginFactory",
          "name": "",
          "type": "address"
        }
      ],
      "stateMutability": "view",
      "type": "function"
    },
    {
      "inputs": [],
      "name": "defaultTickspacing",
      "outputs": [
        {
          "internalType": "int24",
          "name": "",
          "type": "int24"
        }
      ],
      "stateMutability": "view",
      "type": "function"
    },
    {
      "inputs": [
        {
          "internalType": "bytes32",
          "name": "role",
          "type": "bytes32"
        }
      ],
      "name": "getRoleAdmin",
      "outputs": [
        {
          "internalType": "bytes32",
          "name": "",
          "type": "bytes32"
        }
      ],
      "stateMutability": "view",
      "type": "function"
    },
    {
      "inputs": [
        {
          "internalType": "bytes32",
          "name": "role",
          "type": "bytes32"
        },
        {
          "internalType": "uint256",
          "name": "index",
          "type": "uint256"
        }
      ],
      "name": "getRoleMember",
      "outputs": [
        {
          "internalType": "address",
          "name": "",
          "type": "address"
        }
      ],
      "stateMutability": "view",
      "type": "function"
    },
    {
      "inputs": [
        {
          "internalType": "bytes32",
          "name": "role",
          "type": "bytes32"
        }
      ],
      "name": "getRoleMemberCount",
      "outputs": [
        {
          "internalType": "uint256",
          "name": "",
          "type": "uint256"
        }
      ],
      "stateMutability": "view",
      "type": "function"
    },
    {
      "inputs": [
        {
          "internalType": "bytes32",
          "name": "role",
          "type": "bytes32"
        },
        {
          "internalType": "address",
          "name": "account",
          "type": "address"
        }
      ],
      "name": "grantRole",
      "outputs": [],
      "stateMutability": "nonpayable",
      "type": "function"
    },
    {
      "inputs": [
        {
          "internalType": "bytes32",
          "name": "role",
          "type": "bytes32"
        },
        {
          "internalType": "address",
          "name": "account",
          "type": "address"
        }
      ],
      "name": "hasRole",
      "outputs": [
        {
          "internalType": "bool",
          "name": "",
          "type": "bool"
        }
      ],
      "stateMutability": "view",
      "type": "function"
    },
    {
      "inputs": [
        {
          "internalType": "bytes32",
          "name": "role",
          "type": "bytes32"
        },
        {
          "internalType": "address",
          "name": "account",
          "type": "address"
        }
      ],
      "name": "hasRoleOrOwner",
      "outputs": [
        {
          "internalType": "bool",
          "name": "",
          "type": "bool"
        }
      ],
      "stateMutability": "view",
      "type": "function"
    },
    {
      "inputs": [
        {
          "internalType": "address",
          "name": "_blastGovernor",
          "type": "address"
        },
        {
          "internalType": "address",
          "name": "_blastPoints",
          "type": "address"
        },
        {
          "internalType": "address",
          "name": "_blastPointsOperaotor",
          "type": "address"
        },
        {
          "internalType": "address",
          "name": "_poolDeployer",
          "type": "address"
        }
      ],
      "name": "initialize",
      "outputs": [],
      "stateMutability": "nonpayable",
      "type": "function"
    },
    {
      "inputs": [],
      "name": "isPublicPoolCreationMode",
      "outputs": [
        {
          "internalType": "bool",
          "name": "",
          "type": "bool"
        }
      ],
      "stateMutability": "view",
      "type": "function"
    },
    {
      "inputs": [
        {
          "internalType": "address",
          "name": "",
          "type": "address"
        }
      ],
      "name": "isRebaseToken",
      "outputs": [
        {
          "internalType": "bool",
          "name": "",
          "type": "bool"
        }
      ],
      "stateMutability": "view",
      "type": "function"
    },
    {
      "inputs": [],
      "name": "owner",
      "outputs": [
        {
          "internalType": "address",
          "name": "",
          "type": "address"
        }
      ],
      "stateMutability": "view",
      "type": "function"
    },
    {
      "inputs": [],
      "name": "pendingOwner",
      "outputs": [
        {
          "internalType": "address",
          "name": "",
          "type": "address"
        }
      ],
      "stateMutability": "view",
      "type": "function"
    },
    {
      "inputs": [
        {
          "internalType": "address",
          "name": "",
          "type": "address"
        },
        {
          "internalType": "address",
          "name": "",
          "type": "address"
        }
      ],
      "name": "poolByPair",
      "outputs": [
        {
          "internalType": "address",
          "name": "",
          "type": "address"
        }
      ],
      "stateMutability": "view",
      "type": "function"
    },
    {
      "inputs": [],
      "name": "poolDeployer",
      "outputs": [
        {
          "internalType": "address",
          "name": "",
          "type": "address"
        }
      ],
      "stateMutability": "view",
      "type": "function"
    },
    {
      "inputs": [],
      "name": "renounceOwnership",
      "outputs": [],
      "stateMutability": "nonpayable",
      "type": "function"
    },
    {
      "inputs": [],
      "name": "renounceOwnershipStartTimestamp",
      "outputs": [
        {
          "internalType": "uint256",
          "name": "",
          "type": "uint256"
        }
      ],
      "stateMutability": "view",
      "type": "function"
    },
    {
      "inputs": [
        {
          "internalType": "bytes32",
          "name": "role",
          "type": "bytes32"
        },
        {
          "internalType": "address",
          "name": "account",
          "type": "address"
        }
      ],
      "name": "renounceRole",
      "outputs": [],
      "stateMutability": "nonpayable",
      "type": "function"
    },
    {
      "inputs": [
        {
          "internalType": "bytes32",
          "name": "role",
          "type": "bytes32"
        },
        {
          "internalType": "address",
          "name": "account",
          "type": "address"
        }
      ],
      "name": "revokeRole",
      "outputs": [],
      "stateMutability": "nonpayable",
      "type": "function"
    },
    {
      "inputs": [
        {
          "internalType": "address",
          "name": "token_",
          "type": "address"
        },
        {
          "internalType": "bool",
          "name": "isRebase_",
          "type": "bool"
        },
        {
          "internalType": "enum YieldMode",
          "name": "mode_",
          "type": "uint8"
        }
      ],
      "name": "setConfigurationForRebaseToken",
      "outputs": [],
      "stateMutability": "nonpayable",
      "type": "function"
    },
    {
      "inputs": [
        {
          "internalType": "address",
          "name": "defaultBlastGovernor_",
          "type": "address"
        }
      ],
      "name": "setDefaultBlastGovernor",
      "outputs": [],
      "stateMutability": "nonpayable",
      "type": "function"
    },
    {
      "inputs": [
        {
          "internalType": "address",
          "name": "defaultBlastPoints_",
          "type": "address"
        }
      ],
      "name": "setDefaultBlastPoints",
      "outputs": [],
      "stateMutability": "nonpayable",
      "type": "function"
    },
    {
      "inputs": [
        {
          "internalType": "address",
          "name": "defaultBlastPointsOperator_",
          "type": "address"
        }
      ],
      "name": "setDefaultBlastPointsOperator",
      "outputs": [],
      "stateMutability": "nonpayable",
      "type": "function"
    },
    {
      "inputs": [
        {
          "internalType": "uint16",
          "name": "newDefaultCommunityFee",
          "type": "uint16"
        }
      ],
      "name": "setDefaultCommunityFee",
      "outputs": [],
      "stateMutability": "nonpayable",
      "type": "function"
    },
    {
      "inputs": [
        {
          "internalType": "uint16",
          "name": "newDefaultFee",
          "type": "uint16"
        }
      ],
      "name": "setDefaultFee",
      "outputs": [],
      "stateMutability": "nonpayable",
      "type": "function"
    },
    {
      "inputs": [
        {
          "internalType": "address",
          "name": "newDefaultPluginFactory",
          "type": "address"
        }
      ],
      "name": "setDefaultPluginFactory",
      "outputs": [],
      "stateMutability": "nonpayable",
      "type": "function"
    },
    {
      "inputs": [
        {
          "internalType": "int24",
          "name": "newDefaultTickspacing",
          "type": "int24"
        }
      ],
      "name": "setDefaultTickspacing",
      "outputs": [],
      "stateMutability": "nonpayable",
      "type": "function"
    },
    {
      "inputs": [
        {
          "internalType": "bool",
          "name": "mode_",
          "type": "bool"
        }
      ],
      "name": "setIsPublicPoolCreationMode",
      "outputs": [],
      "stateMutability": "nonpayable",
      "type": "function"
    },
    {
      "inputs": [
        {
          "internalType": "address",
          "name": "newVaultFactory",
          "type": "address"
        }
      ],
      "name": "setVaultFactory",
      "outputs": [],
      "stateMutability": "nonpayable",
      "type": "function"
    },
    {
      "inputs": [],
      "name": "startRenounceOwnership",
      "outputs": [],
      "stateMutability": "nonpayable",
      "type": "function"
    },
    {
      "inputs": [],
      "name": "stopRenounceOwnership",
      "outputs": [],
      "stateMutability": "nonpayable",
      "type": "function"
    },
    {
      "inputs": [
        {
          "internalType": "bytes4",
          "name": "interfaceId",
          "type": "bytes4"
        }
      ],
      "name": "supportsInterface",
      "outputs": [
        {
          "internalType": "bool",
          "name": "",
          "type": "bool"
        }
      ],
      "stateMutability": "view",
      "type": "function"
    },
    {
      "inputs": [
        {
          "internalType": "address",
          "name": "newOwner",
          "type": "address"
        }
      ],
      "name": "transferOwnership",
      "outputs": [],
      "stateMutability": "nonpayable",
      "type": "function"
    },
    {
      "inputs": [],
      "name": "vaultFactory",
      "outputs": [
        {
          "internalType": "contract IAlgebraVaultFactory",
          "name": "",
          "type": "address"
        }
      ],
      "stateMutability": "view",
      "type": "function"
    }
  ],
  "bytecode": "0x60806040523480156200001157600080fd5b506200001c62000022565b620000e3565b600054610100900460ff16156200008f5760405162461bcd60e51b815260206004820152602760248201527f496e697469616c697a61626c653a20636f6e747261637420697320696e697469604482015266616c697a696e6760c81b606482015260840160405180910390fd5b60005460ff90811614620000e1576000805460ff191660ff9081179091556040519081527f7f26b83ff96e1f2b6a682f133852f6798a09c465da95921460cefb38474024989060200160405180910390a15b565b61272580620000f36000396000f3fe608060405234801561001057600080fd5b50600436106103205760003560e01c80638da5cb5b116101a7578063d8a06f73116100ee578063e72b63de11610097578063f2fde38b11610071578063f2fde38b1461079b578063f8c8765e146107ae578063fb6cd276146107c157600080fd5b8063e72b63de14610762578063e8ae2b6914610775578063f09489ac1461078857600080fd5b8063dc6fd8ab116100c8578063dc6fd8ab14610717578063e30c39781461073e578063e34336151461074f57600080fd5b8063d8a06f73146106bb578063d8ed2241146106cf578063d9a641e1146106e257600080fd5b8063b500a48b11610150578063d0ad27921161012a578063d0ad279214610663578063d1dc415e14610677578063d547741f146106a857600080fd5b8063b500a48b14610605578063c073b7a51461062c578063ca15c8731461065057600080fd5b8063998709e011610181578063998709e0146105d6578063a217fddf146105e9578063a6df1ec9146105f157600080fd5b80638da5cb5b146105825780639010d07c1461058a57806391d148541461059d57600080fd5b80633ea7fbdb1161026b5780636e1433dc1161021457806379ba5097116101ee57806379ba50971461051d57806382b13d8d146105255780638d5a87111461056f57600080fd5b80636e1433dc146104db578063715018a614610502578063773265841461050a57600080fd5b80635d2493ab116102455780635d2493ab146104a05780635f67e7bc146104b357806363d21273146104c657600080fd5b80633ea7fbdb1461046f578063469388c4146104825780635a6c72d01461048a57600080fd5b80632f2ff15d116102cd57806332cf1b01116102a757806332cf1b011461043557806336568abe146104495780633821a08a1461045c57600080fd5b80632f2ff15d146103cd5780632f8a39dd146103e05780633119049a1461040957600080fd5b8063248a9ca3116102fe578063248a9ca31461036f5780632939dd971461039257806329bc3446146103a557600080fd5b806301ffc9a714610325578063084bfff91461034d578063238a1d7414610365575b600080fd5b6103386103333660046122b9565b6107d5565b60405190151581526020015b60405180910390f35b6103576101315481565b604051908152602001610344565b61036d610800565b005b61035761037d3660046122e3565b600090815260c9602052604090206001015490565b61036d6103a0366004612311565b610854565b610130546103ba90600160c81b900460020b81565b60405160029190910b8152602001610344565b61036d6103db36600461232e565b6108ce565b610130546103f690600160a81b900461ffff1681565b60405161ffff9091168152602001610344565b61012d5461041d906001600160a01b031681565b6040516001600160a01b039091168152602001610344565b6101305461041d906001600160a01b031681565b61036d61045736600461232e565b6108f8565b61036d61046a366004612373565b610989565b61036d61047d366004612311565b610a23565b61036d610abd565b610130546103f690600160b81b900461ffff1681565b61036d6104ae3660046123c0565b610b1e565b61036d6104c1366004612311565b610b8f565b6101305461033890600160a01b900460ff1681565b6103577fa7106ea771a74f2d048c62cace8c00d3e120b24b61327e6415035f60d47ce88881565b61036d610bf5565b61036d6105183660046123db565b610c69565b61036d610cf2565b610538610533366004612311565b610d80565b6040805161ffff958616815260029490940b602085015291909316908201526001600160a01b039091166060820152608001610344565b61036d61057d3660046123db565b610e3d565b61041d610f00565b61041d6105983660046123ff565b610f19565b6103386105ab36600461232e565b600091825260c9602090815260408084206001600160a01b0393909316845291905290205460ff1690565b61036d6105e4366004612311565b610f38565b610357600081565b61012f5461041d906001600160a01b031681565b6103577fb73ce166ead2f8e9add217713a7989e4edfba9625f71dfd2516204bb67ad344281565b61033861063a366004612311565b6101366020526000908152604090205460ff1681565b61035761065e3660046122e3565b610f9e565b6101325461041d906001600160a01b031681565b61069b610685366004612311565b6101356020526000908152604090205460ff1681565b6040516103449190612459565b61036d6106b636600461232e565b610fb5565b6101335461041d906001600160a01b031681565b61041d6106dd366004612467565b610fda565b61041d6106f0366004612467565b6101346020908152600092835260408084209091529082529020546001600160a01b031681565b6103577ff45e886a0794c1d80aeae5ab5befecd4f0f2b77c0cf627f7c46ec92dc1fa00e481565b6065546001600160a01b031661041d565b61041d61075d366004612467565b6110c5565b61036d610770366004612311565b6115b6565b61033861078336600461232e565b61161c565b61036d610796366004612495565b61166b565b61036d6107a9366004612311565b611720565b61036d6107bc3660046124b8565b611786565b61012e5461041d906001600160a01b031681565b60006001600160e01b03198216635a05180f60e01b14806107fa57506107fa82611a34565b92915050565b610808611a69565b6101315460000361081857600080fd5b6000610131556040514281527fa2492902a0a1d28dc73e6ab22e473239ef077bb7bc8174dc7dab9fc0818e7135906020015b60405180910390a1565b61085c611a69565b610132546001600160a01b039081169082160361087857600080fd5b61013280546001600160a01b0319166001600160a01b0383169081179091556040519081527f5e38e259ec1f8a38b98fc65a27e266bb9cc87c76eb8c96c957450d1cff4591ef906020015b60405180910390a150565b600082815260c960205260409020600101546108e981611aca565b6108f38383611ad4565b505050565b6001600160a01b038116331461097b5760405162461bcd60e51b815260206004820152602f60248201527f416363657373436f6e74726f6c3a2063616e206f6e6c792072656e6f756e636560448201527f20726f6c657320666f722073656c66000000000000000000000000000000000060648201526084015b60405180910390fd5b6109858282611af6565b5050565b610991611a69565b6001600160a01b038316600090815261013660209081526040808320805486151560ff1991821617909155610135909252909120805483921660018360028111156109de576109de612421565b02179055507fc244cc4619d68855ca697d0fe5d61c1b111eba4fa67ce88213543a8f32fb826b838383604051610a1693929190612514565b60405180910390a1505050565b610a2b611a69565b610133546001600160a01b0390811690821603610a4757600080fd5b6001600160a01b038116610a6e5761013054600160a81b900461ffff1615610a6e57600080fd5b61013380546001600160a01b0319166001600160a01b0383169081179091556040519081527fa006ea05a14783821b0248e75d2342cd1681b07509e10a0f08487b080c29dea8906020016108c3565b610ac5611a69565b6101315415610ad357600080fd5b426101318190557fcd60f5d54996130c21c3f063279b39230bcbafc12f763a1ac1dfaec2e9b61d2990610b096201518082612557565b6040805192835260208301919091520161084a565b610b26611a69565b6101308054821515600160a01b027fffffffffffffffffffffff00ffffffffffffffffffffffffffffffffffffffff9091161790556040517f13774274833ad11ec849e7f7be5ebc1359269e40abfe1eda7b7ca06c31979cc3906108c390831515815260200190565b610b97611a69565b6001600160a01b038116610baa57600080fd5b61012f80546001600160a01b0319166001600160a01b0383169081179091556040517f5c8d06d98ca8b113607c6acf634d1fc8a835566b483210b1699b2205ca301c3e90600090a250565b610bfd611a69565b61013154600003610c0d57600080fd5b620151806101315442610c20919061256a565b1015610c2b57600080fd5b600061013155610c39611b18565b6040514281527fa24203c457ce43a097fa0c491fc9cf5e0a893af87a5e0a9785f29491deb11e239060200161084a565b610c71611a69565b61c35061ffff82161115610c8457600080fd5b6101305461ffff808316600160b81b9092041603610ca157600080fd5b610130805461ffff60b81b1916600160b81b61ffff8416908102919091179091556040519081527fddc0c6f0b581e0d51bfe90ff138e4a548f94515c4dbcb12f5e98fdf0f7503983906020016108c3565b60655433906001600160a01b03168114610d745760405162461bcd60e51b815260206004820152602960248201527f4f776e61626c6532537465703a2063616c6c6572206973206e6f74207468652060448201527f6e6577206f776e657200000000000000000000000000000000000000000000006064820152608401610972565b610d7d81611b26565b50565b610133546000908190819081906001600160a01b031615610e0d5761013354604051637570e38960e01b81526001600160a01b03878116600483015290911690637570e38990602401602060405180830381865afa158015610de6573d6000803e3d6000fd5b505050506040513d601f19601f82011682018060405250810190610e0a919061257d565b90505b6101305461ffff600160a81b820481169550600160c81b820460020b9450600160b81b9091041691509193509193565b610e45611a69565b6103e861ffff82161115610e5857600080fd5b6101305461ffff808316600160a81b9092041603610e7557600080fd5b61ffff811615610e9557610133546001600160a01b0316610e9557600080fd5b61013080547fffffffffffffffffff0000ffffffffffffffffffffffffffffffffffffffffff16600160a81b61ffff8416908102919091179091556040519081527f6b5c342391f543846fce47a925e7eba910f7bec232b08633308ca93fdd0fdf0d906020016108c3565b6000610f146033546001600160a01b031690565b905090565b600082815260fb60205260408120610f319083611b6b565b9392505050565b610f40611a69565b6001600160a01b038116610f5357600080fd5b61012e80546001600160a01b0319166001600160a01b0383169081179091556040517f7abdc4975133587e2e798bf8ada0f6b11ae12688d0dac360555ca2e931ba9ced90600090a250565b600081815260fb602052604081206107fa90611b77565b600082815260c96020526040902060010154610fd081611aca565b6108f38383611af6565b61012d546040516000916001600160a01b03169061101390859085906020016001600160a01b0392831681529116602082015260400190565b60408051601f198184030181529082905280516020918201206110a6939290917ff45e886a0794c1d80aeae5ab5befecd4f0f2b77c0cf627f7c46ec92dc1fa00e491017fff00000000000000000000000000000000000000000000000000000000000000815260609390931b6bffffffffffffffffffffffff191660018401526015830191909152603582015260550190565b60408051601f1981840301815291905280516020909101209392505050565b61013054600090600160a01b900460ff16611103576111037fa7106ea771a74f2d048c62cace8c00d3e120b24b61327e6415035f60d47ce888611aca565b816001600160a01b0316836001600160a01b03160361112157600080fd5b600080836001600160a01b0316856001600160a01b031610611144578385611147565b84845b90925090506001600160a01b03821661115f57600080fd5b6001600160a01b038281166000908152610134602090815260408083208585168452909152902054161561119257600080fd5b610132546000906001600160a01b03161561124057610132546001600160a01b0316639533ff106111c38585610fda565b6040516001600160e01b031960e084901b1681526001600160a01b039182166004820152818716602482015290851660448201526064016020604051808303816000875af1158015611219573d6000803e3d6000fd5b505050506040513d601f19601f8201168201806040525081019061123d919061257d565b90505b61012d5461012e5461012f54610130546040516302f3dad360e21b81526001600160a01b0393841660048201529183166024830152821660448201528382166064820152858216608482015284821660a4820152911690630bcf6b4c9060c4016020604051808303816000875af11580156112bf573d6000803e3d6000fd5b505050506040513d601f19601f820116820180604052508101906112e3919061257d565b6001600160a01b0384166000908152610136602052604090205490945060ff1615611392576001600160a01b038381166000908152610135602052604090819020549051633bdbe9a560e01b815291861691633bdbe9a59161134d91879160ff169060040161259a565b6020604051808303816000875af115801561136c573d6000803e3d6000fd5b505050506040513d601f19601f8201168201806040525081019061139091906125b7565b505b6001600160a01b0382166000908152610136602052604090205460ff161561143e576001600160a01b038281166000908152610135602052604090819020549051633bdbe9a560e01b815291861691633bdbe9a5916113f991869160ff169060040161259a565b6020604051808303816000875af1158015611418573d6000803e3d6000fd5b505050506040513d601f19601f8201168201806040525081019061143c91906125b7565b505b6001600160a01b038381166000818152610134602081815260408084208887168086529083528185208054978c166001600160a01b0319988916811790915593835281852086865283529381902080549096168317909555935190815290927f91ccaa7a278130b65168c3a0c8d3bcae84cf5e43704342bd3ec0b59e59c036db910160405180910390a3610133546001600160a01b0316156115ad576101335460405163cbc4801560e01b81526001600160a01b0386811660048301529091169063cbc48015906024016020604051808303816000875af1158015611527573d6000803e3d6000fd5b505050506040513d601f19601f8201168201806040525081019061154b919061257d565b50610133546040516312e3b4d160e01b81526001600160a01b038681166004830152909116906312e3b4d190602401600060405180830381600087803b15801561159457600080fd5b505af11580156115a8573d6000803e3d6000fd5b505050505b50505092915050565b6115be611a69565b6001600160a01b0381166115d157600080fd5b61013080546001600160a01b0319166001600160a01b0383169081179091556040517f3f4f4a8f9721ec3786da9a944d596306b980063581bd1e31aea8bea27dd9115690600090a250565b6000816001600160a01b0316611630610f00565b6001600160a01b03161480610f315750600083815260c9602090815260408083206001600160a01b038616845290915290205460ff16610f31565b611673611a69565b6001600282900b121561168557600080fd5b6101f4600282900b131561169857600080fd5b61013054600160c81b9004600290810b9082900b036116b657600080fd5b61013080547fffffffff000000ffffffffffffffffffffffffffffffffffffffffffffffffff16600160c81b62ffffff841602179055604051600282900b81527f7d7979096f943139ebee59f01c077a0f0766d06c40c86d596f23ed2561547cce906020016108c3565b611728611a69565b606580546001600160a01b0319166001600160a01b03831690811790915561174e610f00565b6001600160a01b03167f38d16b8cac22d99fc7c124b9cd0de2d3fa1faef420bfe791d8c362d765e2270060405160405180910390a350565b600054610100900460ff16158080156117a65750600054600160ff909116105b806117c05750303b1580156117c0575060005460ff166001145b6118325760405162461bcd60e51b815260206004820152602e60248201527f496e697469616c697a61626c653a20636f6e747261637420697320616c72656160448201527f647920696e697469616c697a65640000000000000000000000000000000000006064820152608401610972565b6000805460ff191660011790558015611855576000805461ff0019166101001790555b6001600160a01b03821661186857600080fd5b6001600160a01b03841661187b57600080fd5b6001600160a01b03831661188e57600080fd5b611896611b81565b61189e611bec565b6118a785611c5f565b61012e80546001600160a01b03199081166001600160a01b038881169190911790925561012f80548216878416179055610130805461012d8054909316868516179092559185167fffffffff000000ffffffffff000000000000000000000000000000000000000090911617793c000000000000000000000000000000000000000000000000001761ffff60b81b19167801f4000000000000000000000000000000000000000000000017905561197e7fa7106ea771a74f2d048c62cace8c00d3e120b24b61327e6415035f60d47ce88833611ad4565b604051603c81527f7d7979096f943139ebee59f01c077a0f0766d06c40c86d596f23ed2561547cce9060200160405180910390a16040516101f481527fddc0c6f0b581e0d51bfe90ff138e4a548f94515c4dbcb12f5e98fdf0f75039839060200160405180910390a18015611a2d576000805461ff0019169055604051600181527f7f26b83ff96e1f2b6a682f133852f6798a09c465da95921460cefb38474024989060200160405180910390a15b5050505050565b60006001600160e01b03198216637965db0b60e01b14806107fa57506301ffc9a760e01b6001600160e01b03198316146107fa565b33611a72610f00565b6001600160a01b031614611ac85760405162461bcd60e51b815260206004820181905260248201527f4f776e61626c653a2063616c6c6572206973206e6f7420746865206f776e65726044820152606401610972565b565b610d7d8133611cef565b611ade8282611d64565b600082815260fb602052604090206108f39082611e06565b611b008282611e1b565b600082815260fb602052604090206108f39082611e9e565b611b20611a69565b611ac860005b611b386000611b33610f00565b611af6565b611b4181611eb3565b6000611b4b610f00565b6001600160a01b031614610d7d57610d7d6000611b66610f00565b611ad4565b6000610f318383611ecc565b60006107fa825490565b600054610100900460ff16611ac85760405162461bcd60e51b815260206004820152602b60248201527f496e697469616c697a61626c653a20636f6e7472616374206973206e6f74206960448201526a6e697469616c697a696e6760a81b6064820152608401610972565b600054610100900460ff16611c575760405162461bcd60e51b815260206004820152602b60248201527f496e697469616c697a61626c653a20636f6e7472616374206973206e6f74206960448201526a6e697469616c697a696e6760a81b6064820152608401610972565b611ac8611ef6565b6001600160a01b038116611c8657604051639fabe1c160e01b815260040160405180910390fd5b604051631d70c8d360e31b81526001600160a01b03821660048201527343000000000000000000000000000000000000029063eb86469890602401600060405180830381600087803b158015611cdb57600080fd5b505af1158015611a2d573d6000803e3d6000fd5b600082815260c9602090815260408083206001600160a01b038516845290915290205460ff1661098557611d2281611f6a565b611d2d836020611f7c565b604051602001611d3e9291906125f4565b60408051601f198184030181529082905262461bcd60e51b825261097291600401612675565b600082815260c9602090815260408083206001600160a01b038516845290915290205460ff1661098557600082815260c9602090815260408083206001600160a01b03851684529091529020805460ff19166001179055611dc23390565b6001600160a01b0316816001600160a01b0316837f2f8788117e7eff1d82e926ec794901d17c78024a50270940304540a733656f0d60405160405180910390a45050565b6000610f31836001600160a01b038416612125565b600082815260c9602090815260408083206001600160a01b038516845290915290205460ff161561098557600082815260c9602090815260408083206001600160a01b0385168085529252808320805460ff1916905551339285917ff6391f5c32d9c69d2a47ea670b442974b53935d1edc7fd64eb21e047a839171b9190a45050565b6000610f31836001600160a01b038416612174565b606580546001600160a01b0319169055610d7d81612267565b6000826000018281548110611ee357611ee36126a8565b9060005260206000200154905092915050565b600054610100900460ff16611f615760405162461bcd60e51b815260206004820152602b60248201527f496e697469616c697a61626c653a20636f6e7472616374206973206e6f74206960448201526a6e697469616c697a696e6760a81b6064820152608401610972565b611ac833611b26565b60606107fa6001600160a01b03831660145b60606000611f8b8360026126be565b611f96906002612557565b67ffffffffffffffff811115611fae57611fae6126d5565b6040519080825280601f01601f191660200182016040528015611fd8576020820181803683370190505b509050600360fc1b81600081518110611ff357611ff36126a8565b60200101906001600160f81b031916908160001a905350600f60fb1b81600181518110612022576120226126a8565b60200101906001600160f81b031916908160001a90535060006120468460026126be565b612051906001612557565b90505b60018111156120d6577f303132333435363738396162636465660000000000000000000000000000000085600f1660108110612092576120926126a8565b1a60f81b8282815181106120a8576120a86126a8565b60200101906001600160f81b031916908160001a90535060049490941c936120cf816126eb565b9050612054565b508315610f315760405162461bcd60e51b815260206004820181905260248201527f537472696e67733a20686578206c656e67746820696e73756666696369656e746044820152606401610972565b600081815260018301602052604081205461216c575081546001818101845560008481526020808220909301849055845484825282860190935260409020919091556107fa565b5060006107fa565b6000818152600183016020526040812054801561225d57600061219860018361256a565b85549091506000906121ac9060019061256a565b90508181146122115760008660000182815481106121cc576121cc6126a8565b90600052602060002001549050808760000184815481106121ef576121ef6126a8565b6000918252602080832090910192909255918252600188019052604090208390555b855486908061222257612222612702565b6001900381819060005260206000200160009055905585600101600086815260200190815260200160002060009055600193505050506107fa565b60009150506107fa565b603380546001600160a01b038381166001600160a01b0319831681179093556040519116919082907f8be0079c531659141344cd1fd0a4f28419497f9722a3daafe3b4186f6b6457e090600090a35050565b6000602082840312156122cb57600080fd5b81356001600160e01b031981168114610f3157600080fd5b6000602082840312156122f557600080fd5b5035919050565b6001600160a01b0381168114610d7d57600080fd5b60006020828403121561232357600080fd5b8135610f31816122fc565b6000806040838503121561234157600080fd5b823591506020830135612353816122fc565b809150509250929050565b8035801515811461236e57600080fd5b919050565b60008060006060848603121561238857600080fd5b8335612393816122fc565b92506123a16020850161235e565b91506040840135600381106123b557600080fd5b809150509250925092565b6000602082840312156123d257600080fd5b610f318261235e565b6000602082840312156123ed57600080fd5b813561ffff81168114610f3157600080fd5b6000806040838503121561241257600080fd5b50508035926020909101359150565b634e487b7160e01b600052602160045260246000fd5b6003811061245557634e487b7160e01b600052602160045260246000fd5b9052565b602081016107fa8284612437565b6000806040838503121561247a57600080fd5b8235612485816122fc565b91506020830135612353816122fc565b6000602082840312156124a757600080fd5b81358060020b8114610f3157600080fd5b600080600080608085870312156124ce57600080fd5b84356124d9816122fc565b935060208501356124e9816122fc565b925060408501356124f9816122fc565b91506060850135612509816122fc565b939692955090935050565b6001600160a01b03841681528215156020820152606081016125396040830184612437565b949350505050565b634e487b7160e01b600052601160045260246000fd5b808201808211156107fa576107fa612541565b818103818111156107fa576107fa612541565b60006020828403121561258f57600080fd5b8151610f31816122fc565b6001600160a01b038316815260408101610f316020830184612437565b6000602082840312156125c957600080fd5b5051919050565b60005b838110156125eb5781810151838201526020016125d3565b50506000910152565b7f416363657373436f6e74726f6c3a206163636f756e742000000000000000000081526000835161262c8160178501602088016125d0565b7f206973206d697373696e6720726f6c652000000000000000000000000000000060179184019182015283516126698160288401602088016125d0565b01602801949350505050565b60208152600082518060208401526126948160408501602087016125d0565b601f01601f19169190910160400192915050565b634e487b7160e01b600052603260045260246000fd5b80820281158282048414176107fa576107fa612541565b634e487b7160e01b600052604160045260246000fd5b6000816126fa576126fa612541565b506000190190565b634e487b7160e01b600052603160045260246000fdfea164736f6c6343000814000a",
  "linkReferences": {},
  "deployedLinkReferences": {}
}