{
  "_format": "hh-sol-artifact-1",
  "contractName": "AlgebraFactoryUpgradeable",
  "sourceName": "contracts/AlgebraFactoryUpgradeable.sol",
  "abi": [
    {
      "inputs": [],
      "stateMutability": "nonpayable",
      "type": "constructor"
    },
    {
      "inputs": [],
      "name": "AddressZero",
      "type": "error"
    },
    {
      "inputs": [],
      "name": "ZeroSfsAssignTokenId",
      "type": "error"
    },
    {
      "anonymous": false,
      "inputs": [
        {
          "indexed": false,
          "internalType": "uint16",
          "name": "newDefaultCommunityFee",
          "type": "uint16"
        }
      ],
      "name": "DefaultCommunityFee",
      "type": "event"
    },
    {
      "anonymous": false,
      "inputs": [
        {
          "indexed": false,
          "internalType": "uint16",
          "name": "newDefaultFee",
          "type": "uint16"
        }
      ],
      "name": "DefaultFee",
      "type": "event"
    },
    {
      "anonymous": false,
      "inputs": [
        {
          "indexed": true,
          "internalType": "address",
          "name": "defaultModeSfs",
          "type": "address"
        }
      ],
      "name": "DefaultModeSfs",
      "type": "event"
    },
    {
      "anonymous": false,
      "inputs": [
        {
          "indexed": false,
          "internalType": "address",
          "name": "defaultPluginFactoryAddress",
          "type": "address"
        }
      ],
      "name": "DefaultPluginFactory",
      "type": "event"
    },
    {
      "anonymous": false,
      "inputs": [
        {
          "indexed": true,
          "internalType": "uint256",
          "name": "defaultSfsAssignTokenId",
          "type": "uint256"
        }
      ],
      "name": "DefaultSfsAssignTokenId",
      "type": "event"
    },
    {
      "anonymous": false,
      "inputs": [
        {
          "indexed": false,
          "internalType": "int24",
          "name": "newDefaultTickspacing",
          "type": "int24"
        }
      ],
      "name": "DefaultTickspacing",
      "type": "event"
    },
    {
      "anonymous": false,
      "inputs": [
        {
          "indexed": false,
          "internalType": "uint8",
          "name": "version",
          "type": "uint8"
        }
      ],
      "name": "Initialized",
      "type": "event"
    },
    {
      "anonymous": false,
      "inputs": [
        {
          "indexed": true,
          "internalType": "address",
          "name": "previousOwner",
          "type": "address"
        },
        {
          "indexed": true,
          "internalType": "address",
          "name": "newOwner",
          "type": "address"
        }
      ],
      "name": "OwnershipTransferStarted",
      "type": "event"
    },
    {
      "anonymous": false,
      "inputs": [
        {
          "indexed": true,
          "internalType": "address",
          "name": "previousOwner",
          "type": "address"
        },
        {
          "indexed": true,
          "internalType": "address",
          "name": "newOwner",
          "type": "address"
        }
      ],
      "name": "OwnershipTransferred",
      "type": "event"
    },
    {
      "anonymous": false,
      "inputs": [
        {
          "indexed": true,
          "internalType": "address",
          "name": "token0",
          "type": "address"
        },
        {
          "indexed": true,
          "internalType": "address",
          "name": "token1",
          "type": "address"
        },
        {
          "indexed": false,
          "internalType": "address",
          "name": "pool",
          "type": "address"
        }
      ],
      "name": "Pool",
      "type": "event"
    },
    {
      "anonymous": false,
      "inputs": [
        {
          "indexed": false,
          "internalType": "bool",
          "name": "mode_",
          "type": "bool"
        }
      ],
      "name": "PublicPoolCreationMode",
      "type": "event"
    },
    {
      "anonymous": false,
      "inputs": [
        {
          "indexed": false,
          "internalType": "uint256",
          "name": "timestamp",
          "type": "uint256"
        }
      ],
      "name": "RenounceOwnershipFinish",
      "type": "event"
    },
    {
      "anonymous": false,
      "inputs": [
        {
          "indexed": false,
          "internalType": "uint256",
          "name": "timestamp",
          "type": "uint256"
        },
        {
          "indexed": false,
          "internalType": "uint256",
          "name": "finishTimestamp",
          "type": "uint256"
        }
      ],
      "name": "RenounceOwnershipStart",
      "type": "event"
    },
    {
      "anonymous": false,
      "inputs": [
        {
          "indexed": false,
          "internalType": "uint256",
          "name": "timestamp",
          "type": "uint256"
        }
      ],
      "name": "RenounceOwnershipStop",
      "type": "event"
    },
    {
      "anonymous": false,
      "inputs": [
        {
          "indexed": true,
          "internalType": "bytes32",
          "name": "role",
          "type": "bytes32"
        },
        {
          "indexed": true,
          "internalType": "bytes32",
          "name": "previousAdminRole",
          "type": "bytes32"
        },
        {
          "indexed": true,
          "internalType": "bytes32",
          "name": "newAdminRole",
          "type": "bytes32"
        }
      ],
      "name": "RoleAdminChanged",
      "type": "event"
    },
    {
      "anonymous": false,
      "inputs": [
        {
          "indexed": true,
          "internalType": "bytes32",
          "name": "role",
          "type": "bytes32"
        },
        {
          "indexed": true,
          "internalType": "address",
          "name": "account",
          "type": "address"
        },
        {
          "indexed": true,
          "internalType": "address",
          "name": "sender",
          "type": "address"
        }
      ],
      "name": "RoleGranted",
      "type": "event"
    },
    {
      "anonymous": false,
      "inputs": [
        {
          "indexed": true,
          "internalType": "bytes32",
          "name": "role",
          "type": "bytes32"
        },
        {
          "indexed": true,
          "internalType": "address",
          "name": "account",
          "type": "address"
        },
        {
          "indexed": true,
          "internalType": "address",
          "name": "sender",
          "type": "address"
        }
      ],
      "name": "RoleRevoked",
      "type": "event"
    },
    {
      "anonymous": false,
      "inputs": [
        {
          "indexed": false,
          "internalType": "address",
          "name": "newVaultFactory",
          "type": "address"
        }
      ],
      "name": "VaultFactory",
      "type": "event"
    },
    {
      "inputs": [],
      "name": "DEFAULT_ADMIN_ROLE",
      "outputs": [
        {
          "internalType": "bytes32",
          "name": "",
          "type": "bytes32"
        }
      ],
      "stateMutability": "view",
      "type": "function"
    },
    {
      "inputs": [],
      "name": "POOLS_ADMINISTRATOR_ROLE",
      "outputs": [
        {
          "internalType": "bytes32",
          "name": "",
          "type": "bytes32"
        }
      ],
      "stateMutability": "view",
      "type": "function"
    },
    {
      "inputs": [],
      "name": "POOLS_CREATOR_ROLE",
      "outputs": [
        {
          "internalType": "bytes32",
          "name": "",
          "type": "bytes32"
        }
      ],
      "stateMutability": "view",
      "type": "function"
    },
    {
      "inputs": [],
      "name": "POOL_INIT_CODE_HASH",
      "outputs": [
        {
          "internalType": "bytes32",
          "name": "",
          "type": "bytes32"
        }
      ],
      "stateMutability": "view",
      "type": "function"
    },
    {
      "inputs": [],
      "name": "acceptOwnership",
      "outputs": [],
      "stateMutability": "nonpayable",
      "type": "function"
    },
    {
      "inputs": [
        {
          "internalType": "address",
          "name": "token0",
          "type": "address"
        },
        {
          "internalType": "address",
          "name": "token1",
          "type": "address"
        }
      ],
      "name": "computePoolAddress",
      "outputs": [
        {
          "internalType": "address",
          "name": "pool",
          "type": "address"
        }
      ],
      "stateMutability": "view",
      "type": "function"
    },
    {
      "inputs": [
        {
          "internalType": "address",
          "name": "tokenA",
          "type": "address"
        },
        {
          "internalType": "address",
          "name": "tokenB",
          "type": "address"
        }
      ],
      "name": "createPool",
      "outputs": [
        {
          "internalType": "address",
          "name": "pool",
          "type": "address"
        }
      ],
      "stateMutability": "nonpayable",
      "type": "function"
    },
    {
      "inputs": [],
      "name": "defaultCommunityFee",
      "outputs": [
        {
          "internalType": "uint16",
          "name": "",
          "type": "uint16"
        }
      ],
      "stateMutability": "view",
      "type": "function"
    },
    {
      "inputs": [
        {
          "internalType": "address",
          "name": "pool",
          "type": "address"
        }
      ],
      "name": "defaultConfigurationForPool",
      "outputs": [
        {
          "internalType": "uint16",
          "name": "communityFee",
          "type": "uint16"
        },
        {
          "internalType": "int24",
          "name": "tickSpacing",
          "type": "int24"
        },
        {
          "internalType": "uint16",
          "name": "fee",
          "type": "uint16"
        },
        {
          "internalType": "address",
          "name": "communityVault",
          "type": "address"
        }
      ],
      "stateMutability": "view",
      "type": "function"
    },
    {
      "inputs": [],
      "name": "defaultFee",
      "outputs": [
        {
          "internalType": "uint16",
          "name": "",
          "type": "uint16"
        }
      ],
      "stateMutability": "view",
      "type": "function"
    },
    {
      "inputs": [],
      "name": "defaultModeSfs",
      "outputs": [
        {
          "internalType": "address",
          "name": "",
          "type": "address"
        }
      ],
      "stateMutability": "view",
      "type": "function"
    },
    {
      "inputs": [],
      "name": "defaultPluginFactory",
      "outputs": [
        {
          "internalType": "contract IAlgebraPluginFactory",
          "name": "",
          "type": "address"
        }
      ],
      "stateMutability": "view",
      "type": "function"
    },
    {
      "inputs": [],
      "name": "defaultSfsAssignTokenId",
      "outputs": [
        {
          "internalType": "uint256",
          "name": "",
          "type": "uint256"
        }
      ],
      "stateMutability": "view",
      "type": "function"
    },
    {
      "inputs": [],
      "name": "defaultTickspacing",
      "outputs": [
        {
          "internalType": "int24",
          "name": "",
          "type": "int24"
        }
      ],
      "stateMutability": "view",
      "type": "function"
    },
    {
      "inputs": [
        {
          "internalType": "bytes32",
          "name": "role",
          "type": "bytes32"
        }
      ],
      "name": "getRoleAdmin",
      "outputs": [
        {
          "internalType": "bytes32",
          "name": "",
          "type": "bytes32"
        }
      ],
      "stateMutability": "view",
      "type": "function"
    },
    {
      "inputs": [
        {
          "internalType": "bytes32",
          "name": "role",
          "type": "bytes32"
        },
        {
          "internalType": "uint256",
          "name": "index",
          "type": "uint256"
        }
      ],
      "name": "getRoleMember",
      "outputs": [
        {
          "internalType": "address",
          "name": "",
          "type": "address"
        }
      ],
      "stateMutability": "view",
      "type": "function"
    },
    {
      "inputs": [
        {
          "internalType": "bytes32",
          "name": "role",
          "type": "bytes32"
        }
      ],
      "name": "getRoleMemberCount",
      "outputs": [
        {
          "internalType": "uint256",
          "name": "",
          "type": "uint256"
        }
      ],
      "stateMutability": "view",
      "type": "function"
    },
    {
      "inputs": [
        {
          "internalType": "bytes32",
          "name": "role",
          "type": "bytes32"
        },
        {
          "internalType": "address",
          "name": "account",
          "type": "address"
        }
      ],
      "name": "grantRole",
      "outputs": [],
      "stateMutability": "nonpayable",
      "type": "function"
    },
    {
      "inputs": [
        {
          "internalType": "bytes32",
          "name": "role",
          "type": "bytes32"
        },
        {
          "internalType": "address",
          "name": "account",
          "type": "address"
        }
      ],
      "name": "hasRole",
      "outputs": [
        {
          "internalType": "bool",
          "name": "",
          "type": "bool"
        }
      ],
      "stateMutability": "view",
      "type": "function"
    },
    {
      "inputs": [
        {
          "internalType": "bytes32",
          "name": "role",
          "type": "bytes32"
        },
        {
          "internalType": "address",
          "name": "account",
          "type": "address"
        }
      ],
      "name": "hasRoleOrOwner",
      "outputs": [
        {
          "internalType": "bool",
          "name": "",
          "type": "bool"
        }
      ],
      "stateMutability": "view",
      "type": "function"
    },
    {
      "inputs": [
        {
          "internalType": "address",
          "name": "_modeSfs",
          "type": "address"
        },
        {
          "internalType": "uint256",
          "name": "_sfsAssignTokenId",
          "type": "uint256"
        },
        {
          "internalType": "address",
          "name": "_poolDeployer",
          "type": "address"
        }
      ],
      "name": "initialize",
      "outputs": [],
      "stateMutability": "nonpayable",
      "type": "function"
    },
    {
      "inputs": [],
      "name": "isPublicPoolCreationMode",
      "outputs": [
        {
          "internalType": "bool",
          "name": "",
          "type": "bool"
        }
      ],
      "stateMutability": "view",
      "type": "function"
    },
    {
      "inputs": [],
      "name": "owner",
      "outputs": [
        {
          "internalType": "address",
          "name": "",
          "type": "address"
        }
      ],
      "stateMutability": "view",
      "type": "function"
    },
    {
      "inputs": [],
      "name": "pendingOwner",
      "outputs": [
        {
          "internalType": "address",
          "name": "",
          "type": "address"
        }
      ],
      "stateMutability": "view",
      "type": "function"
    },
    {
      "inputs": [
        {
          "internalType": "address",
          "name": "",
          "type": "address"
        },
        {
          "internalType": "address",
          "name": "",
          "type": "address"
        }
      ],
      "name": "poolByPair",
      "outputs": [
        {
          "internalType": "address",
          "name": "",
          "type": "address"
        }
      ],
      "stateMutability": "view",
      "type": "function"
    },
    {
      "inputs": [],
      "name": "poolDeployer",
      "outputs": [
        {
          "internalType": "address",
          "name": "",
          "type": "address"
        }
      ],
      "stateMutability": "view",
      "type": "function"
    },
    {
      "inputs": [],
      "name": "renounceOwnership",
      "outputs": [],
      "stateMutability": "nonpayable",
      "type": "function"
    },
    {
      "inputs": [],
      "name": "renounceOwnershipStartTimestamp",
      "outputs": [
        {
          "internalType": "uint256",
          "name": "",
          "type": "uint256"
        }
      ],
      "stateMutability": "view",
      "type": "function"
    },
    {
      "inputs": [
        {
          "internalType": "bytes32",
          "name": "role",
          "type": "bytes32"
        },
        {
          "internalType": "address",
          "name": "account",
          "type": "address"
        }
      ],
      "name": "renounceRole",
      "outputs": [],
      "stateMutability": "nonpayable",
      "type": "function"
    },
    {
      "inputs": [
        {
          "internalType": "bytes32",
          "name": "role",
          "type": "bytes32"
        },
        {
          "internalType": "address",
          "name": "account",
          "type": "address"
        }
      ],
      "name": "revokeRole",
      "outputs": [],
      "stateMutability": "nonpayable",
      "type": "function"
    },
    {
      "inputs": [
        {
          "internalType": "uint16",
          "name": "newDefaultCommunityFee",
          "type": "uint16"
        }
      ],
      "name": "setDefaultCommunityFee",
      "outputs": [],
      "stateMutability": "nonpayable",
      "type": "function"
    },
    {
      "inputs": [
        {
          "internalType": "uint16",
          "name": "newDefaultFee",
          "type": "uint16"
        }
      ],
      "name": "setDefaultFee",
      "outputs": [],
      "stateMutability": "nonpayable",
      "type": "function"
    },
    {
      "inputs": [
        {
          "internalType": "address",
          "name": "defaultModeSfs_",
          "type": "address"
        }
      ],
      "name": "setDefaultModeSfs",
      "outputs": [],
      "stateMutability": "nonpayable",
      "type": "function"
    },
    {
      "inputs": [
        {
          "internalType": "address",
          "name": "newDefaultPluginFactory",
          "type": "address"
        }
      ],
      "name": "setDefaultPluginFactory",
      "outputs": [],
      "stateMutability": "nonpayable",
      "type": "function"
    },
    {
      "inputs": [
        {
          "internalType": "uint256",
          "name": "defaultSfsAssignTokenId_",
          "type": "uint256"
        }
      ],
      "name": "setDefaultSfsAssignTokenId",
      "outputs": [],
      "stateMutability": "nonpayable",
      "type": "function"
    },
    {
      "inputs": [
        {
          "internalType": "int24",
          "name": "newDefaultTickspacing",
          "type": "int24"
        }
      ],
      "name": "setDefaultTickspacing",
      "outputs": [],
      "stateMutability": "nonpayable",
      "type": "function"
    },
    {
      "inputs": [
        {
          "internalType": "bool",
          "name": "mode_",
          "type": "bool"
        }
      ],
      "name": "setIsPublicPoolCreationMode",
      "outputs": [],
      "stateMutability": "nonpayable",
      "type": "function"
    },
    {
      "inputs": [
        {
          "internalType": "address",
          "name": "newVaultFactory",
          "type": "address"
        }
      ],
      "name": "setVaultFactory",
      "outputs": [],
      "stateMutability": "nonpayable",
      "type": "function"
    },
    {
      "inputs": [],
      "name": "startRenounceOwnership",
      "outputs": [],
      "stateMutability": "nonpayable",
      "type": "function"
    },
    {
      "inputs": [],
      "name": "stopRenounceOwnership",
      "outputs": [],
      "stateMutability": "nonpayable",
      "type": "function"
    },
    {
      "inputs": [
        {
          "internalType": "bytes4",
          "name": "interfaceId",
          "type": "bytes4"
        }
      ],
      "name": "supportsInterface",
      "outputs": [
        {
          "internalType": "bool",
          "name": "",
          "type": "bool"
        }
      ],
      "stateMutability": "view",
      "type": "function"
    },
    {
      "inputs": [
        {
          "internalType": "address",
          "name": "newOwner",
          "type": "address"
        }
      ],
      "name": "transferOwnership",
      "outputs": [],
      "stateMutability": "nonpayable",
      "type": "function"
    },
    {
      "inputs": [],
      "name": "vaultFactory",
      "outputs": [
        {
          "internalType": "contract IAlgebraVaultFactory",
          "name": "",
          "type": "address"
        }
      ],
      "stateMutability": "view",
      "type": "function"
    }
  ],
  "bytecode": "0x608060405234801561001057600080fd5b5061001961001e565b6100dd565b600054610100900460ff161561008a5760405162461bcd60e51b815260206004820152602760248201527f496e697469616c697a61626c653a20636f6e747261637420697320696e697469604482015266616c697a696e6760c81b606482015260840160405180910390fd5b60005460ff908116146100db576000805460ff191660ff9081179091556040519081527f7f26b83ff96e1f2b6a682f133852f6798a09c465da95921460cefb38474024989060200160405180910390a15b565b61236b80620000ed6000396000f3fe608060405234801561001057600080fd5b50600436106102e95760003560e01c806379ba509711610191578063d547741f116100e3578063e15a1d1511610097578063e8ae2b6911610071578063e8ae2b69146106cc578063f09489ac146106df578063f2fde38b146106f257600080fd5b8063e15a1d1514610695578063e30c3978146106a8578063e3433615146106b957600080fd5b8063d8ed2241116100c8578063d8ed224114610626578063d9a641e114610639578063dc6fd8ab1461066e57600080fd5b8063d547741f146105ff578063d8a06f731461061257600080fd5b806391d1485411610145578063c350a1b51161011f578063c350a1b5146105c5578063ca15c873146105d8578063d0ad2792146105eb57600080fd5b806391d148541461055d578063a217fddf14610596578063b500a48b1461059e57600080fd5b80638d5a8711116101765780638d5a87111461052f5780638da5cb5b146105425780639010d07c1461054a57600080fd5b806379ba5097146104dd57806382b13d8d146104e557600080fd5b80633619d5f01161024a5780635a6c72d0116101fe5780636e1433dc116101d85780636e1433dc1461049b578063715018a6146104c257806377326584146104ca57600080fd5b80635a6c72d01461045d5780635d2493ab1461047357806363d212731461048657600080fd5b80633ea7fbdb1161022f5780633ea7fbdb1461042f578063469388c4146104425780634b599f481461044a57600080fd5b80633619d5f01461040857806336568abe1461041c57600080fd5b806329bc3446116102a15780632f8a39dd116102865780632f8a39dd146103a95780633119049a146103d25780633142fcae146103fe57600080fd5b806329bc34461461036e5780632f2ff15d1461039657600080fd5b8063238a1d74116102d2578063238a1d741461032e578063248a9ca3146103385780632939dd971461035b57600080fd5b806301ffc9a7146102ee578063084bfff914610316575b600080fd5b6103016102fc366004611feb565b610705565b60405190151581526020015b60405180910390f35b6103206101625481565b60405190815260200161030d565b610336610730565b005b610320610346366004612015565b600090815260c9602052604090206001015490565b610336610369366004612043565b610784565b6101615461038390600160c81b900460020b81565b60405160029190910b815260200161030d565b6103366103a4366004612060565b6107fe565b610161546103bf90600160a81b900461ffff1681565b60405161ffff909116815260200161030d565b610161546103e6906001600160a01b031681565b6040516001600160a01b03909116815260200161030d565b61032061012e5481565b61012d546103e6906001600160a01b031681565b61033661042a366004612060565b610828565b61033661043d366004612043565b6108b9565b610336610953565b610336610458366004612015565b6109b4565b610161546103bf90600160b81b900461ffff1681565b610336610481366004612090565b610a11565b6101615461030190600160a01b900460ff1681565b6103207fa7106ea771a74f2d048c62cace8c00d3e120b24b61327e6415035f60d47ce88881565b610336610a82565b6103366104d83660046120b2565b610af6565b610336610b7f565b6104f86104f3366004612043565b610c0d565b6040805161ffff958616815260029490940b602085015291909316908201526001600160a01b03909116606082015260800161030d565b61033661053d3660046120b2565b610cca565b6103e6610d8d565b6103e66105583660046120d6565b610da6565b61030161056b366004612060565b600091825260c9602090815260408084206001600160a01b0393909316845291905290205460ff1690565b610320600081565b6103207fb73ce166ead2f8e9add217713a7989e4edfba9625f71dfd2516204bb67ad344281565b6103366105d33660046120f8565b610dc5565b6103206105e6366004612015565b611015565b610163546103e6906001600160a01b031681565b61033661060d366004612060565b61102c565b610164546103e6906001600160a01b031681565b6103e661063436600461213a565b611051565b6103e661064736600461213a565b6101656020908152600092835260408084209091529082529020546001600160a01b031681565b6103207f98e8ef3bef2019fe9d416945abf3adf0edda3541cbc7a02a6b3de5316a2bba4081565b6103366106a3366004612043565b61113c565b6065546001600160a01b03166103e6565b6103e66106c736600461213a565b611198565b6103016106da366004612060565b611527565b6103366106ed366004612168565b611576565b610336610700366004612043565b61162b565b60006001600160e01b03198216635a05180f60e01b148061072a575061072a82611691565b92915050565b6107386116c6565b6101625460000361074857600080fd5b6000610162556040514281527fa2492902a0a1d28dc73e6ab22e473239ef077bb7bc8174dc7dab9fc0818e7135906020015b60405180910390a1565b61078c6116c6565b610163546001600160a01b03908116908216036107a857600080fd5b61016380546001600160a01b0319166001600160a01b0383169081179091556040519081527f5e38e259ec1f8a38b98fc65a27e266bb9cc87c76eb8c96c957450d1cff4591ef906020015b60405180910390a150565b600082815260c9602052604090206001015461081981611727565b6108238383611731565b505050565b6001600160a01b03811633146108ab5760405162461bcd60e51b815260206004820152602f60248201527f416363657373436f6e74726f6c3a2063616e206f6e6c792072656e6f756e636560448201527f20726f6c657320666f722073656c66000000000000000000000000000000000060648201526084015b60405180910390fd5b6108b58282611753565b5050565b6108c16116c6565b610164546001600160a01b03908116908216036108dd57600080fd5b6001600160a01b0381166109045761016154600160a81b900461ffff161561090457600080fd5b61016480546001600160a01b0319166001600160a01b0383169081179091556040519081527fa006ea05a14783821b0248e75d2342cd1681b07509e10a0f08487b080c29dea8906020016107f3565b61095b6116c6565b610162541561096957600080fd5b426101628190557fcd60f5d54996130c21c3f063279b39230bcbafc12f763a1ac1dfaec2e9b61d299061099f62015180826121a1565b6040805192835260208301919091520161077a565b6109bc611775565b806000036109dd576040516362906a7f60e01b815260040160405180910390fd5b61012e81905560405181907fbefd08e4c2354065dfa895d37354891256fc4b7d9b83ee58685f907c49becbaa90600090a250565b610a196116c6565b6101618054821515600160a01b027fffffffffffffffffffffff00ffffffffffffffffffffffffffffffffffffffff9091161790556040517f13774274833ad11ec849e7f7be5ebc1359269e40abfe1eda7b7ca06c31979cc3906107f390831515815260200190565b610a8a6116c6565b61016254600003610a9a57600080fd5b620151806101625442610aad91906121b4565b1015610ab857600080fd5b600061016255610ac661177d565b6040514281527fa24203c457ce43a097fa0c491fc9cf5e0a893af87a5e0a9785f29491deb11e239060200161077a565b610afe6116c6565b61c35061ffff82161115610b1157600080fd5b6101615461ffff808316600160b81b9092041603610b2e57600080fd5b610161805461ffff60b81b1916600160b81b61ffff8416908102919091179091556040519081527fddc0c6f0b581e0d51bfe90ff138e4a548f94515c4dbcb12f5e98fdf0f7503983906020016107f3565b60655433906001600160a01b03168114610c015760405162461bcd60e51b815260206004820152602960248201527f4f776e61626c6532537465703a2063616c6c6572206973206e6f74207468652060448201527f6e6577206f776e6572000000000000000000000000000000000000000000000060648201526084016108a2565b610c0a8161178b565b50565b610164546000908190819081906001600160a01b031615610c9a5761016454604051637570e38960e01b81526001600160a01b03878116600483015290911690637570e38990602401602060405180830381865afa158015610c73573d6000803e3d6000fd5b505050506040513d601f19601f82011682018060405250810190610c9791906121c7565b90505b6101615461ffff600160a81b820481169550600160c81b820460020b9450600160b81b9091041691509193509193565b610cd26116c6565b6103e861ffff82161115610ce557600080fd5b6101615461ffff808316600160a81b9092041603610d0257600080fd5b61ffff811615610d2257610164546001600160a01b0316610d2257600080fd5b61016180547fffffffffffffffffff0000ffffffffffffffffffffffffffffffffffffffffff16600160a81b61ffff8416908102919091179091556040519081527f6b5c342391f543846fce47a925e7eba910f7bec232b08633308ca93fdd0fdf0d906020016107f3565b6000610da16033546001600160a01b031690565b905090565b600082815260fb60205260408120610dbe90836117d0565b9392505050565b600054610100900460ff1615808015610de55750600054600160ff909116105b80610dff5750303b158015610dff575060005460ff166001145b610e715760405162461bcd60e51b815260206004820152602e60248201527f496e697469616c697a61626c653a20636f6e747261637420697320616c72656160448201527f647920696e697469616c697a656400000000000000000000000000000000000060648201526084016108a2565b6000805460ff191660011790558015610e94576000805461ff0019166101001790555b6001600160a01b038216610ea757600080fd5b610eb184846117dc565b610eb961180e565b610ec1611879565b61016180546001600160a01b0384167fffffffff000000ffffffffff000000000000000000000000000000000000000090911617793c000000000000000000000000000000000000000000000000001761ffff60b81b19167801f40000000000000000000000000000000000000000000000179055610f607fa7106ea771a74f2d048c62cace8c00d3e120b24b61327e6415035f60d47ce88833611731565b604051603c81527f7d7979096f943139ebee59f01c077a0f0766d06c40c86d596f23ed2561547cce9060200160405180910390a16040516101f481527fddc0c6f0b581e0d51bfe90ff138e4a548f94515c4dbcb12f5e98fdf0f75039839060200160405180910390a1801561100f576000805461ff0019169055604051600181527f7f26b83ff96e1f2b6a682f133852f6798a09c465da95921460cefb38474024989060200160405180910390a15b50505050565b600081815260fb6020526040812061072a906118ec565b600082815260c9602052604090206001015461104781611727565b6108238383611753565b610161546040516000916001600160a01b03169061108a90859085906020016001600160a01b0392831681529116602082015260400190565b60408051601f1981840301815290829052805160209182012061111d939290917f98e8ef3bef2019fe9d416945abf3adf0edda3541cbc7a02a6b3de5316a2bba4091017fff00000000000000000000000000000000000000000000000000000000000000815260609390931b6bffffffffffffffffffffffff191660018401526015830191909152603582015260550190565b60408051601f1981840301815291905280516020909101209392505050565b611144611775565b61114d816118f6565b61012d80546001600160a01b0319166001600160a01b0383169081179091556040517faf255f69e2dd0c4e8f2012faeb83fc58394a3de6789554c3f137eb390b095c9d90600090a250565b61016154600090600160a01b900460ff166111d6576111d67fa7106ea771a74f2d048c62cace8c00d3e120b24b61327e6415035f60d47ce888611727565b816001600160a01b0316836001600160a01b0316036111f457600080fd5b600080836001600160a01b0316856001600160a01b03161061121757838561121a565b84845b90925090506001600160a01b03821661123257600080fd5b6001600160a01b038281166000908152610165602090815260408083208585168452909152902054161561126557600080fd5b610163546000906001600160a01b03161561131357610163546001600160a01b0316639533ff106112968585611051565b6040516001600160e01b031960e084901b1681526001600160a01b039182166004820152818716602482015290851660448201526064016020604051808303816000875af11580156112ec573d6000803e3d6000fd5b505050506040513d601f19601f8201168201806040525081019061131091906121c7565b90505b6101615461012d5461012e546040516309b01d0f60e01b81526001600160a01b03928316600482015260248101919091528382166044820152858216606482015284821660848201529116906309b01d0f9060a4016020604051808303816000875af1158015611387573d6000803e3d6000fd5b505050506040513d601f19601f820116820180604052508101906113ab91906121c7565b6001600160a01b0384811660008181526101656020818152604080842089871680865290835281852080549789166001600160a01b031998891681179091559383528185208686528352938190208054909616831790955593519081529397509290917f91ccaa7a278130b65168c3a0c8d3bcae84cf5e43704342bd3ec0b59e59c036db910160405180910390a3610164546001600160a01b03161561151e576101645460405163cbc4801560e01b81526001600160a01b0386811660048301529091169063cbc48015906024016020604051808303816000875af1158015611498573d6000803e3d6000fd5b505050506040513d601f19601f820116820180604052508101906114bc91906121c7565b50610164546040516312e3b4d160e01b81526001600160a01b038681166004830152909116906312e3b4d190602401600060405180830381600087803b15801561150557600080fd5b505af1158015611519573d6000803e3d6000fd5b505050505b50505092915050565b6000816001600160a01b031661153b610d8d565b6001600160a01b03161480610dbe5750600083815260c9602090815260408083206001600160a01b038616845290915290205460ff16610dbe565b61157e6116c6565b6001600282900b121561159057600080fd5b6101f4600282900b13156115a357600080fd5b61016154600160c81b9004600290810b9082900b036115c157600080fd5b61016180547fffffffff000000ffffffffffffffffffffffffffffffffffffffffffffffffff16600160c81b62ffffff841602179055604051600282900b81527f7d7979096f943139ebee59f01c077a0f0766d06c40c86d596f23ed2561547cce906020016107f3565b6116336116c6565b606580546001600160a01b0319166001600160a01b038316908117909155611659610d8d565b6001600160a01b03167f38d16b8cac22d99fc7c124b9cd0de2d3fa1faef420bfe791d8c362d765e2270060405160405180910390a350565b60006001600160e01b03198216637965db0b60e01b148061072a57506301ffc9a760e01b6001600160e01b031983161461072a565b336116cf610d8d565b6001600160a01b0316146117255760405162461bcd60e51b815260206004820181905260248201527f4f776e61626c653a2063616c6c6572206973206e6f7420746865206f776e657260448201526064016108a2565b565b610c0a813361191d565b61173b8282611992565b600082815260fb602052604090206108239082611a34565b61175d8282611a49565b600082815260fb602052604090206108239082611acc565b6117256116c6565b6117856116c6565b61172560005b61179d6000611798610d8d565b611753565b6117a681611ae1565b60006117b0610d8d565b6001600160a01b031614610c0a57610c0a60006117cb610d8d565b611731565b6000610dbe8383611afa565b6117e68282611b24565b61012d80546001600160a01b0319166001600160a01b03939093169290921790915561012e55565b600054610100900460ff166117255760405162461bcd60e51b815260206004820152602b60248201527f496e697469616c697a61626c653a20636f6e7472616374206973206e6f74206960448201526a6e697469616c697a696e6760a81b60648201526084016108a2565b600054610100900460ff166118e45760405162461bcd60e51b815260206004820152602b60248201527f496e697469616c697a61626c653a20636f6e7472616374206973206e6f74206960448201526a6e697469616c697a696e6760a81b60648201526084016108a2565b611725611c28565b600061072a825490565b6001600160a01b038116610c0a57604051639fabe1c160e01b815260040160405180910390fd5b600082815260c9602090815260408083206001600160a01b038516845290915290205460ff166108b55761195081611c9c565b61195b836020611cae565b60405160200161196c929190612208565b60408051601f198184030181529082905262461bcd60e51b82526108a291600401612289565b600082815260c9602090815260408083206001600160a01b038516845290915290205460ff166108b557600082815260c9602090815260408083206001600160a01b03851684529091529020805460ff191660011790556119f03390565b6001600160a01b0316816001600160a01b0316837f2f8788117e7eff1d82e926ec794901d17c78024a50270940304540a733656f0d60405160405180910390a45050565b6000610dbe836001600160a01b038416611e57565b600082815260c9602090815260408083206001600160a01b038516845290915290205460ff16156108b557600082815260c9602090815260408083206001600160a01b0385168085529252808320805460ff1916905551339285917ff6391f5c32d9c69d2a47ea670b442974b53935d1edc7fd64eb21e047a839171b9190a45050565b6000610dbe836001600160a01b038416611ea6565b606580546001600160a01b0319169055610c0a81611f99565b6000826000018281548110611b1157611b116122bc565b9060005260206000200154905092915050565b6001600160a01b038216611b4b57604051639fabe1c160e01b815260040160405180910390fd5b80600003611b6c576040516362906a7f60e01b815260040160405180910390fd5b6000826001600160a01b031682604051602401611b8b91815260200190565b60408051601f198184030181529181526020820180517bffffffffffffffffffffffffffffffffffffffffffffffffffffffff16630981022760e31b17905251611bd591906122d2565b6000604051808303816000865af19150503d8060008114611c12576040519150601f19603f3d011682016040523d82523d6000602084013e611c17565b606091505b5050905080610823576108236122ee565b600054610100900460ff16611c935760405162461bcd60e51b815260206004820152602b60248201527f496e697469616c697a61626c653a20636f6e7472616374206973206e6f74206960448201526a6e697469616c697a696e6760a81b60648201526084016108a2565b6117253361178b565b606061072a6001600160a01b03831660145b60606000611cbd836002612304565b611cc89060026121a1565b67ffffffffffffffff811115611ce057611ce061231b565b6040519080825280601f01601f191660200182016040528015611d0a576020820181803683370190505b509050600360fc1b81600081518110611d2557611d256122bc565b60200101906001600160f81b031916908160001a905350600f60fb1b81600181518110611d5457611d546122bc565b60200101906001600160f81b031916908160001a9053506000611d78846002612304565b611d839060016121a1565b90505b6001811115611e08577f303132333435363738396162636465660000000000000000000000000000000085600f1660108110611dc457611dc46122bc565b1a60f81b828281518110611dda57611dda6122bc565b60200101906001600160f81b031916908160001a90535060049490941c93611e0181612331565b9050611d86565b508315610dbe5760405162461bcd60e51b815260206004820181905260248201527f537472696e67733a20686578206c656e67746820696e73756666696369656e7460448201526064016108a2565b6000818152600183016020526040812054611e9e5750815460018181018455600084815260208082209093018490558454848252828601909352604090209190915561072a565b50600061072a565b60008181526001830160205260408120548015611f8f576000611eca6001836121b4565b8554909150600090611ede906001906121b4565b9050818114611f43576000866000018281548110611efe57611efe6122bc565b9060005260206000200154905080876000018481548110611f2157611f216122bc565b6000918252602080832090910192909255918252600188019052604090208390555b8554869080611f5457611f54612348565b60019003818190600052602060002001600090559055856001016000868152602001908152602001600020600090556001935050505061072a565b600091505061072a565b603380546001600160a01b038381166001600160a01b0319831681179093556040519116919082907f8be0079c531659141344cd1fd0a4f28419497f9722a3daafe3b4186f6b6457e090600090a35050565b600060208284031215611ffd57600080fd5b81356001600160e01b031981168114610dbe57600080fd5b60006020828403121561202757600080fd5b5035919050565b6001600160a01b0381168114610c0a57600080fd5b60006020828403121561205557600080fd5b8135610dbe8161202e565b6000806040838503121561207357600080fd5b8235915060208301356120858161202e565b809150509250929050565b6000602082840312156120a257600080fd5b81358015158114610dbe57600080fd5b6000602082840312156120c457600080fd5b813561ffff81168114610dbe57600080fd5b600080604083850312156120e957600080fd5b50508035926020909101359150565b60008060006060848603121561210d57600080fd5b83356121188161202e565b925060208401359150604084013561212f8161202e565b809150509250925092565b6000806040838503121561214d57600080fd5b82356121588161202e565b915060208301356120858161202e565b60006020828403121561217a57600080fd5b81358060020b8114610dbe57600080fd5b634e487b7160e01b600052601160045260246000fd5b8082018082111561072a5761072a61218b565b8181038181111561072a5761072a61218b565b6000602082840312156121d957600080fd5b8151610dbe8161202e565b60005b838110156121ff5781810151838201526020016121e7565b50506000910152565b7f416363657373436f6e74726f6c3a206163636f756e74200000000000000000008152600083516122408160178501602088016121e4565b7f206973206d697373696e6720726f6c6520000000000000000000000000000000601791840191820152835161227d8160288401602088016121e4565b01602801949350505050565b60208152600082518060208401526122a88160408501602087016121e4565b601f01601f19169190910160400192915050565b634e487b7160e01b600052603260045260246000fd5b600082516122e48184602087016121e4565b9190910192915050565b634e487b7160e01b600052600160045260246000fd5b808202811582820484141761072a5761072a61218b565b634e487b7160e01b600052604160045260246000fd5b6000816123405761234061218b565b506000190190565b634e487b7160e01b600052603160045260246000fdfea164736f6c6343000814000a",
  "linkReferences": {},
  "deployedLinkReferences": {}
}