{
  "_format": "hh-sol-artifact-1",
  "contractName": "AlgebraFactoryUpgradeable",
  "sourceName": "contracts/AlgebraFactoryUpgradeable.sol",
  "abi": [
    {
      "inputs": [
        {
          "internalType": "address",
          "name": "_blastGovernor",
          "type": "address"
        }
      ],
      "stateMutability": "nonpayable",
      "type": "constructor"
    },
    {
      "inputs": [],
      "name": "AddressZero",
      "type": "error"
    },
    {
      "anonymous": false,
      "inputs": [
        {
          "indexed": false,
          "internalType": "address",
          "name": "token",
          "type": "address"
        },
        {
          "indexed": false,
          "internalType": "bool",
          "name": "isRebase",
          "type": "bool"
        },
        {
          "indexed": false,
          "internalType": "enum YieldMode",
          "name": "mode",
          "type": "uint8"
        }
      ],
      "name": "ConfigurationForRebaseToken",
      "type": "event"
    },
    {
      "anonymous": false,
      "inputs": [
        {
          "indexed": true,
          "internalType": "address",
          "name": "defaultBlastGovernor",
          "type": "address"
        }
      ],
      "name": "DefaultBlastGovernor",
      "type": "event"
    },
    {
      "anonymous": false,
      "inputs": [
        {
          "indexed": true,
          "internalType": "address",
          "name": "defaultBlastPoints",
          "type": "address"
        }
      ],
      "name": "DefaultBlastPoints",
      "type": "event"
    },
    {
      "anonymous": false,
      "inputs": [
        {
          "indexed": true,
          "internalType": "address",
          "name": "defaultBlastPointsOperator",
          "type": "address"
        }
      ],
      "name": "DefaultBlastPointsOperator",
      "type": "event"
    },
    {
      "anonymous": false,
      "inputs": [
        {
          "indexed": false,
          "internalType": "uint16",
          "name": "newDefaultCommunityFee",
          "type": "uint16"
        }
      ],
      "name": "DefaultCommunityFee",
      "type": "event"
    },
    {
      "anonymous": false,
      "inputs": [
        {
          "indexed": false,
          "internalType": "uint16",
          "name": "newDefaultFee",
          "type": "uint16"
        }
      ],
      "name": "DefaultFee",
      "type": "event"
    },
    {
      "anonymous": false,
      "inputs": [
        {
          "indexed": false,
          "internalType": "address",
          "name": "defaultPluginFactoryAddress",
          "type": "address"
        }
      ],
      "name": "DefaultPluginFactory",
      "type": "event"
    },
    {
      "anonymous": false,
      "inputs": [
        {
          "indexed": false,
          "internalType": "int24",
          "name": "newDefaultTickspacing",
          "type": "int24"
        }
      ],
      "name": "DefaultTickspacing",
      "type": "event"
    },
    {
      "anonymous": false,
      "inputs": [
        {
          "indexed": false,
          "internalType": "uint8",
          "name": "version",
          "type": "uint8"
        }
      ],
      "name": "Initialized",
      "type": "event"
    },
    {
      "anonymous": false,
      "inputs": [
        {
          "indexed": true,
          "internalType": "address",
          "name": "previousOwner",
          "type": "address"
        },
        {
          "indexed": true,
          "internalType": "address",
          "name": "newOwner",
          "type": "address"
        }
      ],
      "name": "OwnershipTransferStarted",
      "type": "event"
    },
    {
      "anonymous": false,
      "inputs": [
        {
          "indexed": true,
          "internalType": "address",
          "name": "previousOwner",
          "type": "address"
        },
        {
          "indexed": true,
          "internalType": "address",
          "name": "newOwner",
          "type": "address"
        }
      ],
      "name": "OwnershipTransferred",
      "type": "event"
    },
    {
      "anonymous": false,
      "inputs": [
        {
          "indexed": true,
          "internalType": "address",
          "name": "token0",
          "type": "address"
        },
        {
          "indexed": true,
          "internalType": "address",
          "name": "token1",
          "type": "address"
        },
        {
          "indexed": false,
          "internalType": "address",
          "name": "pool",
          "type": "address"
        }
      ],
      "name": "Pool",
      "type": "event"
    },
    {
      "anonymous": false,
      "inputs": [
        {
          "indexed": false,
          "internalType": "bool",
          "name": "mode_",
          "type": "bool"
        }
      ],
      "name": "PublicPoolCreationMode",
      "type": "event"
    },
    {
      "anonymous": false,
      "inputs": [
        {
          "indexed": false,
          "internalType": "uint256",
          "name": "timestamp",
          "type": "uint256"
        }
      ],
      "name": "RenounceOwnershipFinish",
      "type": "event"
    },
    {
      "anonymous": false,
      "inputs": [
        {
          "indexed": false,
          "internalType": "uint256",
          "name": "timestamp",
          "type": "uint256"
        },
        {
          "indexed": false,
          "internalType": "uint256",
          "name": "finishTimestamp",
          "type": "uint256"
        }
      ],
      "name": "RenounceOwnershipStart",
      "type": "event"
    },
    {
      "anonymous": false,
      "inputs": [
        {
          "indexed": false,
          "internalType": "uint256",
          "name": "timestamp",
          "type": "uint256"
        }
      ],
      "name": "RenounceOwnershipStop",
      "type": "event"
    },
    {
      "anonymous": false,
      "inputs": [
        {
          "indexed": true,
          "internalType": "bytes32",
          "name": "role",
          "type": "bytes32"
        },
        {
          "indexed": true,
          "internalType": "bytes32",
          "name": "previousAdminRole",
          "type": "bytes32"
        },
        {
          "indexed": true,
          "internalType": "bytes32",
          "name": "newAdminRole",
          "type": "bytes32"
        }
      ],
      "name": "RoleAdminChanged",
      "type": "event"
    },
    {
      "anonymous": false,
      "inputs": [
        {
          "indexed": true,
          "internalType": "bytes32",
          "name": "role",
          "type": "bytes32"
        },
        {
          "indexed": true,
          "internalType": "address",
          "name": "account",
          "type": "address"
        },
        {
          "indexed": true,
          "internalType": "address",
          "name": "sender",
          "type": "address"
        }
      ],
      "name": "RoleGranted",
      "type": "event"
    },
    {
      "anonymous": false,
      "inputs": [
        {
          "indexed": true,
          "internalType": "bytes32",
          "name": "role",
          "type": "bytes32"
        },
        {
          "indexed": true,
          "internalType": "address",
          "name": "account",
          "type": "address"
        },
        {
          "indexed": true,
          "internalType": "address",
          "name": "sender",
          "type": "address"
        }
      ],
      "name": "RoleRevoked",
      "type": "event"
    },
    {
      "anonymous": false,
      "inputs": [
        {
          "indexed": true,
          "internalType": "address",
          "name": "oldRebasingTokensGovernor",
          "type": "address"
        },
        {
          "indexed": true,
          "internalType": "address",
          "name": "newRebasingTokensGovernor",
          "type": "address"
        }
      ],
      "name": "SetRebasingTokensGovernor",
      "type": "event"
    },
    {
      "anonymous": false,
      "inputs": [
        {
          "indexed": false,
          "internalType": "address",
          "name": "newVaultFactory",
          "type": "address"
        }
      ],
      "name": "VaultFactory",
      "type": "event"
    },
    {
      "inputs": [],
      "name": "DEFAULT_ADMIN_ROLE",
      "outputs": [
        {
          "internalType": "bytes32",
          "name": "",
          "type": "bytes32"
        }
      ],
      "stateMutability": "view",
      "type": "function"
    },
    {
      "inputs": [],
      "name": "POOLS_ADMINISTRATOR_ROLE",
      "outputs": [
        {
          "internalType": "bytes32",
          "name": "",
          "type": "bytes32"
        }
      ],
      "stateMutability": "view",
      "type": "function"
    },
    {
      "inputs": [],
      "name": "POOLS_CREATOR_ROLE",
      "outputs": [
        {
          "internalType": "bytes32",
          "name": "",
          "type": "bytes32"
        }
      ],
      "stateMutability": "view",
      "type": "function"
    },
    {
      "inputs": [],
      "name": "POOL_INIT_CODE_HASH",
      "outputs": [
        {
          "internalType": "bytes32",
          "name": "",
          "type": "bytes32"
        }
      ],
      "stateMutability": "view",
      "type": "function"
    },
    {
      "inputs": [],
      "name": "acceptOwnership",
      "outputs": [],
      "stateMutability": "nonpayable",
      "type": "function"
    },
    {
      "inputs": [
        {
          "internalType": "address",
          "name": "token0",
          "type": "address"
        },
        {
          "internalType": "address",
          "name": "token1",
          "type": "address"
        }
      ],
      "name": "computePoolAddress",
      "outputs": [
        {
          "internalType": "address",
          "name": "pool",
          "type": "address"
        }
      ],
      "stateMutability": "view",
      "type": "function"
    },
    {
      "inputs": [
        {
          "internalType": "address",
          "name": "",
          "type": "address"
        }
      ],
      "name": "configurationForBlastRebaseTokens",
      "outputs": [
        {
          "internalType": "enum YieldMode",
          "name": "",
          "type": "uint8"
        }
      ],
      "stateMutability": "view",
      "type": "function"
    },
    {
      "inputs": [
        {
          "internalType": "address",
          "name": "tokenA",
          "type": "address"
        },
        {
          "internalType": "address",
          "name": "tokenB",
          "type": "address"
        }
      ],
      "name": "createPool",
      "outputs": [
        {
          "internalType": "address",
          "name": "pool",
          "type": "address"
        }
      ],
      "stateMutability": "nonpayable",
      "type": "function"
    },
    {
      "inputs": [],
      "name": "defaultBlastGovernor",
      "outputs": [
        {
          "internalType": "address",
          "name": "",
          "type": "address"
        }
      ],
      "stateMutability": "view",
      "type": "function"
    },
    {
      "inputs": [],
      "name": "defaultBlastPoints",
      "outputs": [
        {
          "internalType": "address",
          "name": "",
          "type": "address"
        }
      ],
      "stateMutability": "view",
      "type": "function"
    },
    {
      "inputs": [],
      "name": "defaultBlastPointsOperator",
      "outputs": [
        {
          "internalType": "address",
          "name": "",
          "type": "address"
        }
      ],
      "stateMutability": "view",
      "type": "function"
    },
    {
      "inputs": [],
      "name": "defaultCommunityFee",
      "outputs": [
        {
          "internalType": "uint16",
          "name": "",
          "type": "uint16"
        }
      ],
      "stateMutability": "view",
      "type": "function"
    },
    {
      "inputs": [
        {
          "internalType": "address",
          "name": "pool",
          "type": "address"
        }
      ],
      "name": "defaultConfigurationForPool",
      "outputs": [
        {
          "internalType": "uint16",
          "name": "communityFee",
          "type": "uint16"
        },
        {
          "internalType": "int24",
          "name": "tickSpacing",
          "type": "int24"
        },
        {
          "internalType": "uint16",
          "name": "fee",
          "type": "uint16"
        },
        {
          "internalType": "address",
          "name": "communityVault",
          "type": "address"
        }
      ],
      "stateMutability": "view",
      "type": "function"
    },
    {
      "inputs": [],
      "name": "defaultFee",
      "outputs": [
        {
          "internalType": "uint16",
          "name": "",
          "type": "uint16"
        }
      ],
      "stateMutability": "view",
      "type": "function"
    },
    {
      "inputs": [],
      "name": "defaultPluginFactory",
      "outputs": [
        {
          "internalType": "contract IAlgebraPluginFactory",
          "name": "",
          "type": "address"
        }
      ],
      "stateMutability": "view",
      "type": "function"
    },
    {
      "inputs": [],
      "name": "defaultTickspacing",
      "outputs": [
        {
          "internalType": "int24",
          "name": "",
          "type": "int24"
        }
      ],
      "stateMutability": "view",
      "type": "function"
    },
    {
      "inputs": [
        {
          "internalType": "bytes32",
          "name": "role",
          "type": "bytes32"
        }
      ],
      "name": "getRoleAdmin",
      "outputs": [
        {
          "internalType": "bytes32",
          "name": "",
          "type": "bytes32"
        }
      ],
      "stateMutability": "view",
      "type": "function"
    },
    {
      "inputs": [
        {
          "internalType": "bytes32",
          "name": "role",
          "type": "bytes32"
        },
        {
          "internalType": "uint256",
          "name": "index",
          "type": "uint256"
        }
      ],
      "name": "getRoleMember",
      "outputs": [
        {
          "internalType": "address",
          "name": "",
          "type": "address"
        }
      ],
      "stateMutability": "view",
      "type": "function"
    },
    {
      "inputs": [
        {
          "internalType": "bytes32",
          "name": "role",
          "type": "bytes32"
        }
      ],
      "name": "getRoleMemberCount",
      "outputs": [
        {
          "internalType": "uint256",
          "name": "",
          "type": "uint256"
        }
      ],
      "stateMutability": "view",
      "type": "function"
    },
    {
      "inputs": [
        {
          "internalType": "bytes32",
          "name": "role",
          "type": "bytes32"
        },
        {
          "internalType": "address",
          "name": "account",
          "type": "address"
        }
      ],
      "name": "grantRole",
      "outputs": [],
      "stateMutability": "nonpayable",
      "type": "function"
    },
    {
      "inputs": [
        {
          "internalType": "bytes32",
          "name": "role",
          "type": "bytes32"
        },
        {
          "internalType": "address",
          "name": "account",
          "type": "address"
        }
      ],
      "name": "hasRole",
      "outputs": [
        {
          "internalType": "bool",
          "name": "",
          "type": "bool"
        }
      ],
      "stateMutability": "view",
      "type": "function"
    },
    {
      "inputs": [
        {
          "internalType": "bytes32",
          "name": "role",
          "type": "bytes32"
        },
        {
          "internalType": "address",
          "name": "account",
          "type": "address"
        }
      ],
      "name": "hasRoleOrOwner",
      "outputs": [
        {
          "internalType": "bool",
          "name": "",
          "type": "bool"
        }
      ],
      "stateMutability": "view",
      "type": "function"
    },
    {
      "inputs": [
        {
          "internalType": "address",
          "name": "_blastGovernor",
          "type": "address"
        },
        {
          "internalType": "address",
          "name": "_blastPoints",
          "type": "address"
        },
        {
          "internalType": "address",
          "name": "_blastPointsOperaotor",
          "type": "address"
        },
        {
          "internalType": "address",
          "name": "_poolDeployer",
          "type": "address"
        }
      ],
      "name": "initialize",
      "outputs": [],
      "stateMutability": "nonpayable",
      "type": "function"
    },
    {
      "inputs": [],
      "name": "isPublicPoolCreationMode",
      "outputs": [
        {
          "internalType": "bool",
          "name": "",
          "type": "bool"
        }
      ],
      "stateMutability": "view",
      "type": "function"
    },
    {
      "inputs": [
        {
          "internalType": "address",
          "name": "",
          "type": "address"
        }
      ],
      "name": "isRebaseToken",
      "outputs": [
        {
          "internalType": "bool",
          "name": "",
          "type": "bool"
        }
      ],
      "stateMutability": "view",
      "type": "function"
    },
    {
      "inputs": [],
      "name": "owner",
      "outputs": [
        {
          "internalType": "address",
          "name": "",
          "type": "address"
        }
      ],
      "stateMutability": "view",
      "type": "function"
    },
    {
      "inputs": [],
      "name": "pendingOwner",
      "outputs": [
        {
          "internalType": "address",
          "name": "",
          "type": "address"
        }
      ],
      "stateMutability": "view",
      "type": "function"
    },
    {
      "inputs": [
        {
          "internalType": "address",
          "name": "",
          "type": "address"
        },
        {
          "internalType": "address",
          "name": "",
          "type": "address"
        }
      ],
      "name": "poolByPair",
      "outputs": [
        {
          "internalType": "address",
          "name": "",
          "type": "address"
        }
      ],
      "stateMutability": "view",
      "type": "function"
    },
    {
      "inputs": [],
      "name": "poolDeployer",
      "outputs": [
        {
          "internalType": "address",
          "name": "",
          "type": "address"
        }
      ],
      "stateMutability": "view",
      "type": "function"
    },
    {
      "inputs": [],
      "name": "rebasingTokensGovernor",
      "outputs": [
        {
          "internalType": "address",
          "name": "",
          "type": "address"
        }
      ],
      "stateMutability": "view",
      "type": "function"
    },
    {
      "inputs": [],
      "name": "renounceOwnership",
      "outputs": [],
      "stateMutability": "nonpayable",
      "type": "function"
    },
    {
      "inputs": [],
      "name": "renounceOwnershipStartTimestamp",
      "outputs": [
        {
          "internalType": "uint256",
          "name": "",
          "type": "uint256"
        }
      ],
      "stateMutability": "view",
      "type": "function"
    },
    {
      "inputs": [
        {
          "internalType": "bytes32",
          "name": "role",
          "type": "bytes32"
        },
        {
          "internalType": "address",
          "name": "account",
          "type": "address"
        }
      ],
      "name": "renounceRole",
      "outputs": [],
      "stateMutability": "nonpayable",
      "type": "function"
    },
    {
      "inputs": [
        {
          "internalType": "bytes32",
          "name": "role",
          "type": "bytes32"
        },
        {
          "internalType": "address",
          "name": "account",
          "type": "address"
        }
      ],
      "name": "revokeRole",
      "outputs": [],
      "stateMutability": "nonpayable",
      "type": "function"
    },
    {
      "inputs": [
        {
          "internalType": "address",
          "name": "token_",
          "type": "address"
        },
        {
          "internalType": "bool",
          "name": "isRebase_",
          "type": "bool"
        },
        {
          "internalType": "enum YieldMode",
          "name": "mode_",
          "type": "uint8"
        }
      ],
      "name": "setConfigurationForRebaseToken",
      "outputs": [],
      "stateMutability": "nonpayable",
      "type": "function"
    },
    {
      "inputs": [
        {
          "internalType": "address",
          "name": "defaultBlastGovernor_",
          "type": "address"
        }
      ],
      "name": "setDefaultBlastGovernor",
      "outputs": [],
      "stateMutability": "nonpayable",
      "type": "function"
    },
    {
      "inputs": [
        {
          "internalType": "address",
          "name": "defaultBlastPoints_",
          "type": "address"
        }
      ],
      "name": "setDefaultBlastPoints",
      "outputs": [],
      "stateMutability": "nonpayable",
      "type": "function"
    },
    {
      "inputs": [
        {
          "internalType": "address",
          "name": "defaultBlastPointsOperator_",
          "type": "address"
        }
      ],
      "name": "setDefaultBlastPointsOperator",
      "outputs": [],
      "stateMutability": "nonpayable",
      "type": "function"
    },
    {
      "inputs": [
        {
          "internalType": "uint16",
          "name": "newDefaultCommunityFee",
          "type": "uint16"
        }
      ],
      "name": "setDefaultCommunityFee",
      "outputs": [],
      "stateMutability": "nonpayable",
      "type": "function"
    },
    {
      "inputs": [
        {
          "internalType": "uint16",
          "name": "newDefaultFee",
          "type": "uint16"
        }
      ],
      "name": "setDefaultFee",
      "outputs": [],
      "stateMutability": "nonpayable",
      "type": "function"
    },
    {
      "inputs": [
        {
          "internalType": "address",
          "name": "newDefaultPluginFactory",
          "type": "address"
        }
      ],
      "name": "setDefaultPluginFactory",
      "outputs": [],
      "stateMutability": "nonpayable",
      "type": "function"
    },
    {
      "inputs": [
        {
          "internalType": "int24",
          "name": "newDefaultTickspacing",
          "type": "int24"
        }
      ],
      "name": "setDefaultTickspacing",
      "outputs": [],
      "stateMutability": "nonpayable",
      "type": "function"
    },
    {
      "inputs": [
        {
          "internalType": "bool",
          "name": "mode_",
          "type": "bool"
        }
      ],
      "name": "setIsPublicPoolCreationMode",
      "outputs": [],
      "stateMutability": "nonpayable",
      "type": "function"
    },
    {
      "inputs": [
        {
          "internalType": "address",
          "name": "rebasingTokensGovernor_",
          "type": "address"
        }
      ],
      "name": "setRebasingTokensGovernor",
      "outputs": [],
      "stateMutability": "nonpayable",
      "type": "function"
    },
    {
      "inputs": [
        {
          "internalType": "address",
          "name": "newVaultFactory",
          "type": "address"
        }
      ],
      "name": "setVaultFactory",
      "outputs": [],
      "stateMutability": "nonpayable",
      "type": "function"
    },
    {
      "inputs": [],
      "name": "startRenounceOwnership",
      "outputs": [],
      "stateMutability": "nonpayable",
      "type": "function"
    },
    {
      "inputs": [],
      "name": "stopRenounceOwnership",
      "outputs": [],
      "stateMutability": "nonpayable",
      "type": "function"
    },
    {
      "inputs": [
        {
          "internalType": "bytes4",
          "name": "interfaceId",
          "type": "bytes4"
        }
      ],
      "name": "supportsInterface",
      "outputs": [
        {
          "internalType": "bool",
          "name": "",
          "type": "bool"
        }
      ],
      "stateMutability": "view",
      "type": "function"
    },
    {
      "inputs": [
        {
          "internalType": "address",
          "name": "newOwner",
          "type": "address"
        }
      ],
      "name": "transferOwnership",
      "outputs": [],
      "stateMutability": "nonpayable",
      "type": "function"
    },
    {
      "inputs": [],
      "name": "vaultFactory",
      "outputs": [
        {
          "internalType": "contract IAlgebraVaultFactory",
          "name": "",
          "type": "address"
        }
      ],
      "stateMutability": "view",
      "type": "function"
    }
  ],
  "bytecode": "0x60806040523480156200001157600080fd5b5060405162002cf038038062002cf083398101604081905262000034916200021c565b6200003f8162000050565b620000496200015b565b50620002b0565b6001600160a01b0381166200007857604051639fabe1c160e01b815260040160405180910390fd5b60405163c8992e6160e01b81527343000000000000000000000000000000000000029063c8992e6190620000b790600290600190869060040162000264565b600060405180830381600087803b158015620000d257600080fd5b505af1158015620000e7573d6000803e3d6000fd5b505050506001600160a01b0381163b1562000158576040516305573b1760e31b81523060048201526001600160a01b03821690632ab9d8b890602401600060405180830381600087803b1580156200013e57600080fd5b505af115801562000153573d6000803e3d6000fd5b505050505b50565b600054610100900460ff1615620001c85760405162461bcd60e51b815260206004820152602760248201527f496e697469616c697a61626c653a20636f6e747261637420697320696e697469604482015266616c697a696e6760c81b606482015260840160405180910390fd5b60005460ff908116146200021a576000805460ff191660ff9081179091556040519081527f7f26b83ff96e1f2b6a682f133852f6798a09c465da95921460cefb38474024989060200160405180910390a15b565b6000602082840312156200022f57600080fd5b81516001600160a01b03811681146200024757600080fd5b9392505050565b634e487b7160e01b600052602160045260246000fd5b60608101600385106200027b576200027b6200024e565b848252600284106200029157620002916200024e565b60208201939093526001600160a01b0391909116604090910152919050565b612a3080620002c06000396000f3fe608060405234801561001057600080fd5b50600436106103365760003560e01c80638d5a8711116101b2578063d547741f116100f9578063e3433615116100a2578063f09489ac1161007c578063f09489ac146107c5578063f2fde38b146107d8578063f8c8765e146107eb578063fb6cd276146107fe57600080fd5b8063e34336151461078c578063e72b63de1461079f578063e8ae2b69146107b257600080fd5b8063d9a641e1116100d3578063d9a641e11461071f578063dc6fd8ab14610754578063e30c39781461077b57600080fd5b8063d547741f146106e5578063d8a06f73146106f8578063d8ed22411461070c57600080fd5b8063a6df1ec91161015b578063ca15c87311610135578063ca15c8731461068d578063d0ad2792146106a0578063d1dc415e146106b457600080fd5b8063a6df1ec91461062e578063b500a48b14610642578063c073b7a51461066957600080fd5b806391d148541161018c57806391d14854146105da578063998709e014610613578063a217fddf1461062657600080fd5b80638d5a8711146105ac5780638da5cb5b146105bf5780639010d07c146105c757600080fd5b80633821a08a116102815780635f67e7bc1161022a578063715018a611610204578063715018a61461053f578063773265841461054757806379ba50971461055a57806382b13d8d1461056257600080fd5b80635f67e7bc146104f057806363d21273146105035780636e1433dc1461051857600080fd5b8063469388c41161025b578063469388c4146104bf5780635a6c72d0146104c75780635d2493ab146104dd57600080fd5b80633821a08a1461048557806338eec3cd146104985780633ea7fbdb146104ac57600080fd5b806329bc3446116102e35780633119049a116102bd5780633119049a1461043257806332cf1b011461045e57806336568abe1461047257600080fd5b806329bc3446146103ce5780632f2ff15d146103f65780632f8a39dd1461040957600080fd5b8063238a1d7411610314578063238a1d7414610390578063248a9ca3146103985780632939dd97146103bb57600080fd5b806301ffc9a71461033b578063084bfff9146103635780631d2837c41461037b575b600080fd5b61034e610349366004612589565b610812565b60405190151581526020015b60405180910390f35b61036d6101315481565b60405190815260200161035a565b61038e6103893660046125c8565b61083d565b005b61038e6108a3565b61036d6103a63660046125e5565b600090815260c9602052604090206001015490565b61038e6103c93660046125c8565b6108f7565b610130546103e390600160c81b900460020b81565b60405160029190910b815260200161035a565b61038e6104043660046125fe565b610971565b6101305461041f90600160a81b900461ffff1681565b60405161ffff909116815260200161035a565b61012d54610446906001600160a01b031681565b6040516001600160a01b03909116815260200161035a565b61013054610446906001600160a01b031681565b61038e6104803660046125fe565b61099b565b61038e610493366004612643565b610a2c565b61013754610446906001600160a01b031681565b61038e6104ba3660046125c8565b610ac6565b61038e610b60565b6101305461041f90600160b81b900461ffff1681565b61038e6104eb366004612690565b610bc1565b61038e6104fe3660046125c8565b610c32565b6101305461034e90600160a01b900460ff1681565b61036d7fa7106ea771a74f2d048c62cace8c00d3e120b24b61327e6415035f60d47ce88881565b61038e610c98565b61038e6105553660046126ab565b610d0c565b61038e610d95565b6105756105703660046125c8565b610e23565b6040805161ffff958616815260029490940b602085015291909316908201526001600160a01b03909116606082015260800161035a565b61038e6105ba3660046126ab565b610ee0565b610446610fa3565b6104466105d53660046126cf565b610fbc565b61034e6105e83660046125fe565b600091825260c9602090815260408084206001600160a01b0393909316845291905290205460ff1690565b61038e6106213660046125c8565b610fdb565b61036d600081565b61012f54610446906001600160a01b031681565b61036d7fb73ce166ead2f8e9add217713a7989e4edfba9625f71dfd2516204bb67ad344281565b61034e6106773660046125c8565b6101366020526000908152604090205460ff1681565b61036d61069b3660046125e5565b611041565b61013254610446906001600160a01b031681565b6106d86106c23660046125c8565b6101356020526000908152604090205460ff1681565b60405161035a9190612717565b61038e6106f33660046125fe565b611058565b61013354610446906001600160a01b031681565b61044661071a36600461272a565b61107d565b61044661072d36600461272a565b6101346020908152600092835260408084209091529082529020546001600160a01b031681565b61036d7ff45e886a0794c1d80aeae5ab5befecd4f0f2b77c0cf627f7c46ec92dc1fa00e481565b6065546001600160a01b0316610446565b61044661079a36600461272a565b611168565b61038e6107ad3660046125c8565b61181b565b61034e6107c03660046125fe565b611881565b61038e6107d3366004612758565b6118d0565b61038e6107e63660046125c8565b611985565b61038e6107f936600461277b565b6119eb565b61012e54610446906001600160a01b031681565b60006001600160e01b03198216635a05180f60e01b1480610837575061083782611c99565b92915050565b610845611cce565b610137546040516001600160a01b038084169216907f86ca185e395a5c19c362817ddbeb1b65bd93a5ae355a69392cc1f3a36b8e553a90600090a361013780546001600160a01b0319166001600160a01b0392909216919091179055565b6108ab611cce565b610131546000036108bb57600080fd5b6000610131556040514281527fa2492902a0a1d28dc73e6ab22e473239ef077bb7bc8174dc7dab9fc0818e7135906020015b60405180910390a1565b6108ff611cce565b610132546001600160a01b039081169082160361091b57600080fd5b61013280546001600160a01b0319166001600160a01b0383169081179091556040519081527f5e38e259ec1f8a38b98fc65a27e266bb9cc87c76eb8c96c957450d1cff4591ef906020015b60405180910390a150565b600082815260c9602052604090206001015461098c81611d2f565b6109968383611d39565b505050565b6001600160a01b0381163314610a1e5760405162461bcd60e51b815260206004820152602f60248201527f416363657373436f6e74726f6c3a2063616e206f6e6c792072656e6f756e636560448201527f20726f6c657320666f722073656c66000000000000000000000000000000000060648201526084015b60405180910390fd5b610a288282611d5b565b5050565b610a34611cce565b6001600160a01b038316600090815261013660209081526040808320805486151560ff199182161790915561013590925290912080548392166001836002811115610a8157610a816126f1565b02179055507fc244cc4619d68855ca697d0fe5d61c1b111eba4fa67ce88213543a8f32fb826b838383604051610ab9939291906127d7565b60405180910390a1505050565b610ace611cce565b610133546001600160a01b0390811690821603610aea57600080fd5b6001600160a01b038116610b115761013054600160a81b900461ffff1615610b1157600080fd5b61013380546001600160a01b0319166001600160a01b0383169081179091556040519081527fa006ea05a14783821b0248e75d2342cd1681b07509e10a0f08487b080c29dea890602001610966565b610b68611cce565b6101315415610b7657600080fd5b426101318190557fcd60f5d54996130c21c3f063279b39230bcbafc12f763a1ac1dfaec2e9b61d2990610bac620151808261281c565b604080519283526020830191909152016108ed565b610bc9611cce565b6101308054821515600160a01b027fffffffffffffffffffffff00ffffffffffffffffffffffffffffffffffffffff9091161790556040517f13774274833ad11ec849e7f7be5ebc1359269e40abfe1eda7b7ca06c31979cc39061096690831515815260200190565b610c3a611cce565b6001600160a01b038116610c4d57600080fd5b61012f80546001600160a01b0319166001600160a01b0383169081179091556040517f5c8d06d98ca8b113607c6acf634d1fc8a835566b483210b1699b2205ca301c3e90600090a250565b610ca0611cce565b61013154600003610cb057600080fd5b620151806101315442610cc3919061282f565b1015610cce57600080fd5b600061013155610cdc611d7d565b6040514281527fa24203c457ce43a097fa0c491fc9cf5e0a893af87a5e0a9785f29491deb11e23906020016108ed565b610d14611cce565b61c35061ffff82161115610d2757600080fd5b6101305461ffff808316600160b81b9092041603610d4457600080fd5b610130805461ffff60b81b1916600160b81b61ffff8416908102919091179091556040519081527fddc0c6f0b581e0d51bfe90ff138e4a548f94515c4dbcb12f5e98fdf0f750398390602001610966565b60655433906001600160a01b03168114610e175760405162461bcd60e51b815260206004820152602960248201527f4f776e61626c6532537465703a2063616c6c6572206973206e6f74207468652060448201527f6e6577206f776e657200000000000000000000000000000000000000000000006064820152608401610a15565b610e2081611d8b565b50565b610133546000908190819081906001600160a01b031615610eb05761013354604051637570e38960e01b81526001600160a01b03878116600483015290911690637570e38990602401602060405180830381865afa158015610e89573d6000803e3d6000fd5b505050506040513d601f19601f82011682018060405250810190610ead9190612842565b90505b6101305461ffff600160a81b820481169550600160c81b820460020b9450600160b81b9091041691509193509193565b610ee8611cce565b6103e861ffff82161115610efb57600080fd5b6101305461ffff808316600160a81b9092041603610f1857600080fd5b61ffff811615610f3857610133546001600160a01b0316610f3857600080fd5b61013080547fffffffffffffffffff0000ffffffffffffffffffffffffffffffffffffffffff16600160a81b61ffff8416908102919091179091556040519081527f6b5c342391f543846fce47a925e7eba910f7bec232b08633308ca93fdd0fdf0d90602001610966565b6000610fb76033546001600160a01b031690565b905090565b600082815260fb60205260408120610fd49083611dd0565b9392505050565b610fe3611cce565b6001600160a01b038116610ff657600080fd5b61012e80546001600160a01b0319166001600160a01b0383169081179091556040517f7abdc4975133587e2e798bf8ada0f6b11ae12688d0dac360555ca2e931ba9ced90600090a250565b600081815260fb6020526040812061083790611ddc565b600082815260c9602052604090206001015461107381611d2f565b6109968383611d5b565b61012d546040516000916001600160a01b0316906110b690859085906020016001600160a01b0392831681529116602082015260400190565b60408051601f19818403018152908290528051602091820120611149939290917ff45e886a0794c1d80aeae5ab5befecd4f0f2b77c0cf627f7c46ec92dc1fa00e491017fff00000000000000000000000000000000000000000000000000000000000000815260609390931b6bffffffffffffffffffffffff191660018401526015830191909152603582015260550190565b60408051601f1981840301815291905280516020909101209392505050565b61013054600090600160a01b900460ff166111a6576111a67fa7106ea771a74f2d048c62cace8c00d3e120b24b61327e6415035f60d47ce888611d2f565b816001600160a01b0316836001600160a01b0316036111c457600080fd5b600080836001600160a01b0316856001600160a01b0316106111e75783856111ea565b84845b90925090506001600160a01b03821661120257600080fd5b6001600160a01b038281166000908152610134602090815260408083208585168452909152902054161561123557600080fd5b610132546000906001600160a01b0316156112e357610132546001600160a01b0316639533ff10611266858561107d565b6040516001600160e01b031960e084901b1681526001600160a01b039182166004820152818716602482015290851660448201526064016020604051808303816000875af11580156112bc573d6000803e3d6000fd5b505050506040513d601f19601f820116820180604052508101906112e09190612842565b90505b61012e5461012d5461012f54610130546040516302f3dad360e21b81526001600160a01b0394851660048201819052928516602482015290841660448201528484166064820152868416608482015285841660a4820152909290911690630bcf6b4c9060c4016020604051808303816000875af1158015611368573d6000803e3d6000fd5b505050506040513d601f19601f8201168201806040525081019061138c9190612842565b6001600160a01b0385166000908152610136602052604090205490955060ff16156114b5576001600160a01b038481166000908152610135602052604090819020549051633bdbe9a560e01b815291871691633bdbe9a5916113f691889160ff169060040161285f565b6020604051808303816000875af1158015611415573d6000803e3d6000fd5b505050506040513d601f19601f820116820180604052508101906114399190612885565b50610137546001600160a01b0316156114b557610137546040516308ea270d60e21b81526001600160a01b0386811660048301528781166024830152909116906323a89c3490604401600060405180830381600087803b15801561149c57600080fd5b505af11580156114b0573d6000803e3d6000fd5b505050505b6001600160a01b0383166000908152610136602052604090205460ff16156115db576001600160a01b038381166000908152610135602052604090819020549051633bdbe9a560e01b815291871691633bdbe9a59161151c91879160ff169060040161285f565b6020604051808303816000875af115801561153b573d6000803e3d6000fd5b505050506040513d601f19601f8201168201806040525081019061155f9190612885565b50610137546001600160a01b0316156115db57610137546040516308ea270d60e21b81526001600160a01b0385811660048301528781166024830152909116906323a89c3490604401600060405180830381600087803b1580156115c257600080fd5b505af11580156115d6573d6000803e3d6000fd5b505050505b6001600160a01b038481166000818152610134602081815260408084208987168086529083528185208054978d166001600160a01b0319988916811790915593835281852086865283529381902080549096168317909555935190815290927f91ccaa7a278130b65168c3a0c8d3bcae84cf5e43704342bd3ec0b59e59c036db910160405180910390a3610133546001600160a01b03161561174a576101335460405163cbc4801560e01b81526001600160a01b0387811660048301529091169063cbc48015906024016020604051808303816000875af11580156116c4573d6000803e3d6000fd5b505050506040513d601f19601f820116820180604052508101906116e89190612842565b50610133546040516312e3b4d160e01b81526001600160a01b038781166004830152909116906312e3b4d190602401600060405180830381600087803b15801561173157600080fd5b505af1158015611745573d6000803e3d6000fd5b505050505b6001600160a01b0381163b15611811576040516305573b1760e31b81526001600160a01b038681166004830152821690632ab9d8b890602401600060405180830381600087803b15801561179d57600080fd5b505af11580156117b1573d6000803e3d6000fd5b50506040516305573b1760e31b81526001600160a01b03858116600483015284169250632ab9d8b89150602401600060405180830381600087803b1580156117f857600080fd5b505af115801561180c573d6000803e3d6000fd5b505050505b5050505092915050565b611823611cce565b6001600160a01b03811661183657600080fd5b61013080546001600160a01b0319166001600160a01b0383169081179091556040517f3f4f4a8f9721ec3786da9a944d596306b980063581bd1e31aea8bea27dd9115690600090a250565b6000816001600160a01b0316611895610fa3565b6001600160a01b03161480610fd45750600083815260c9602090815260408083206001600160a01b038616845290915290205460ff16610fd4565b6118d8611cce565b6001600282900b12156118ea57600080fd5b6101f4600282900b13156118fd57600080fd5b61013054600160c81b9004600290810b9082900b0361191b57600080fd5b61013080547fffffffff000000ffffffffffffffffffffffffffffffffffffffffffffffffff16600160c81b62ffffff841602179055604051600282900b81527f7d7979096f943139ebee59f01c077a0f0766d06c40c86d596f23ed2561547cce90602001610966565b61198d611cce565b606580546001600160a01b0319166001600160a01b0383169081179091556119b3610fa3565b6001600160a01b03167f38d16b8cac22d99fc7c124b9cd0de2d3fa1faef420bfe791d8c362d765e2270060405160405180910390a350565b600054610100900460ff1615808015611a0b5750600054600160ff909116105b80611a255750303b158015611a25575060005460ff166001145b611a975760405162461bcd60e51b815260206004820152602e60248201527f496e697469616c697a61626c653a20636f6e747261637420697320616c72656160448201527f647920696e697469616c697a65640000000000000000000000000000000000006064820152608401610a15565b6000805460ff191660011790558015611aba576000805461ff0019166101001790555b6001600160a01b038216611acd57600080fd5b6001600160a01b038416611ae057600080fd5b6001600160a01b038316611af357600080fd5b611afb611de6565b611b03611e51565b611b0c85611ec4565b61012e80546001600160a01b03199081166001600160a01b038881169190911790925561012f80548216878416179055610130805461012d8054909316868516179092559185167fffffffff000000ffffffffff000000000000000000000000000000000000000090911617793c000000000000000000000000000000000000000000000000001761ffff60b81b19167801f40000000000000000000000000000000000000000000000179055611be37fa7106ea771a74f2d048c62cace8c00d3e120b24b61327e6415035f60d47ce88833611d39565b604051603c81527f7d7979096f943139ebee59f01c077a0f0766d06c40c86d596f23ed2561547cce9060200160405180910390a16040516101f481527fddc0c6f0b581e0d51bfe90ff138e4a548f94515c4dbcb12f5e98fdf0f75039839060200160405180910390a18015611c92576000805461ff0019169055604051600181527f7f26b83ff96e1f2b6a682f133852f6798a09c465da95921460cefb38474024989060200160405180910390a15b5050505050565b60006001600160e01b03198216637965db0b60e01b148061083757506301ffc9a760e01b6001600160e01b0319831614610837565b33611cd7610fa3565b6001600160a01b031614611d2d5760405162461bcd60e51b815260206004820181905260248201527f4f776e61626c653a2063616c6c6572206973206e6f7420746865206f776e65726044820152606401610a15565b565b610e208133611fbf565b611d438282612034565b600082815260fb6020526040902061099690826120d6565b611d6582826120eb565b600082815260fb60205260409020610996908261216e565b611d85611cce565b611d2d60005b611d9d6000611d98610fa3565b611d5b565b611da681612183565b6000611db0610fa3565b6001600160a01b031614610e2057610e206000611dcb610fa3565b611d39565b6000610fd4838361219c565b6000610837825490565b600054610100900460ff16611d2d5760405162461bcd60e51b815260206004820152602b60248201527f496e697469616c697a61626c653a20636f6e7472616374206973206e6f74206960448201526a6e697469616c697a696e6760a81b6064820152608401610a15565b600054610100900460ff16611ebc5760405162461bcd60e51b815260206004820152602b60248201527f496e697469616c697a61626c653a20636f6e7472616374206973206e6f74206960448201526a6e697469616c697a696e6760a81b6064820152608401610a15565b611d2d6121c6565b6001600160a01b038116611eeb57604051639fabe1c160e01b815260040160405180910390fd5b60405163c8992e6160e01b81527343000000000000000000000000000000000000029063c8992e6190611f2890600290600190869060040161289e565b600060405180830381600087803b158015611f4257600080fd5b505af1158015611f56573d6000803e3d6000fd5b505050506001600160a01b0381163b15610e20576040516305573b1760e31b81523060048201526001600160a01b03821690632ab9d8b890602401600060405180830381600087803b158015611fab57600080fd5b505af1158015611c92573d6000803e3d6000fd5b600082815260c9602090815260408083206001600160a01b038516845290915290205460ff16610a2857611ff28161223a565b611ffd83602061224c565b60405160200161200e9291906128ff565b60408051601f198184030181529082905262461bcd60e51b8252610a1591600401612980565b600082815260c9602090815260408083206001600160a01b038516845290915290205460ff16610a2857600082815260c9602090815260408083206001600160a01b03851684529091529020805460ff191660011790556120923390565b6001600160a01b0316816001600160a01b0316837f2f8788117e7eff1d82e926ec794901d17c78024a50270940304540a733656f0d60405160405180910390a45050565b6000610fd4836001600160a01b0384166123f5565b600082815260c9602090815260408083206001600160a01b038516845290915290205460ff1615610a2857600082815260c9602090815260408083206001600160a01b0385168085529252808320805460ff1916905551339285917ff6391f5c32d9c69d2a47ea670b442974b53935d1edc7fd64eb21e047a839171b9190a45050565b6000610fd4836001600160a01b038416612444565b606580546001600160a01b0319169055610e2081612537565b60008260000182815481106121b3576121b36129b3565b9060005260206000200154905092915050565b600054610100900460ff166122315760405162461bcd60e51b815260206004820152602b60248201527f496e697469616c697a61626c653a20636f6e7472616374206973206e6f74206960448201526a6e697469616c697a696e6760a81b6064820152608401610a15565b611d2d33611d8b565b60606108376001600160a01b03831660145b6060600061225b8360026129c9565b61226690600261281c565b67ffffffffffffffff81111561227e5761227e6129e0565b6040519080825280601f01601f1916602001820160405280156122a8576020820181803683370190505b509050600360fc1b816000815181106122c3576122c36129b3565b60200101906001600160f81b031916908160001a905350600f60fb1b816001815181106122f2576122f26129b3565b60200101906001600160f81b031916908160001a90535060006123168460026129c9565b61232190600161281c565b90505b60018111156123a6577f303132333435363738396162636465660000000000000000000000000000000085600f1660108110612362576123626129b3565b1a60f81b828281518110612378576123786129b3565b60200101906001600160f81b031916908160001a90535060049490941c9361239f816129f6565b9050612324565b508315610fd45760405162461bcd60e51b815260206004820181905260248201527f537472696e67733a20686578206c656e67746820696e73756666696369656e746044820152606401610a15565b600081815260018301602052604081205461243c57508154600181810184556000848152602080822090930184905584548482528286019093526040902091909155610837565b506000610837565b6000818152600183016020526040812054801561252d57600061246860018361282f565b855490915060009061247c9060019061282f565b90508181146124e157600086600001828154811061249c5761249c6129b3565b90600052602060002001549050808760000184815481106124bf576124bf6129b3565b6000918252602080832090910192909255918252600188019052604090208390555b85548690806124f2576124f2612a0d565b600190038181906000526020600020016000905590558560010160008681526020019081526020016000206000905560019350505050610837565b6000915050610837565b603380546001600160a01b038381166001600160a01b0319831681179093556040519116919082907f8be0079c531659141344cd1fd0a4f28419497f9722a3daafe3b4186f6b6457e090600090a35050565b60006020828403121561259b57600080fd5b81356001600160e01b031981168114610fd457600080fd5b6001600160a01b0381168114610e2057600080fd5b6000602082840312156125da57600080fd5b8135610fd4816125b3565b6000602082840312156125f757600080fd5b5035919050565b6000806040838503121561261157600080fd5b823591506020830135612623816125b3565b809150509250929050565b8035801515811461263e57600080fd5b919050565b60008060006060848603121561265857600080fd5b8335612663816125b3565b92506126716020850161262e565b915060408401356003811061268557600080fd5b809150509250925092565b6000602082840312156126a257600080fd5b610fd48261262e565b6000602082840312156126bd57600080fd5b813561ffff81168114610fd457600080fd5b600080604083850312156126e257600080fd5b50508035926020909101359150565b634e487b7160e01b600052602160045260246000fd5b60038110610e2057610e206126f1565b6020810161272483612707565b91905290565b6000806040838503121561273d57600080fd5b8235612748816125b3565b91506020830135612623816125b3565b60006020828403121561276a57600080fd5b81358060020b8114610fd457600080fd5b6000806000806080858703121561279157600080fd5b843561279c816125b3565b935060208501356127ac816125b3565b925060408501356127bc816125b3565b915060608501356127cc816125b3565b939692955090935050565b6001600160a01b03841681528215156020820152606081016127f883612707565b826040830152949350505050565b634e487b7160e01b600052601160045260246000fd5b8082018082111561083757610837612806565b8181038181111561083757610837612806565b60006020828403121561285457600080fd5b8151610fd4816125b3565b6001600160a01b03831681526040810161287883612707565b8260208301529392505050565b60006020828403121561289757600080fd5b5051919050565b606081016128ab85612707565b848252600284106128be576128be6126f1565b8360208301526001600160a01b0383166040830152949350505050565b60005b838110156128f65781810151838201526020016128de565b50506000910152565b7f416363657373436f6e74726f6c3a206163636f756e74200000000000000000008152600083516129378160178501602088016128db565b7f206973206d697373696e6720726f6c652000000000000000000000000000000060179184019182015283516129748160288401602088016128db565b01602801949350505050565b602081526000825180602084015261299f8160408501602087016128db565b601f01601f19169190910160400192915050565b634e487b7160e01b600052603260045260246000fd5b808202811582820484141761083757610837612806565b634e487b7160e01b600052604160045260246000fd5b600081612a0557612a05612806565b506000190190565b634e487b7160e01b600052603160045260246000fdfea164736f6c6343000814000a",
  "linkReferences": {},
  "deployedLinkReferences": {}
}