{
  "_format": "hh-sol-artifact-1",
  "contractName": "AlgebraPoolDeployer",
  "sourceName": "contracts/AlgebraPoolDeployer.sol",
  "abi": [
    {
      "inputs": [
        {
          "internalType": "address",
          "name": "_blastGovernor",
          "type": "address"
        },
        {
          "internalType": "address",
          "name": "_factory",
          "type": "address"
        }
      ],
      "stateMutability": "nonpayable",
      "type": "constructor"
    },
    {
      "inputs": [],
      "name": "AddressZero",
      "type": "error"
    },
    {
      "inputs": [
        {
          "internalType": "address",
          "name": "blastGovernor",
          "type": "address"
        },
        {
          "internalType": "address",
          "name": "blastPoints",
          "type": "address"
        },
        {
          "internalType": "address",
          "name": "blastPointsOperator",
          "type": "address"
        },
        {
          "internalType": "address",
          "name": "plugin",
          "type": "address"
        },
        {
          "internalType": "address",
          "name": "token0",
          "type": "address"
        },
        {
          "internalType": "address",
          "name": "token1",
          "type": "address"
        }
      ],
      "name": "deploy",
      "outputs": [
        {
          "internalType": "address",
          "name": "pool",
          "type": "address"
        }
      ],
      "stateMutability": "nonpayable",
      "type": "function"
    },
    {
      "inputs": [],
      "name": "getDeployParameters",
      "outputs": [
        {
          "internalType": "address",
          "name": "_blastGovernor",
          "type": "address"
        },
        {
          "internalType": "address",
          "name": "_blastPoints",
          "type": "address"
        },
        {
          "internalType": "address",
          "name": "_blastPointsOperator",
          "type": "address"
        },
        {
          "internalType": "address",
          "name": "_plugin",
          "type": "address"
        },
        {
          "internalType": "address",
          "name": "_factory",
          "type": "address"
        },
        {
          "internalType": "address",
          "name": "_token0",
          "type": "address"
        },
        {
          "internalType": "address",
          "name": "_token1",
          "type": "address"
        }
      ],
      "stateMutability": "view",
      "type": "function"
    }
  ],
  "bytecode": "0x60a060405234801561001057600080fd5b50604051615d6e380380615d6e8339818101604052604081101561003357600080fd5b5080516020909101516100458261006a565b6001600160a01b03811661005857600080fd5b6001600160a01b031660805250610101565b6001600160a01b03811661009157604051639fabe1c160e01b815260040160405180910390fd5b604051631d70c8d360e31b81526001600160a01b03821660048201527343000000000000000000000000000000000000029063eb86469890602401600060405180830381600087803b1580156100e657600080fd5b505af11580156100fa573d6000803e3d6000fd5b5050505050565b608051615c4c61012260003960008181607701526101300152615c4c6000f3fe608060405234801561001057600080fd5b50600436106100365760003560e01c806304889e261461003b5780630bcf6b4c146100b9575b600080fd5b600054600154600254600354600454600554604080516001600160a01b03978816815295871660208701529386168585015291851660608501527f000000000000000000000000000000000000000000000000000000000000000085166080850152841660a08401529290921660c082015290519081900360e00190f35b610107600480360360c08110156100cf57600080fd5b506001600160a01b038135811691602081013582169160408201358116916060810135821691608082013581169160a0013516610123565b604080516001600160a01b039092168252519081900360200190f35b6000336001600160a01b037f0000000000000000000000000000000000000000000000000000000000000000161461015a57600080fd5b6005805473ffffffffffffffffffffffffffffffffffffffff199081166001600160a01b038581169182179093556004805483168785169081179091556003805484168986161790556002805484168a86161790556001805484168b861617905560008054909316938b16939093179091556040805160208082019490945280820192909252805180830382018152606090920190819052815191909201209061020390610278565b8190604051809103906000f5905080158015610223573d6000803e3d6000fd5b506005805473ffffffffffffffffffffffffffffffffffffffff199081169091556004805482169055600380548216905560028054821690556001805482169055600080549091169055979650505050505050565b6159ba806102868339019056fe60e06040523480156200001157600080fd5b50600080808062000021620000d0565b6001600160a01b0390811660c05290811660a052166080529650919450925090506200004f83838362000156565b620d89e7196200005f81620003e4565b6008805462ffffff93841663010000000265ffffffffffff1990911693909216929092171790556002805460ff60e01b1916600160e01b1790556001600160a01b03841615620000b457620000b48462000200565b50505050620000ca60036200025460201b60201c565b620004c7565b6000806000806000806000336001600160a01b03166304889e266040518163ffffffff1660e01b815260040160e060405180830381865afa1580156200011a573d6000803e3d6000fd5b505050506040513d601f19601f8201168201806040525081019062000140919062000432565b959d949c50929a50909850965094509092509050565b6001600160a01b03821615806200017457506001600160a01b038116155b156200019357604051639fabe1c160e01b815260040160405180910390fd5b6200019e836200034a565b6040516336b91f2b60e01b81526001600160a01b0382811660048301528316906336b91f2b90602401600060405180830381600087803b158015620001e257600080fd5b505af1158015620001f7573d6000803e3d6000fd5b50505050505050565b600580546001600160a01b0319166001600160a01b0383169081179091556040519081527f27a3944eff2135a57675f17e72501038982b73620d01f794c72e93d61a3932a29060200160405180910390a150565b620d89e7196200026481620003e4565b620d89e7196000818152602085905260409020600101805465ffffffffffff60801b1916600160981b62ffffff9485160262ffffff60801b191617600160801b949093169390930291909117909155620002be81620003e4565b826000620002d0620d89e719620003e4565b60020b60020b81526020019081526020016000206001016010846000620d89e719620002fc90620003e4565b60020b81526020810191909152604001600020600101805462ffffff948516600160981b0262ffffff60981b1990911617905581549383166101009190910a90810292021990921617905550565b6001600160a01b0381166200037257604051639fabe1c160e01b815260040160405180910390fd5b604051631d70c8d360e31b81526001600160a01b03821660048201527343000000000000000000000000000000000000029063eb86469890602401600060405180830381600087803b158015620003c857600080fd5b505af1158015620003dd573d6000803e3d6000fd5b5050505050565b60008160020b627fffff1981036200040c57634e487b7160e01b600052601160045260246000fd5b60000392915050565b80516001600160a01b03811681146200042d57600080fd5b919050565b600080600080600080600060e0888a0312156200044e57600080fd5b620004598862000415565b9650620004696020890162000415565b9550620004796040890162000415565b9450620004896060890162000415565b9350620004996080890162000415565b9250620004a960a0890162000415565b9150620004b960c0890162000415565b905092959891949750929550565b60805160a05160c0516154376200058360003960008181610a4701528181610cd7015281816112a80152818161161201528181611a0c01528181611ace01528181611e6a0152818161256501528181612e560152612fbc01526000818161032901528181610d5d01528181611264015281816115cf01528181611a4401528181611a9601528181611e1b0152818161250d01528181612d110152612e250152600081816109b9015281816131620152613d4a01526154376000f3fe608060405234801561001057600080fd5b50600436106102ad5760003560e01c806397ce1c511161017b578063d5c35a7e116100d8578063ecdecf421161008c578063f085a61011610071578063f085a61014610b99578063f30dba9314610bb9578063f637731d14610c5357600080fd5b8063ecdecf4214610b7d578063ef01df4f14610b8657600080fd5b8063d8619037116100bd578063d861903714610a9c578063ddca3f4314610ac9578063e76c01e414610ae857600080fd5b8063d5c35a7e14610a69578063d8544cf314610a7657600080fd5b8063c45a01551161012f578063cc1f97cf11610114578063cc1f97cf14610a08578063d0c93a7c14610a2e578063d21220a714610a4257600080fd5b8063c45a0155146109b4578063c677e3e0146109db57600080fd5b80639e4e0227116101605780639e4e022714610821578063aafe29c0146108c0578063bca57f811461099457600080fd5b806397ce1c511461078a578063996cba68146107eb57600080fd5b8063490e6cbc116102295780636378ae44116101dd5780637bd78025116101c25780637bd780251461071f5780638380edb7146107485780638e0055531461076957600080fd5b80636378ae441461070157806370cf754a1461070a57600080fd5b8063514ea4bf1161020e578063514ea4bf1461064d57806353e97868146106d7578063578b9a36146106ea57600080fd5b8063490e6cbc146105705780634f1eb3d8146105fc57600080fd5b8063128acb0811610280578063240a875a11610265578063240a875a146104785780633b3bc70e1461049b5780633bdbe9a51461052f57600080fd5b8063128acb08146103905780631a6865021461043f57600080fd5b8063050a4d21146102b25780630902f1ac146102dd5780630dfe1681146103245780631131b11014610367575b600080fd5b6008546102c6906301000000900460020b81565b6040805160029290920b8252519081900360200190f35b600b546001600160801b0380821691600160801b9004165b60405180836001600160801b03168152602001826001600160801b031681526020019250505060405180910390f35b61034b7f000000000000000000000000000000000000000000000000000000000000000081565b604080516001600160a01b039092168252519081900360200190f35b6004546103779063ffffffff1681565b6040805163ffffffff9092168252519081900360200190f35b610426600480360360a08110156103a657600080fd5b6001600160a01b0382358116926020810135151592604082013592606083013516919081019060a0810160808201356401000000008111156103e757600080fd5b8201836020820111156103f957600080fd5b8035906020019184600183028401116401000000008311171561041b57600080fd5b509092509050610c79565b6040805192835260208301919091528051918290030190f35b60085461045c90660100000000000090046001600160801b031681565b604080516001600160801b039092168252519081900360200190f35b6104996004803603602081101561048e57600080fd5b503561ffff16610e89565b005b610426600480360360808110156104b157600080fd5b8135600290810b92602081013590910b916001600160801b0360408301351691908101906080810160608201356401000000008111156104f057600080fd5b82018360208201111561050257600080fd5b8035906020019184600183028401116401000000008311171561052457600080fd5b509092509050610f08565b61055e6004803603604081101561054557600080fd5b5080356001600160a01b0316906020013560ff166110c3565b60408051918252519081900360200190f35b6104996004803603608081101561058657600080fd5b6001600160a01b0382351691602081013591604082013591908101906080810160608201356401000000008111156105bd57600080fd5b8201836020820111156105cf57600080fd5b803590602001918460018302840111640100000000831117156105f157600080fd5b509092509050611145565b6102f5600480360360a081101561061257600080fd5b506001600160a01b03813516906020810135600290810b91604081013590910b906001600160801b0360608201358116916080013516611504565b6106a06004803603602081101561066357600080fd5b50600a60205235600090815260409020805460018201546002830154600390930154919290916001600160801b0380821691600160801b90041685565b604080519586526020860194909452848401929092526001600160801b039081166060850152166080830152519081900360a00190f35b60065461034b906001600160a01b031681565b60085461037790600160c81b900463ffffffff1681565b61055e60005481565b61045c6d09745258e83de0d0f4e400fce79981565b6004546cffffffffffffffffffffffffff6401000000008204811691600160881b9004166102f5565b600254600160e01b900460ff16604080519115158252519081900360200190f35b6104996004803603602081101561077f57600080fd5b503561ffff166116ec565b61079261178c565b604080516001600160a01b039098168852600296870b602089015261ffff9095168786015260ff90931660608701526001600160801b039091166080860152830b60a085015290910b60c0830152519081900360e00190f35b61055e6004803603606081101561080157600080fd5b506001600160a01b03813581169160208101359091169060400135611822565b610426600480360360c081101561083757600080fd5b6001600160a01b0382358116926020810135821692604082013515159260608301359260808101359091169181019060c0810160a082013564010000000081111561088157600080fd5b82018360208201111561089357600080fd5b803590602001918460018302840111640100000000831117156108b557600080fd5b5090925090506118a9565b61096d600480360360c08110156108d657600080fd5b6001600160a01b0382358116926020810135909116916040820135600290810b92606081013590910b916001600160801b03608083013516919081019060c0810160a082013564010000000081111561092e57600080fd5b82018360208201111561094057600080fd5b8035906020019184600183028401116401000000008311171561096257600080fd5b509092509050611baf565b6040805193845260208401929092526001600160801b031682820152519081900360600190f35b610499600480360360208110156109aa57600080fd5b503560ff16611f70565b61034b7f000000000000000000000000000000000000000000000000000000000000000081565b61055e600480360360208110156109f157600080fd5b5060076020523560010b6000908152604090205481565b61049960048036036020811015610a1e57600080fd5b50356001600160a01b0316611fc3565b6008546102c690600160b01b900460020b81565b61034b7f000000000000000000000000000000000000000000000000000000000000000081565b6008546102c69060020b81565b61049960048036036020811015610a8c57600080fd5b50356001600160a01b0316611fe6565b61055e60048036036020811015610ab257600080fd5b5060096020523560010b6000908152604090205481565b610ad1612031565b6040805161ffff9092168252519081900360200190f35b60028054610b33916001600160a01b03821691600160a01b810490910b9061ffff600160b81b820481169160ff600160c81b8204811692600160d01b83041691600160e01b90041686565b604080516001600160a01b03909716875260029590950b602087015261ffff9384168686015260ff90921660608601529091166080840152151560a0830152519081900360c00190f35b61055e60015481565b60055461034b906001600160a01b031681565b61049960048036036020811015610baf57600080fd5b503560020b6120d5565b610c1760048036036020811015610bcf57600080fd5b50600360208190529035600290810b600090815260409020805460018201548284015492909401549093600f81900b93600160801b8204810b93600160981b909204900b9186565b60408051968752600f9590950b6020870152600293840b868601529190920b6060850152608084019190915260a0830152519081900360c00190f35b61049960048036036020811015610c6957600080fd5b50356001600160a01b031661213e565b600080610c8c8888888860008989612384565b610c9461247c565b600080610c9f6124b5565b91509150600080600080610cb48d8d8d61268c565b949c50929a509096509450925090508c15610d4f576000871215610d0057610d007f00000000000000000000000000000000000000000000000000000000000000008f89600003612c88565b610d0c88888c8c612c98565b610d14612cf9565b610d1e89886151ea565b1115610d3d57604051633ed6d50560e21b815260040160405180910390fd5b610d4a8888836000612d8a565b610dd0565b6000881215610d8657610d867f00000000000000000000000000000000000000000000000000000000000000008f8a600003612c88565b610d9288888c8c612c98565b610d9a612fa4565b610da488876151ea565b1115610dc357604051633ed6d50560e21b815260040160405180910390fd5b610dd08888600084612d8a565b8d6001600160a01b0316336001600160a01b03167fc42079f94a6350d7e6235f29174924f928cc2ac818eb64fed8004e115fbcca678a8a88878960405180868152602001858152602001846001600160a01b03168152602001836001600160801b031681526020018260020b81526020019550505050505060405180910390a3505050505050610e6e6002805460ff60e01b1916600160e01b179055565b610e7e8888888886868a8a612ff3565b965096945050505050565b610e916130f0565b610e9961311c565b6103e861ffff82161180610ebc575060025461ffff828116600160d01b90920416145b80610ede575061ffff811615801590610ede57506006546001600160a01b0316155b15610efc5760405163a709b9af60e01b815260040160405180910390fd5b610f05816131e2565b50565b6000808686610f178282613239565b6f7fffffffffffffffffffffffffffffff6001600160801b0388161115610f5157604051638995290f60e01b815260040160405180910390fd5b6000610f5c886151fd565b9050610f6c338b8b848b8b6132bb565b610f7461247c565b610f7c6124b5565b50506000610faa338c8c62ffffff9081169116601892831b1790911b176000908152600a6020526040902090565b9050610fb8818c8c85613392565b909650945085851715611022576003810154610fde9087906001600160801b031661522c565b6003820154610ffe908790600160801b90046001600160801b031661522c565b6001600160801b039182169116600160801b026001600160801b0319161760038201555b6001600160801b038916861785171561108d57604080516001600160801b038b16815260208101889052808201879052905160028c810b92908e900b9133917f0c396cd989a39f4459b5fa1aed6a9a8dcdbc45908acfd67e028cd568da98982c919081900360600190a45b6110a56002805460ff60e01b1916600160e01b179055565b6110b5338c8c858a8a8e8e6134b7565b505050509550959350505050565b60006110cd6135b3565b604051631a33757d60e01b81526001600160a01b03841690631a33757d906110f9908590600401615253565b6020604051808303816000875af1158015611118573d6000803e3d6000fd5b505050506040513d601f19601f8201168201806040525081019061113c919061527b565b90505b92915050565b600254600160c81b90046010161561122b576005546040516346f0547760e11b80825233600483018181526001600160a01b038a81166024860152604485018a90526064850189905260a06084860190815260a4860188905261122b9694959190941693638de0a8ee93928c928c928c928c928c929060c401848480828437600081840152601f19601f8201169050808301925050509750505050505050506020604051808303816000875af1158015611203573d6000803e3d6000fd5b505050506040513d602081101561121957600080fd5b50516001600160e01b031916906135bb565b61123361247c565b6000806000806112416124b5565b90925090506000881561128a5761125d896064620f42406135f8565b905061128a7f00000000000000000000000000000000000000000000000000000000000000008b8b612c88565b600088156112ce576112a1896064620f42406135f8565b90506112ce7f00000000000000000000000000000000000000000000000000000000000000008c8b612c88565b6112da82828a8a613678565b6112e2612cf9565b9550856112ef83866151ea565b111561130e576040516336de50ff60e11b815260040160405180910390fd5b611316612fa4565b94508461132382856151ea565b11156113425760405163c998149f60e01b815260040160405180910390fd5b60025495849003959483900394600160d01b900461ffff16801561139f57600087156113785761137588836103e86136a1565b90505b600087156113905761138d88846103e86136a1565b90505b61139c82828484612d8a565b50505b604080518c8152602081018c90528082018990526060810188905290516001600160a01b038e169133917fbdbdb71d7860376ba52b25a5028beea23581364a40522f6bcfb86bb1f2dca6339181900360800190a350505050506114106002805460ff60e01b1916600160e01b179055565b600254600160c81b9004602016156114fb576114fb63343d37ff60e01b600560009054906101000a90046001600160a01b03166001600160a01b031663343d37ff338b8b8b89898d8d6040518963ffffffff1660e01b815260040180896001600160a01b03168152602001886001600160a01b03168152602001878152602001868152602001858152602001848152602001806020018281038252848482818152602001925080828437600081840152601f19601f82011690508083019250505099505050505050505050506020604051808303816000875af1158015611203573d6000803e3d6000fd5b50505050505050565b60008061150f61247c565b600061153b33888862ffffff9081169116601892831b1790911b176000908152600a6020526040902090565b60038101549091506001600160801b0380821691600160801b90048116908716821015611566578196505b806001600160801b0316866001600160801b03161115611584578095505b6001600160801b0387871716156116c7576001600160801b0387830381168783038216600160801b026001600160801b0319161760038501558795508694508516156115fe576115fe7f00000000000000000000000000000000000000000000000000000000000000008b876001600160801b0316612c88565b6001600160801b03841615611641576116417f00000000000000000000000000000000000000000000000000000000000000008b866001600160801b0316612c88565b611666856001600160801b0316600003856001600160801b0316600003600080612d8a565b604080516001600160a01b038c1681526001600160801b038088166020830152861681830152905160028a810b92908c900b9133917f70935338e69775456a85ddef226c395fb668b63fa0115f5f20610b388e6ca9c0919081900360600190a45b6116df6002805460ff60e01b1916600160e01b179055565b5050509550959350505050565b600254600160c81b8104608016151590600160e01b900460ff1661172357604051636798480960e11b815260040160405180910390fd5b6005546001600160a01b03163303611758578061175357604051633a4528ef60e01b815260040160405180910390fd5b61177f565b8015611777576040516369cdc70760e11b815260040160405180910390fd5b61177f61311c565b6117888261373a565b5050565b600280546001600160a01b03811691600160a01b8204900b9061ffff600160b81b8204169060ff600160c81b820481169160009182918291600160e01b90910416806117eb57604051636798480960e11b815260040160405180910390fd5b505060085495969495939492936001600160801b03660100000000000082041693600282810b9450630100000090920490910b9150565b600061182c6135b3565b604051635569f64b60e11b81526001600160a01b0384811660048301526024820184905285169063aad3ec96906044016020604051808303816000875af115801561187b573d6000803e3d6000fd5b505050506040513d601f19601f8201168201806040525081019061189f919061527b565b90505b9392505050565b60008060008612156118ce576040516334cb3a0160e11b815260040160405180910390fd5b6118d661247c565b6000871561192c5760006118e8612cf9565b90506118f78860008888612c98565b6000611901612cf9565b90506119156119108383615294565b6137a4565b9250611925836000806000612d8a565b5050611971565b6000611936612fa4565b90506119456000898888612c98565b600061194f612fa4565b905061195e6119108383615294565b925061196e600084600080612d8a565b50505b86811461197c578096505b508560000361199e57604051633ed6d50560e21b815260040160405180910390fd5b6119b66002805460ff60e01b1916600160e01b179055565b6119c68888888860018989612384565b6119ce61247c565b6119d66124b5565b50506000806000806119e98b8b8b61268c565b949a509298509096509450925090508a15611a88576000851215611a3557611a357f00000000000000000000000000000000000000000000000000000000000000008d87600003612c88565b858a038a8714611a6a57611a6a7f00000000000000000000000000000000000000000000000000000000000000008f83612c88565b611a82611a76826137a4565b60000387846000612d8a565b50611b0e565b6000861215611abf57611abf7f00000000000000000000000000000000000000000000000000000000000000008d88600003612c88565b848a038a8614611af457611af47f00000000000000000000000000000000000000000000000000000000000000008f83612c88565b611b0c87611b01836137a4565b600003600085612d8a565b505b60408051878152602081018790526001600160a01b03868116828401526001600160801b0385166060830152600286900b60808301529151918e169133917fc42079f94a6350d7e6235f29174924f928cc2ac818eb64fed8004e115fbcca67919081900360a00190a3611b8f6002805460ff60e01b1916600160e01b179055565b611b9f8c8c8c8c8a8a8e8e612ff3565b5050505097509795505050505050565b60008060008787611bc08282613239565b876001600160801b0316600003611bea5760405163e6ace6df60e01b815260040160405180910390fd5b611c098b8b8b611c028c6001600160801b03166137b8565b8b8b6132bb565b611c1161247c565b60028054600160a01b810490910b906001600160a01b03166000819003611c4b5760405163812eb65560e01b815260040160405180910390fd5b600854600160b01b9004600290810b9081908d900b81611c6d57611c6d6152a7565b078160020b8e60020b81611c8357611c836152a7565b071760020b15611ca657604051635f6e14f360e01b815260040160405180910390fd5b50611cc58c8c611cbe8d6001600160801b03166137b8565b85856137cb565b50909750955060009150819050611cda6124b5565b91509150611cea87878b8b61387a565b8615611d085781611cf9612cf9565b611d039190615294565b611d0b565b60005b91508515611d2b5780611d1c612fa4565b611d269190615294565b611d2e565b60005b905086821015611d5357611d4c8a6001600160801b031683896136a1565b9450611d57565b8994505b85811015611d97576000611d758b6001600160801b031683896136a1565b9050856001600160801b0316816001600160801b03161015611d95578095505b505b846001600160801b0316600003611dc157604051632fae8a9b60e21b815260040160405180910390fd5b62ffffff8b8116908d1660188f811b91909117901b176000908152600a60205260409020611e02818e8e611dfd6001600160801b038b166137b8565b613392565b9098509650508615611e575786821115611e4857611e437f00000000000000000000000000000000000000000000000000000000000000008f898503612c88565b611e57565b868214611e5757611e576152bd565b8515611ea65785811115611e9757611e927f00000000000000000000000000000000000000000000000000000000000000008f888403612c88565b611ea6565b858114611ea657611ea66152bd565b611eb38787600080612d8a565b8a60020b8c60020b8e6001600160a01b03167f7a53080ba414158be7ec69b987b5fb7d07dee101fe85488f0853ae16239d0bde33898c8c60405180856001600160a01b03168152602001846001600160801b0316815260200183815260200182815260200194505050505060405180910390a4611f3e6002805460ff60e01b1916600160e01b179055565b611f5f8d8d8d611f56896001600160801b03166137b8565b8b8b8f8f6134b7565b505050509750975097945050505050565b611f786130f0565b6005546001600160a01b031680611fa257604051639e727ce360e01b815260040160405180910390fd5b336001600160a01b03821614611fba57611fba61311c565b611788826138a3565b611fcb6130f0565b611fd361311c565b611fdd60006138a3565b610f058161390c565b611fee6130f0565b611ff661311c565b6001600160a01b0381161580156120195750600254600160d01b900461ffff1615155b156120285761202860006131e2565b610f058161395a565b600254600160b81b810461ffff1690600160c81b900460ff811690608016156120d157600560009054906101000a90046001600160a01b03166001600160a01b031663f70d93626040518163ffffffff1660e01b8152600401602060405180830381865afa1580156120a7573d6000803e3d6000fd5b505050506040513d601f19601f820116820180604052508101906120cb91906152e5565b91505090565b5090565b6120dd6130f0565b6120e561311c565b60008160020b1315806120fd57506101f4600282900b135b806121175750600854600282810b600160b01b909204900b145b1561213557604051632bf827d160e21b815260040160405180910390fd5b610f05816139a8565b600061214982613a11565b6002549091506001600160a01b03161561217657604051631499a6b760e21b815260040160405180910390fd5b600280546001600160a01b0319166001600160a01b038481169190911790915560055416156121ff57600554604080516318dbf60160e21b8082523360048301526001600160a01b03868116602484015292516121ff9491939091169163636fd80491604480830192602092919082900301816000875af1158015611203573d6000803e3d6000fd5b60008060008061220d613d24565b600280547fffffffff0000ffffff000000ffffffffffffffffffffffffffffffffffffffff8116600160a01b62ffffff8d160261ffff60d01b191617600160d01b61ffff881602178255604080516001600160a01b038e168152928c900b60208401528051969a50949850929650909450600160c81b90910460ff16927f98636036cb66a9c19a37435efc1e90142190214e8abeb821bdba3f2990dd4c95929181900390910190a16122be8361373a565b6122c7846139a8565b6122d08261395a565b61ffff8516158015906122ea57506001600160a01b038216155b156123085760405163a709b9af60e01b815260040160405180910390fd5b612311856131e2565b60408116156114fb576005546040805163416eb29160e11b8082523360048301526001600160a01b038b8116602484015260028b900b604484015292516114fb949193909116916382dd652291606480830192602092919082900301816000875af1158015611203573d6000803e3d6000fd5b600254600160c81b9004600116156114fb576114fb63029c1cb760e01b600560009054906101000a90046001600160a01b03166001600160a01b031663029c1cb7338b8b8b8b8b8b8b6040518963ffffffff1660e01b815260040180896001600160a01b03168152602001886001600160a01b031681526020018715158152602001868152602001856001600160a01b031681526020018415158152602001806020018281038252848482818152602001925080828437600081840152601f19601f82011690508083019250505099505050505050505050506020604051808303816000875af1158015611203573d6000803e3d6000fd5b600254600160e01b900460ff166124a657604051636798480960e11b815260040160405180910390fd5b6002805460ff60e01b19169055565b6000806124c0612cf9565b6124c8612fa4565b90925090506001600160801b038211806124e857506001600160801b0381115b156125ab576006546001600160a01b03166001600160801b03831115612551576125467f0000000000000000000000000000000000000000000000000000000000000000826ffffffffffffffffffffffffffffffffe198601612c88565b6001600160801b0392505b6001600160801b038211156125a95761259e7f0000000000000000000000000000000000000000000000000000000000000000826ffffffffffffffffffffffffffffffffe198501612c88565b6001600160801b0391505b505b600854660100000000000090046001600160801b031660008190036125cf57509091565b600b546001600160801b0380821691600160801b90041681851181851181806125f55750805b1561268357811561262d57612623846001600160801b03168803600160801b876001600160801b03166136a1565b6000805490910190555b801561266057612656836001600160801b03168703600160801b876001600160801b03166136a1565b6001805490910190555b6001600160801b03808816908716600160801b026001600160801b03191617600b555b50505050509091565b600080600080600080876000036126b6576040516301e76e6160e61b815260040160405180910390fd5b600160ff1b88036126da576040516334cb3a0160e11b815260040160405180910390fd5b6040805161014081018252600060208201819052606082018190526080820181905260a08201819052808b1360c08301529181018a9052600854600281810b61012084015263010000008204810b610100840152805461ffff600160d01b820481168552600160b81b82041660e08501526001600160a01b0381169850600160a01b9004900b9550660100000000000090046001600160801b03169350908590036127985760405163812eb65560e01b815260040160405180910390fd5b89156127f857846001600160a01b0316886001600160a01b03161015806127cd57506401000276a36001600160a01b03891611155b156127eb57604051631662672360e01b815260040160405180910390fd5b600054608082015261285d565b846001600160a01b0316886001600160a01b0316111580612836575073fffd8963efd1fc6a506488495d951d5263988d266001600160a01b03891610155b1561285457604051631662672360e01b815260040160405180910390fd5b60015460808201525b61288f6040518060a0016040528060008152602001600081526020016000815260200160008152602001600081525090565b60008b6128a1578261012001516128a8565b8261010001515b6001600160a01b038816835290506128bf81613dc3565b6001600160a01b03908116602084018190526128fc918e918a918e1611821515146128ee5784602001516128f0565b8c5b888f8860e0015161409e565b60808601526060850152604084015260c0840151909750156129545761292b82608001518360400151016137a4565b8b039a5061294a61293f83606001516137a4565b606085015190614270565b606084015261298c565b61296182606001516137a4565b8b019a5061298661297b83608001518460400151016137a4565b606085015190614286565b60608401525b8251156129ce57825160808301516000916103e8916129aa9161429c565b816129b7576129b76152a7565b608085018051929091049182900390529490940193505b6001600160801b03851615612a05576129f98260800151600160801b876001600160801b03166136a1565b60808401805190910190525b8160200151876001600160a01b031603612b21578260200151612a4057600160208401528b612a3657600054612a3a565b6001545b60a08401525b60008c15612aaf5750608083015160a0840151600283810b600081815260036020819052604082209081018054828601805490980390975595909403909455600190920154600160801b810490910b61010087015261012086019190915260001983019750600f0b9003612b0f565b5060a08301516080840151600283810b60008181526003602081905260409091209081018054828501805490970390965594909303909355600190910154600160981b810490910b6101208601526101008501919091529095508590600f0b5b612b1986826142c6565b955050612b43565b81516001600160a01b03881614612b4357612b3b87613a11565b955050612b6a565b508915801590612b655750886001600160a01b0316866001600160a01b031614155b61288f575b60008a83604001510390508260c0015115158c151514612b8f57826060015181612b96565b8083606001515b600280547fffffffffffffffffff000000000000000000000000000000000000000000000016600160a01b62ffffff8b16026001600160a01b031916176001600160a01b038b161790556020850151919a509850159050612c5e576101008201516101208301516008805462ffffff92831665ffffffffffff199091161763010000009290931691909102919091177fffffffffffffffffffff00000000000000000000000000000000ffffffffffff1666010000000000006001600160801b038716021790555b8a15612c71576080820151600055612c7a565b60808201516001555b505093975093979195509350565b612c93838383614340565b505050565b604051631644ac7b60e11b81523390632c8958f690612cc1908790879087908790600401615329565b600060405180830381600087803b158015612cdb57600080fd5b505af1158015612cef573d6000803e3d6000fd5b5050505050505050565b6040516370a0823160e01b81523060048201526000907f00000000000000000000000000000000000000000000000000000000000000006001600160a01b0316906370a08231906024015b602060405180830381865afa158015612d61573d6000803e3d6000fd5b505050506040513d601f19601f82011682018060405250810190612d85919061527b565b905090565b81811715612f1a576004546cffffffffffffffffffffffffff64010000000082048116840191600160881b90041682016000612dc34290565b600454909150610e1063ffffffff9182168303909116101580612df257506cffffffffffffffffffffffffff83115b80612e0957506cffffffffffffffffffffffffff82115b15612eb5576006546001600160a01b03168315612e4b57612e4b7f00000000000000000000000000000000000000000000000000000000000000008286612c88565b8215612e7c57612e7c7f00000000000000000000000000000000000000000000000000000000000000008285612c88565b6004805463ffffffff191663ffffffff8416179055612e9a846137a4565b8803612ea5846137a4565b9098509096039550600092508291505b50600480547fffff0000000000000000000000000000000000000000000000000000ffffffff16600160881b6cffffffffffffffffffffffffff9384160270ffffffffffffffffffffffffff0000000019161764010000000093909216929092021790555b83831715612f9e57600b546001600160801b0380821691600160801b9004168515612f5d57612f51612f4c8784615349565b6143a4565b6001600160801b031691505b8415612f7c57612f70612f4c8683615349565b6001600160801b031690505b6001600160801b039182169116600160801b026001600160801b03191617600b555b50505050565b6040516370a0823160e01b81523060048201526000907f00000000000000000000000000000000000000000000000000000000000000006001600160a01b0316906370a0823190602401612d44565b60028054600160c81b90041615612cef57612cef639cb5a96360e01b600560009054906101000a90046001600160a01b03166001600160a01b0316639cb5a963338c8c8c8c8c8c8c8c6040518a63ffffffff1660e01b8152600401808a6001600160a01b03168152602001896001600160a01b031681526020018815158152602001878152602001866001600160a01b03168152602001858152602001848152602001806020018281038252848482818152602001925080828437600081840152601f19601f8201169050808301925050509a50505050505050505050506020604051808303816000875af1158015611203573d6000803e3d6000fd5b600254600160e01b900460ff1661311a57604051636798480960e11b815260040160405180910390fd5b565b6040805163e8ae2b6960e01b81527fb73ce166ead2f8e9add217713a7989e4edfba9625f71dfd2516204bb67ad3442600482015233602482015290516001600160a01b037f0000000000000000000000000000000000000000000000000000000000000000169163e8ae2b699160448083019260209291908290030181865afa1580156131ad573d6000803e3d6000fd5b505050506040513d60208110156131c357600080fd5b505161311a57604051634994c26960e11b815260040160405180910390fd5b6002805461ffff60d01b1916600160d01b61ffff8416908102919091179091556040519081527f3647dccc990d4941b0b05b32527ef493a98d6187b20639ca2f9743f3b55ca5e1906020015b60405180910390a150565b613246620d89e719615371565b60020b8160020b131561326c57604051631445443d60e01b815260040160405180910390fd5b8160020b8160020b136132925760405163d9a841a760e01b815260040160405180910390fd5b620d89e719600283900b121561178857604051631d1ac7f160e21b815260040160405180910390fd5b600254600160c81b90046004161561338a57600554604051632f1208d960e11b80825233600483018181526001600160a01b038b8116602486015260028b810b60448701528a900b6064860152600f89900b608486015260c060a4860190815260c4860188905261338a9694959190941693635e2411b293928d928d928d928d928d928d929160e401848480828437600081840152601f19601f820116905080830192505050985050505050505050506020604051808303816000875af1158015611203573d6000803e3d6000fd5b505050505050565b6002805460008054600154919384936001600160a01b03811693600160a01b90910490910b918491829190600f89900b156133ee576133d860038c878c868660006143ba565b93506133eb60038b878c868660016143ba565b92505b60008061340060038e8e8a88886144ab565b915091506134108e8c8484614549565b5050505086600f0b6000146134aa5781806134285750805b1561344157613441898984848760008d600f0b1261463e565b60006134508a8a8a87896137cb565b91985096509050600f81900b156134a85760085461348190660100000000000090046001600160801b0316896142c6565b600860066101000a8154816001600160801b0302191690836001600160801b031602179055505b505b5050505094509492505050565b600254600160c81b900460081615612cef57612cef63d685201060e01b600560009054906101000a90046001600160a01b03166001600160a01b031663d6852010338c8c8c8c8c8c8c8c6040518a63ffffffff1660e01b8152600401808a6001600160a01b03168152602001896001600160a01b031681526020018860020b81526020018760020b815260200186600f0b8152602001858152602001848152602001806020018281038252848482818152602001925080828437600081840152601f19601f8201169050808301925050509a50505050505050505050506020604051808303816000875af1158015611203573d6000803e3d6000fd5b61311a61311c565b6001600160e01b0319828116908216146117885760405163d3f5153b60e01b81526001600160e01b03198216600482015260240160405180910390fd5b600083158061361957505082820282848281613616576136166152a7565b04145b1561363a576000821161362b57600080fd5b818104908290061515016118a2565b6136458484846136a1565b905060008280613657576136576152a7565b84860911156118a257600019811061366e57600080fd5b6001019392505050565b604051632982c34f60e21b8152339063a60b0d3c90612cc1908790879087908790600401615329565b600083830281600019858709828110838203039150508084116136c357600080fd5b806000036136d6575082900490506118a2565b8385870960008581038616958690049560026003880281188089028203028089028203028089028203028089028203028089028203028089029091030291819003819004600101858411909403939093029190930391909104170290509392505050565b600280547fffffffffffffff0000ffffffffffffffffffffffffffffffffffffffffffffff16600160b81b61ffff8416908102919091179091556040519081527f598b9f043c813aa6be3426ca60d1c65d17256312890be5118dab55b0775ebe2a9060200161322e565b8060008112156137b357600080fd5b919050565b806000600f82900b12156137b357600080fd5b6000806000806137da89613dc3565b905060006137e789613dc3565b90506000808b60020b8960020b121561380c5761380584848c614737565b915061384a565b8a60020b8960020b121561383c5761382588848c614737565b915061383284898c61476f565b905089945061384a565b61384784848c61476f565b90505b60008a600f0b1261385c578181613865565b81600003816000035b909d909c50949a509398505050505050505050565b604051633dd657c560e01b81523390633dd657c590612cc1908790879087908790600401615329565b600280547fffffffffffff00ffffffffffffffffffffffffffffffffffffffffffffffffff16600160c81b60ff8416908102919091179091556040519081527f3a6271b36c1b44bd6a0a0d56230602dc6919b7c17af57254306fadf5fee69dc39060200161322e565b600580546001600160a01b0319166001600160a01b0383169081179091556040519081527f27a3944eff2135a57675f17e72501038982b73620d01f794c72e93d61a3932a29060200161322e565b600680546001600160a01b0319166001600160a01b0383169081179091556040519081527fb0b573c1f636e1f8bd9b415ba6c04d6dd49100bc25493fc6305b65ec0e581df39060200161322e565b600880547fffffffffffffff000000ffffffffffffffffffffffffffffffffffffffffffff16600160b01b62ffffff841602179055604051600282900b81527f01413b1d5d4c359e9a0daa7909ecda165f6e8c51fe2ff529d74b22a5a7c026459060200161322e565b60006401000276a36001600160a01b0383161080613a4c575073fffd8963efd1fc6a506488495d951d5263988d266001600160a01b03831610155b15613a6a576040516355cf1e2360e01b815260040160405180910390fd5b77ffffffffffffffffffffffffffffffffffffffff00000000602083901b166001600160801b03811160071b81811c67ffffffffffffffff811160061b90811c63ffffffff811160051b90811c61ffff811160041b90811c60ff8111600390811b91821c600f811160021b90811c918211600190811b92831c97908811961790941790921717909117171760808110613b0b57607f810383901c9150613b15565b80607f0383901b91505b908002607f81811c60ff83811c9190911c800280831c81831c1c800280841c81841c1c800280851c81851c1c800280861c81861c1c800280871c81871c1c800280881c81881c1c800280891c81891c1c8002808a1c818a1c1c8002808b1c818b1c1c8002808c1c818c1c1c8002808d1c818d1c1c8002808e1c9c81901c9c909c1c80029c8d901c9e9d607f198f0160401b60c09190911c678000000000000000161760c19b909b1c674000000000000000169a909a1760c29990991c672000000000000000169890981760c39790971c671000000000000000169690961760c49590951c670800000000000000169490941760c59390931c670400000000000000169290921760c69190911c670200000000000000161760c79190911c670100000000000000161760c89190911c6680000000000000161760c99190911c6640000000000000161760ca9190911c6620000000000000161760cb9190911c6610000000000000161760cc9190911c6608000000000000161760cd9190911c66040000000000001617693627a301d71055774c8581026f028f6481ab7f045a5af012a19d003aa9198101608090811d906fdb2df09e81959a81455e260799a0632f8301901d600281810b9083900b14613d1557886001600160a01b0316613cfa82613dc3565b6001600160a01b03161115613d0f5781613d17565b80613d17565b815b9998505050505050505050565b6040516382b13d8d60e01b81523060048201526000908190819081906001600160a01b037f000000000000000000000000000000000000000000000000000000000000000016906382b13d8d90602401608060405180830381865afa158015613d91573d6000803e3d6000fd5b505050506040513d601f19601f82011682018060405250810190613db5919061538a565b935093509350935090919293565b6000600282900b60171d62ffffff818401821816620d89e8811115613dfb57604051633c10250f60e01b815260040160405180910390fd5b600160801b6001821615613e1c57506ffffcb933bd6fad37aa2d162d1a5940015b6002821615613e3b576ffff97272373d413259a46990580e213a0260801c5b6004821615613e5a576ffff2e50f5f656932ef12357cf3c7fdcc0260801c5b6008821615613e79576fffe5caca7e10e4e61c3624eaa0941cd00260801c5b6010821615613e98576fffcb9843d60f6159c9db58835c9266440260801c5b6020821615613eb7576fff973b41fa98c081472e6896dfb254c00260801c5b6040821615613ed6576fff2ea16466c96a3843ec78b326b528610260801c5b6080821615613ef5576ffe5dee046a99a2a811c461f1969c30530260801c5b610100821615613f15576ffcbe86c7900a88aedcffc83b479aa3a40260801c5b610200821615613f35576ff987a7253ac413176f2b074cf7815e540260801c5b610400821615613f55576ff3392b0822b70005940c7a398e4b70f30260801c5b610800821615613f75576fe7159475a2c29b7443b29c7fa6e889d90260801c5b611000821615613f95576fd097f3bdfd2022b8845ad8f792aa58250260801c5b612000821615613fb5576fa9f746462d870fdf8a65dc1f90e061e50260801c5b614000821615613fd5576f70d869a156d2a1b890bb3df62baf32f70260801c5b618000821615613ff5576f31be135f97d08fd981231505542fcfa60260801c5b62010000821615614016576f09aa508b5b7a84e1c677de54f3e99bc90260801c5b62020000821615614036576e5d6af8dedb81196699c329225ee6040260801c5b62040000821061407c576204000082161561405f576d2216e584f5fa1ea926041bedfe980260801c5b6208000082161561407c576b048a170391f7dc42444e8fa20260801c5b60008560020b131561408d57600019045b63ffffffff0160201c949350505050565b6000806000806151cc8a6140b45761479f6140b8565b6147ae5b9050600087126141905760006140e5888861ffff16620f42400362ffffff16620f424062ffffff166136a1565b90506140f68a8c8b8563ffffffff16565b94508481106141235789955061411c8561ffff891662ffffff620f4240829003166135f8565b9250614169565b61412f8b8a838f6147bd565b9550856001600160a01b03168a6001600160a01b031603614152576141526152bd565b614161868c8b8563ffffffff16565b945084880392505b614188868c8b8f61417c576147d8614180565b6147e75b63ffffffff16565b935050614262565b6151cc8b6141a0576147d86141a4565b6147e75b90506141b58a8c8b8463ffffffff16565b935087600003975060008812156141df576040516334cb3a0160e11b815260040160405180910390fd5b8388106141ee57899550614233565b6141fa8b8a8a8f6147f6565b9550856001600160a01b03168a6001600160a01b03161461422757614224868c8b8463ffffffff16565b93505b87841115614233578793505b614242868c8b8563ffffffff16565b945061425e8561ffff891662ffffff620f4240829003166135f8565b9250505b509650965096509692505050565b8082038281131560008312151461113f57600080fd5b8181018281121560008312151461113f57600080fd5b60008215806142bd575050818102818382816142ba576142ba6152a7565b04145b61113f57600080fd5b60008082600f0b121561430857508082016001600160801b0380841690821610614303576040516302603ee960e31b815260040160405180910390fd5b61113f565b826001600160801b03168284019150816001600160801b0316101561113f57604051634cba017960e11b815260040160405180910390fd5b600060405163a9059cbb60e01b6000526001600160a01b03841660045282602452602060006044600080895af19150813d1560203d146001600051141617169150806040525080612f9e57604051637232c81f60e11b815260040160405180910390fd5b806001600160801b03811681146137b357600080fd5b600286900b60009081526020889052604081208054826143da82896142c6565b6001600160801b031690506d09745258e83de0d0f4e400fce799811115614414576040516312dc1b2560e11b815260040160405180910390fd5b6001830154600f0b856144385788600f0b81600f0b6144339190615349565b61444a565b88600f0b81600f0b61444a91906153f4565b6001850180546001600160801b0319166001600160801b039290921691909117905581845581159450600083900361449c57841594508960020b8b60020b1361449c5760038401879055600284018890555b50505050979650505050505050565b600285810b60009081526020889052604080822087840b8084529183209293849391929088900b1215614521578860020b8760020b126144fc5781600201548603935081600301548503925061450b565b81600201549350816003015492505b600281015460038201549403939092039161453c565b81600201548160020154039350816003015481600301540392505b5050965096945050505050565b8354600f84900b60000361457357806001600160801b031660000361456e5750612f9e565b614589565b61457d81856142c6565b6001600160801b031685555b6001850154600286015460008583146145c057600188018690556145bd8387036001600160801b038616600160801b6136a1565b90505b60008583146145ed57600289018690556145ea8387036001600160801b038716600160801b6136a1565b90505b6001600160801b03828217161561463357600389018054600160801b6001600160801b03808316860181166001600160801b031990931683178290048116850116021790555b505050505050505050565b60085463010000008104600290810b919081900b90600160c81b900463ffffffff16828282891561467f576146778c898386868c614806565b919450925090505b881561469b576146938b898386868c614806565b919450925090505b8260020b8660020b1415806146b657508160020b8560020b14155b806146cd57508363ffffffff168163ffffffff1614155b15614729576008805462ffffff80861663010000000265ffffffffffff1963ffffffff8616600160c81b02167fffffff00000000ffffffffffffffffffffffffffffffffffffff00000000000090931692909217908516171790555b505050505050505050505050565b60008082600f0b121561475f5761475761191085858560000360006148fb565b60000361189f565b61189f61191085858560016148fb565b60008082600f0b121561478f5761475761191085858560000360006149a8565b61189f61191085858560016149a8565b600061189f83858460016149a8565b600061189f84848460016148fb565b60006147cd858585856001614a19565b90505b949350505050565b600061189f83858460006148fb565b600061189f84848460006149a8565b60006147cd858585856000614a19565b600080600083156148505760008061481f60038c614c4a565b915091508a60020b8860020b0361483857819750614849565b8a60020b8760020b03614849578096505b50506148d9565b6000808a60020b8860020b12801561486d57508a60020b8760020b135b1561489657508690508560028a810b908c900b131561488e578a96506148c9565b8a97506148c9565b6148a4600760098b8e614db8565b600281810b600090815260036020526040902060010154600160801b9004900b925090505b6148d660038c8484614e6d565b50505b60006148e9600760098a8d614f63565b969a9599509597509395505050505050565b60006001600160a01b038585038116908516811061491857600080fd5b7bffffffffffffffffffffffffffffffff000000000000000000000000606085901b168361497157866001600160a01b031661495e8383896001600160a01b03166136a1565b8161496b5761496b6152a7565b0461499d565b61499d6149888383896001600160a01b03166135f8565b886001600160a01b0316808204910615150190565b979650505050505050565b6000846001600160a01b0316846001600160a01b031610156149c957600080fd5b6001600160a01b0385850316826149f7576149f281856001600160801b0316600160601b6136a1565b614a0f565b614a0f81856001600160801b0316600160601b6135f8565b9695505050505050565b6000856001600160a01b0316600003614a3157600080fd5b846001600160801b0316600003614a4757600080fd5b83600003614a56575084614c41565b81151583151503614b64577bffffffffffffffffffffffffffffffff000000000000000000000000606086901b168215614b12576001600160a01b03871685810290868281614aa757614aa76152a7565b0403614ad757818101828110614ad557614acb838a6001600160a01b0316836135f8565b9350505050614c41565b505b614b0982614afe888b6001600160a01b03168681614af757614af76152a7565b0490614ffb565b808204910615150190565b92505050614c41565b6001600160a01b03871685810290868281614b2f57614b2f6152a7565b0414614b3a57600080fd5b808211614b4657600080fd5b614b09614b5f838a6001600160a01b03168486036135f8565b61500b565b8115614bd157614bca614b5f6001600160a01b03861115614b9c57614b9786600160601b896001600160801b03166136a1565b614bba565b6001600160801b038716606087901b81614bb857614bb86152a7565b045b6001600160a01b03891690614ffb565b9050614c41565b60006001600160a01b03851115614bff57614bfa85600160601b886001600160801b03166135f8565b614c1c565b614c1c606086901b6001600160801b038816808204910615150190565b905080876001600160a01b031611614c3357600080fd5b6001600160a01b0387160390505b95945050505050565b600281810b60008181526020859052604081206001810180548383557fffffffffffffffffffff000000000000000000000000000000000000000000008116909155818501839055600390910191909155600160801b8104830b92600160981b909104900b90620d89e7191480614cd25750614cc9620d89e719615371565b60020b8360020b145b15614d2b57600283900b6000908152602085905260409020600101805462ffffff808516600160801b0262ffffff60801b19918516600160981b029190911665ffffffffffff60801b1990921691909117179055614db1565b8060020b8260020b03614d5157604051630d6e094960e01b815260040160405180910390fd5b600282810b6000908152602086905260408082206001908101805462ffffff808816600160981b0262ffffff60981b19909216919091179091559385900b83529120018054918416600160801b0262ffffff60801b199092169190911790555b9250929050565b600190810190600090600883811d610d8a01901c90829061ffff83161b851663ffffffff1615614e1b57614dec8785615021565b90945090925090508015614e015750506147d0565b614e1286610d8b840160010b615021565b90945090925090505b80614e5e57614e398563ffffffff168360010193508360010b615052565b909350905080614e515750620d89e891506147d09050565b614e5b86846151a0565b92505b61499d87610d891985016151a0565b600283900b620d89e7191480614e945750614e8b620d89e719615371565b60020b8360020b145b612f9e578260020b8260020b128015614eb257508260020b8160020b135b614ecf5760405163e45ac17d60e01b815260040160405180910390fd5b600283810b600090815260209590955260408086206001908101805465ffffffffffff60801b1916600160981b62ffffff878116820262ffffff60801b1990811693909317600160801b8a831681029190911790945597860b8a52848a208401805462ffffff60981b191698909916908102979097179097559390920b865290942090930180549092169202919091179055565b81600080614fa08785600881901d600181810b60009081526020949094526040909320805460ff9093169390931b80831890935591811490151891565b915091508115614ff157610d8a01600181810b60081d80820b6000908152602089905260409020805460ff9094169290921b808418909255821591909214818118935014614ff1576001811b831892505b5050949350505050565b8082018281101561113f57600080fd5b806001600160a01b03811681146137b357600080fd5b600881901d600181900b60009081526020849052604081205481906150469085615052565b93969095509293505050565b60008060ff831684811c80830361506e578460ff179350615197565b7f555555555555555555555555555555555555555555555555555555555555555560008290038216908116156001600160801b0382161560071b1777ffffffffffffffff0000000000000000ffffffffffffffff82161560061b177bffffffff00000000ffffffff00000000ffffffff00000000ffffffff82161560051b177dffff0000ffff0000ffff0000ffff0000ffff0000ffff0000ffff0000ffff82161560041b177eff00ff00ff00ff00ff00ff00ff00ff00ff00ff00ff00ff00ff00ff00ff00ff82161560031b177f0f0f0f0f0f0f0f0f0f0f0f0f0f0f0f0f0f0f0f0f0f0f0f0f0f0f0f0f0f0f0f0f82161560021b177f33333333333333333333333333333333333333333333333333333333333333339091161560011b1760ff1685019350600192505b50509250929050565b600181900b600090815260208390526040902054600882901b906151c49082615052565b509392505050565b61311a615414565b634e487b7160e01b600052601160045260246000fd5b8082018082111561113f5761113f6151d4565b600081600f0b6f7fffffffffffffffffffffffffffffff198103615223576152236151d4565b60000392915050565b6001600160801b0381811683821601908082111561524c5761524c6151d4565b5092915050565b602081016003831061527557634e487b7160e01b600052602160045260246000fd5b91905290565b60006020828403121561528d57600080fd5b5051919050565b8181038181111561113f5761113f6151d4565b634e487b7160e01b600052601260045260246000fd5b634e487b7160e01b600052600160045260246000fd5b805161ffff811681146137b357600080fd5b6000602082840312156152f757600080fd5b61113c826152d3565b81835281816020850137506000828201602090810191909152601f909101601f19169091010190565b848152836020820152606060408201526000614a0f606083018486615300565b8082018281126000831280158216821582161715615369576153696151d4565b505092915050565b60008160020b627fffff198103615223576152236151d4565b600080600080608085870312156153a057600080fd5b6153a9856152d3565b935060208501518060020b81146153bf57600080fd5b92506153cd604086016152d3565b915060608501516001600160a01b03811681146153e957600080fd5b939692955090935050565b818103600083128015838313168383128216171561524c5761524c6151d4565b634e487b7160e01b600052605160045260246000fdfea164736f6c6343000814000aa164736f6c6343000814000a",
  "linkReferences": {},
  "deployedLinkReferences": {}
}