{
  "_format": "hh-sol-artifact-1",
  "contractName": "AlgebraPoolDeployer",
  "sourceName": "contracts/AlgebraPoolDeployer.sol",
  "abi": [
    {
      "inputs": [
        {
          "internalType": "address",
          "name": "_modeSfs",
          "type": "address"
        },
        {
          "internalType": "uint256",
          "name": "_sfsAssignTokenId",
          "type": "uint256"
        },
        {
          "internalType": "address",
          "name": "_factory",
          "type": "address"
        }
      ],
      "stateMutability": "nonpayable",
      "type": "constructor"
    },
    {
      "inputs": [],
      "name": "AddressZero",
      "type": "error"
    },
    {
      "inputs": [],
      "name": "ZeroSfsAssignTokenId",
      "type": "error"
    },
    {
      "inputs": [
        {
          "internalType": "address",
          "name": "modeSfs",
          "type": "address"
        },
        {
          "internalType": "uint256",
          "name": "sfsAssignTokenId",
          "type": "uint256"
        },
        {
          "internalType": "address",
          "name": "plugin",
          "type": "address"
        },
        {
          "internalType": "address",
          "name": "token0",
          "type": "address"
        },
        {
          "internalType": "address",
          "name": "token1",
          "type": "address"
        }
      ],
      "name": "deploy",
      "outputs": [
        {
          "internalType": "address",
          "name": "pool",
          "type": "address"
        }
      ],
      "stateMutability": "nonpayable",
      "type": "function"
    },
    {
      "inputs": [],
      "name": "getDeployParameters",
      "outputs": [
        {
          "internalType": "address",
          "name": "_modeSfs",
          "type": "address"
        },
        {
          "internalType": "uint256",
          "name": "_sfsAssignTokenId",
          "type": "uint256"
        },
        {
          "internalType": "address",
          "name": "_plugin",
          "type": "address"
        },
        {
          "internalType": "address",
          "name": "_factory",
          "type": "address"
        },
        {
          "internalType": "address",
          "name": "_token0",
          "type": "address"
        },
        {
          "internalType": "address",
          "name": "_token1",
          "type": "address"
        }
      ],
      "stateMutability": "view",
      "type": "function"
    }
  ],
  "bytecode": "0x60a060405234801561001057600080fd5b50604051615bd4380380615bd48339818101604052606081101561003357600080fd5b508051602082015160409092015190919061004e8383610075565b6001600160a01b03811661006157600080fd5b6001600160a01b0316608052506101ae9050565b6001600160a01b03821661009c57604051639fabe1c160e01b815260040160405180910390fd5b806000036100bd576040516362906a7f60e01b815260040160405180910390fd5b6000826001600160a01b0316826040516024016100dc91815260200190565b60408051601f198184030181529181526020820180516001600160e01b0316630981022760e31b179052516101119190610169565b6000604051808303816000865af19150503d806000811461014e576040519150601f19603f3d011682016040523d82523d6000602084013e610153565b606091505b505090508061016457610164610198565b505050565b6000825160005b8181101561018a5760208186018101518583015201610170565b506000920191825250919050565b634e487b7160e01b600052600160045260246000fd5b608051615a056101cf60003960008181606c015261011e0152615a056000f3fe608060405234801561001057600080fd5b50600436106100365760003560e01c806304889e261461003b57806309b01d0f146100af575b600080fd5b600054600154600254600354600454604080516001600160a01b0396871681526020810195909552928516848401527f00000000000000000000000000000000000000000000000000000000000000008516606085015290841660808401529290921660a082015290519081900360c00190f35b6100f5600480360360a08110156100c557600080fd5b506001600160a01b0381358116916020810135916040820135811691606081013582169160809091013516610111565b604080516001600160a01b039092168252519081900360200190f35b6000336001600160a01b037f0000000000000000000000000000000000000000000000000000000000000000161461014857600080fd5b6004805473ffffffffffffffffffffffffffffffffffffffff199081166001600160a01b03858116918217909355600380548316878516908117909155600280548416898616179055600189905560008054909316938a1693909317909155604080516020808201949094528082019290925280518083038201815260609092019081905281519190920120906101de90610247565b8190604051809103906000f59050801580156101fe573d6000803e3d6000fd5b506004805473ffffffffffffffffffffffffffffffffffffffff199081169091556003805482169055600280548216905560006001819055805490911690559695505050505050565b6157a4806102558339019056fe60e06040523480156200001157600080fd5b506000808062000020620000cb565b6001600160a01b0390811660c05290811660a05216608052945090925090506200004b82826200014c565b620d89e7196200005b8162000394565b6008805462ffffff93841663010000000265ffffffffffff1990911693909216929092171790556002805460ff60e01b1916600160e01b1790556001600160a01b03831615620000b057620000b0836200024a565b505050620000c560036200029e60201b60201c565b620004a1565b600080600080600080336001600160a01b03166304889e266040518163ffffffff1660e01b815260040160c060405180830381865afa15801562000113573d6000803e3d6000fd5b505050506040513d601f19601f82011682018060405250810190620001399190620003e2565b949b939a50919850965094509092509050565b6001600160a01b0382166200017457604051639fabe1c160e01b815260040160405180910390fd5b8060000362000196576040516362906a7f60e01b815260040160405180910390fd5b6000826001600160a01b031682604051602401620001b691815260200190565b60408051601f198184030181529181526020820180516001600160e01b0316630981022760e31b17905251620001ed91906200045a565b6000604051808303816000865af19150503d80600081146200022c576040519150601f19603f3d011682016040523d82523d6000602084013e62000231565b606091505b50509050806200024557620002456200048b565b505050565b600580546001600160a01b0319166001600160a01b0383169081179091556040519081527f27a3944eff2135a57675f17e72501038982b73620d01f794c72e93d61a3932a29060200160405180910390a150565b620d89e719620002ae8162000394565b620d89e7196000818152602085905260409020600101805465ffffffffffff60801b1916600160981b62ffffff9485160262ffffff60801b191617600160801b949093169390930291909117909155620003088162000394565b8260006200031a620d89e71962000394565b60020b60020b81526020019081526020016000206001016010846000620d89e719620003469062000394565b60020b81526020810191909152604001600020600101805462ffffff948516600160981b0262ffffff60981b1990911617905581549383166101009190910a90810292021990921617905550565b60008160020b627fffff198103620003bc57634e487b7160e01b600052601160045260246000fd5b60000392915050565b80516001600160a01b0381168114620003dd57600080fd5b919050565b60008060008060008060c08789031215620003fc57600080fd5b6200040787620003c5565b9550602087015194506200041e60408801620003c5565b93506200042e60608801620003c5565b92506200043e60808801620003c5565b91506200044e60a08801620003c5565b90509295509295509295565b6000825160005b818110156200047d576020818601810151858301520162000461565b506000920191825250919050565b634e487b7160e01b600052600160045260246000fd5b60805160a05160c0516152476200055d600039600081816109ac01528181610c3c0152818161116c015281816114b70152818161182a015281816118ec01528181611c730152818161236e01528181612c5f0152612dc50152600081816102f301528181610cc2015281816111280152818161147401528181611862015281816118b401528181611c240152818161231601528181612b1a0152612c2e01526000818161091e01528181612f6b0152613b7701526152476000f3fe608060405234801561001057600080fd5b50600436106102775760003560e01c806397ce1c5111610160578063d5c35a7e116100d8578063ecdecf421161008c578063f085a61011610071578063f085a61014610afe578063f30dba9314610b1e578063f637731d14610bb857600080fd5b8063ecdecf4214610ae2578063ef01df4f14610aeb57600080fd5b8063d8619037116100bd578063d861903714610a01578063ddca3f4314610a2e578063e76c01e414610a4d57600080fd5b8063d5c35a7e146109ce578063d8544cf3146109db57600080fd5b8063c45a01551161012f578063cc1f97cf11610114578063cc1f97cf1461096d578063d0c93a7c14610993578063d21220a7146109a757600080fd5b8063c45a015514610919578063c677e3e01461094057600080fd5b806397ce1c51146107255780639e4e022714610786578063aafe29c014610825578063bca57f81146108f957600080fd5b80634f1eb3d8116101f35780636378ae44116101c25780637bd78025116101a75780637bd78025146106ba5780638380edb7146106e35780638e0055531461070457600080fd5b80636378ae441461068a57806370cf754a146106a557600080fd5b80634f1eb3d814610585578063514ea4bf146105d657806353e9786814610660578063578b9a361461067357600080fd5b8063128acb081161024a578063240a875a1161022f578063240a875a146104425780633b3bc70e14610465578063490e6cbc146104f957600080fd5b8063128acb081461035a5780631a6865021461040957600080fd5b8063050a4d211461027c5780630902f1ac146102a75780630dfe1681146102ee5780631131b11014610331575b600080fd5b600854610290906301000000900460020b81565b6040805160029290920b8252519081900360200190f35b600b546001600160801b0380821691600160801b9004165b60405180836001600160801b03168152602001826001600160801b031681526020019250505060405180910390f35b6103157f000000000000000000000000000000000000000000000000000000000000000081565b604080516001600160a01b039092168252519081900360200190f35b6004546103419063ffffffff1681565b6040805163ffffffff9092168252519081900360200190f35b6103f0600480360360a081101561037057600080fd5b6001600160a01b0382358116926020810135151592604082013592606083013516919081019060a0810160808201356401000000008111156103b157600080fd5b8201836020820111156103c357600080fd5b803590602001918460018302840111640100000000831117156103e557600080fd5b509092509050610bde565b6040805192835260208301919091528051918290030190f35b60085461042690660100000000000090046001600160801b031681565b604080516001600160801b039092168252519081900360200190f35b6104636004803603602081101561045857600080fd5b503561ffff16610dee565b005b6103f06004803603608081101561047b57600080fd5b8135600290810b92602081013590910b916001600160801b0360408301351691908101906080810160608201356401000000008111156104ba57600080fd5b8201836020820111156104cc57600080fd5b803590602001918460018302840111640100000000831117156104ee57600080fd5b509092509050610e6d565b6104636004803603608081101561050f57600080fd5b6001600160a01b03823516916020810135916040820135919081019060808101606082013564010000000081111561054657600080fd5b82018360208201111561055857600080fd5b8035906020019184600183028401116401000000008311171561057a57600080fd5b509092509050611009565b6102bf600480360360a081101561059b57600080fd5b506001600160a01b03813516906020810135600290810b91604081013590910b906001600160801b03606082013581169160800135166113c8565b610629600480360360208110156105ec57600080fd5b50600a60205235600090815260409020805460018201546002830154600390930154919290916001600160801b0380821691600160801b90041685565b604080519586526020860194909452848401929092526001600160801b039081166060850152166080830152519081900360a00190f35b600654610315906001600160a01b031681565b60085461034190600160c81b900463ffffffff1681565b61069360005481565b60408051918252519081900360200190f35b6104266d09745258e83de0d0f4e400fce79981565b6004546cffffffffffffffffffffffffff6401000000008204811691600160881b9004166102bf565b600254600160e01b900460ff16604080519115158252519081900360200190f35b6104636004803603602081101561071a57600080fd5b503561ffff16611591565b61072d611631565b604080516001600160a01b039098168852600296870b602089015261ffff9095168786015260ff90931660608701526001600160801b039091166080860152830b60a085015290910b60c0830152519081900360e00190f35b6103f0600480360360c081101561079c57600080fd5b6001600160a01b0382358116926020810135821692604082013515159260608301359260808101359091169181019060c0810160a08201356401000000008111156107e657600080fd5b8201836020820111156107f857600080fd5b8035906020019184600183028401116401000000008311171561081a57600080fd5b5090925090506116c7565b6108d2600480360360c081101561083b57600080fd5b6001600160a01b0382358116926020810135909116916040820135600290810b92606081013590910b916001600160801b03608083013516919081019060c0810160a082013564010000000081111561089357600080fd5b8201836020820111156108a557600080fd5b803590602001918460018302840111640100000000831117156108c757600080fd5b5090925090506119cd565b6040805193845260208401929092526001600160801b031682820152519081900360600190f35b6104636004803603602081101561090f57600080fd5b503560ff16611d79565b6103157f000000000000000000000000000000000000000000000000000000000000000081565b6106936004803603602081101561095657600080fd5b5060076020523560010b6000908152604090205481565b6104636004803603602081101561098357600080fd5b50356001600160a01b0316611dcc565b60085461029090600160b01b900460020b81565b6103157f000000000000000000000000000000000000000000000000000000000000000081565b6008546102909060020b81565b610463600480360360208110156109f157600080fd5b50356001600160a01b0316611def565b61069360048036036020811015610a1757600080fd5b5060096020523560010b6000908152604090205481565b610a36611e3a565b6040805161ffff9092168252519081900360200190f35b60028054610a98916001600160a01b03821691600160a01b810490910b9061ffff600160b81b820481169160ff600160c81b8204811692600160d01b83041691600160e01b90041686565b604080516001600160a01b03909716875260029590950b602087015261ffff9384168686015260ff90921660608601529091166080840152151560a0830152519081900360c00190f35b61069360015481565b600554610315906001600160a01b031681565b61046360048036036020811015610b1457600080fd5b503560020b611ede565b610b7c60048036036020811015610b3457600080fd5b50600360208190529035600290810b600090815260409020805460018201548284015492909401549093600f81900b93600160801b8204810b93600160981b909204900b9186565b60408051968752600f9590950b6020870152600293840b868601529190920b6060850152608084019190915260a0830152519081900360c00190f35b61046360048036036020811015610bce57600080fd5b50356001600160a01b0316611f47565b600080610bf1888888886000898961218d565b610bf9612285565b600080610c046122be565b91509150600080600080610c198d8d8d612495565b949c50929a509096509450925090508c15610cb4576000871215610c6557610c657f00000000000000000000000000000000000000000000000000000000000000008f89600003612a91565b610c7188888c8c612aa1565b610c79612b02565b610c838988615022565b1115610ca257604051633ed6d50560e21b815260040160405180910390fd5b610caf8888836000612b93565b610d35565b6000881215610ceb57610ceb7f00000000000000000000000000000000000000000000000000000000000000008f8a600003612a91565b610cf788888c8c612aa1565b610cff612dad565b610d098887615022565b1115610d2857604051633ed6d50560e21b815260040160405180910390fd5b610d358888600084612b93565b8d6001600160a01b0316336001600160a01b03167fc42079f94a6350d7e6235f29174924f928cc2ac818eb64fed8004e115fbcca678a8a88878960405180868152602001858152602001846001600160a01b03168152602001836001600160801b031681526020018260020b81526020019550505050505060405180910390a3505050505050610dd36002805460ff60e01b1916600160e01b179055565b610de38888888886868a8a612dfc565b965096945050505050565b610df6612ef9565b610dfe612f25565b6103e861ffff82161180610e21575060025461ffff828116600160d01b90920416145b80610e43575061ffff811615801590610e4357506006546001600160a01b0316155b15610e615760405163a709b9af60e01b815260040160405180910390fd5b610e6a81612feb565b50565b6000808686610e7c8282613042565b6f7fffffffffffffffffffffffffffffff6001600160801b0388161115610eb657604051638995290f60e01b815260040160405180910390fd5b6000610ec188615035565b9050610ed1338b8b848b8b6130c4565b610ed9612285565b610ee16122be565b50506000610ef0338c8c61319b565b9050610efe818c8c856131c7565b909650945085851715610f68576003810154610f249087906001600160801b0316615064565b6003820154610f44908790600160801b90046001600160801b0316615064565b6001600160801b039182169116600160801b026001600160801b0319161760038201555b6001600160801b0389168617851715610fd357604080516001600160801b038b16815260208101889052808201879052905160028c810b92908e900b9133917f0c396cd989a39f4459b5fa1aed6a9a8dcdbc45908acfd67e028cd568da98982c919081900360600190a45b610feb6002805460ff60e01b1916600160e01b179055565b610ffb338c8c858a8a8e8e6132ec565b505050509550959350505050565b600254600160c81b9004601016156110ef576005546040516346f0547760e11b80825233600483018181526001600160a01b038a81166024860152604485018a90526064850189905260a06084860190815260a486018890526110ef9694959190941693638de0a8ee93928c928c928c928c928c929060c401848480828437600081840152601f19601f8201169050808301925050509750505050505050506020604051808303816000875af11580156110c7573d6000803e3d6000fd5b505050506040513d60208110156110dd57600080fd5b50516001600160e01b031916906133e8565b6110f7612285565b6000806000806111056122be565b90925090506000881561114e57611121896064620f4240613425565b905061114e7f00000000000000000000000000000000000000000000000000000000000000008b8b612a91565b6000881561119257611165896064620f4240613425565b90506111927f00000000000000000000000000000000000000000000000000000000000000008c8b612a91565b61119e82828a8a6134a5565b6111a6612b02565b9550856111b38386615022565b11156111d2576040516336de50ff60e11b815260040160405180910390fd5b6111da612dad565b9450846111e78285615022565b11156112065760405163c998149f60e01b815260040160405180910390fd5b60025495849003959483900394600160d01b900461ffff168015611263576000871561123c5761123988836103e86134ce565b90505b600087156112545761125188846103e86134ce565b90505b61126082828484612b93565b50505b604080518c8152602081018c90528082018990526060810188905290516001600160a01b038e169133917fbdbdb71d7860376ba52b25a5028beea23581364a40522f6bcfb86bb1f2dca6339181900360800190a350505050506112d46002805460ff60e01b1916600160e01b179055565b600254600160c81b9004602016156113bf576113bf63343d37ff60e01b600560009054906101000a90046001600160a01b03166001600160a01b031663343d37ff338b8b8b89898d8d6040518963ffffffff1660e01b815260040180896001600160a01b03168152602001886001600160a01b03168152602001878152602001868152602001858152602001848152602001806020018281038252848482818152602001925080828437600081840152601f19601f82011690508083019250505099505050505050505050506020604051808303816000875af11580156110c7573d6000803e3d6000fd5b50505050505050565b6000806113d3612285565b60006113e033888861319b565b60038101549091506001600160801b0380821691600160801b9004811690871682101561140b578196505b806001600160801b0316866001600160801b03161115611429578095505b6001600160801b03878717161561156c576001600160801b0387830381168783038216600160801b026001600160801b0319161760038501558795508694508516156114a3576114a37f00000000000000000000000000000000000000000000000000000000000000008b876001600160801b0316612a91565b6001600160801b038416156114e6576114e67f00000000000000000000000000000000000000000000000000000000000000008b866001600160801b0316612a91565b61150b856001600160801b0316600003856001600160801b0316600003600080612b93565b604080516001600160a01b038c1681526001600160801b038088166020830152861681830152905160028a810b92908c900b9133917f70935338e69775456a85ddef226c395fb668b63fa0115f5f20610b388e6ca9c0919081900360600190a45b6115846002805460ff60e01b1916600160e01b179055565b5050509550959350505050565b600254600160c81b8104608016151590600160e01b900460ff166115c857604051636798480960e11b815260040160405180910390fd5b6005546001600160a01b031633036115fd57806115f857604051633a4528ef60e01b815260040160405180910390fd5b611624565b801561161c576040516369cdc70760e11b815260040160405180910390fd5b611624612f25565b61162d82613567565b5050565b600280546001600160a01b03811691600160a01b8204900b9061ffff600160b81b8204169060ff600160c81b820481169160009182918291600160e01b909104168061169057604051636798480960e11b815260040160405180910390fd5b505060085495969495939492936001600160801b03660100000000000082041693600282810b9450630100000090920490910b9150565b60008060008612156116ec576040516334cb3a0160e11b815260040160405180910390fd5b6116f4612285565b6000871561174a576000611706612b02565b90506117158860008888612aa1565b600061171f612b02565b905061173361172e838361508b565b6135d1565b9250611743836000806000612b93565b505061178f565b6000611754612dad565b90506117636000898888612aa1565b600061176d612dad565b905061177c61172e838361508b565b925061178c600084600080612b93565b50505b86811461179a578096505b50856000036117bc57604051633ed6d50560e21b815260040160405180910390fd5b6117d46002805460ff60e01b1916600160e01b179055565b6117e4888888886001898961218d565b6117ec612285565b6117f46122be565b50506000806000806118078b8b8b612495565b949a509298509096509450925090508a156118a6576000851215611853576118537f00000000000000000000000000000000000000000000000000000000000000008d87600003612a91565b858a038a8714611888576118887f00000000000000000000000000000000000000000000000000000000000000008f83612a91565b6118a0611894826135d1565b60000387846000612b93565b5061192c565b60008612156118dd576118dd7f00000000000000000000000000000000000000000000000000000000000000008d88600003612a91565b848a038a8614611912576119127f00000000000000000000000000000000000000000000000000000000000000008f83612a91565b61192a8761191f836135d1565b600003600085612b93565b505b60408051878152602081018790526001600160a01b03868116828401526001600160801b0385166060830152600286900b60808301529151918e169133917fc42079f94a6350d7e6235f29174924f928cc2ac818eb64fed8004e115fbcca67919081900360a00190a36119ad6002805460ff60e01b1916600160e01b179055565b6119bd8c8c8c8c8a8a8e8e612dfc565b5050505097509795505050505050565b600080600087876119de8282613042565b876001600160801b0316600003611a085760405163e6ace6df60e01b815260040160405180910390fd5b611a278b8b8b611a208c6001600160801b03166135e5565b8b8b6130c4565b611a2f612285565b60028054600160a01b810490910b906001600160a01b03166000819003611a695760405163812eb65560e01b815260040160405180910390fd5b600854600160b01b9004600290810b9081908d900b81611a8b57611a8b61509e565b078160020b8e60020b81611aa157611aa161509e565b071760020b15611ac457604051635f6e14f360e01b815260040160405180910390fd5b50611ae38c8c611adc8d6001600160801b03166135e5565b85856135f8565b50909750955060009150819050611af86122be565b91509150611b0887878b8b6136a7565b8615611b265781611b17612b02565b611b21919061508b565b611b29565b60005b91508515611b495780611b3a612dad565b611b44919061508b565b611b4c565b60005b905086821015611b7157611b6a8a6001600160801b031683896134ce565b9450611b75565b8994505b85811015611bb5576000611b938b6001600160801b031683896134ce565b9050856001600160801b0316816001600160801b03161015611bb3578095505b505b846001600160801b0316600003611bdf57604051632fae8a9b60e21b815260040160405180910390fd5b6000611bec8e8e8e61319b565b9050611c0b818e8e611c068a6001600160801b03166135e5565b6131c7565b9098509650508615611c605786821115611c5157611c4c7f00000000000000000000000000000000000000000000000000000000000000008f898503612a91565b611c60565b868214611c6057611c606150b4565b8515611caf5785811115611ca057611c9b7f00000000000000000000000000000000000000000000000000000000000000008f888403612a91565b611caf565b858114611caf57611caf6150b4565b611cbc8787600080612b93565b8a60020b8c60020b8e6001600160a01b03167f7a53080ba414158be7ec69b987b5fb7d07dee101fe85488f0853ae16239d0bde33898c8c60405180856001600160a01b03168152602001846001600160801b0316815260200183815260200182815260200194505050505060405180910390a4611d476002805460ff60e01b1916600160e01b179055565b611d688d8d8d611d5f896001600160801b03166135e5565b8b8b8f8f6132ec565b505050509750975097945050505050565b611d81612ef9565b6005546001600160a01b031680611dab57604051639e727ce360e01b815260040160405180910390fd5b336001600160a01b03821614611dc357611dc3612f25565b61162d826136d0565b611dd4612ef9565b611ddc612f25565b611de660006136d0565b610e6a81613739565b611df7612ef9565b611dff612f25565b6001600160a01b038116158015611e225750600254600160d01b900461ffff1615155b15611e3157611e316000612feb565b610e6a81613787565b600254600160b81b810461ffff1690600160c81b900460ff81169060801615611eda57600560009054906101000a90046001600160a01b03166001600160a01b031663f70d93626040518163ffffffff1660e01b8152600401602060405180830381865afa158015611eb0573d6000803e3d6000fd5b505050506040513d601f19601f82011682018060405250810190611ed491906150dc565b91505090565b5090565b611ee6612ef9565b611eee612f25565b60008160020b131580611f0657506101f4600282900b135b80611f205750600854600282810b600160b01b909204900b145b15611f3e57604051632bf827d160e21b815260040160405180910390fd5b610e6a816137d5565b6000611f528261383e565b6002549091506001600160a01b031615611f7f57604051631499a6b760e21b815260040160405180910390fd5b600280546001600160a01b0319166001600160a01b0384811691909117909155600554161561200857600554604080516318dbf60160e21b8082523360048301526001600160a01b03868116602484015292516120089491939091169163636fd80491604480830192602092919082900301816000875af11580156110c7573d6000803e3d6000fd5b600080600080612016613b51565b600280547fffffffff0000ffffff000000ffffffffffffffffffffffffffffffffffffffff8116600160a01b62ffffff8d160261ffff60d01b191617600160d01b61ffff881602178255604080516001600160a01b038e168152928c900b60208401528051969a50949850929650909450600160c81b90910460ff16927f98636036cb66a9c19a37435efc1e90142190214e8abeb821bdba3f2990dd4c95929181900390910190a16120c783613567565b6120d0846137d5565b6120d982613787565b61ffff8516158015906120f357506001600160a01b038216155b156121115760405163a709b9af60e01b815260040160405180910390fd5b61211a85612feb565b60408116156113bf576005546040805163416eb29160e11b8082523360048301526001600160a01b038b8116602484015260028b900b604484015292516113bf949193909116916382dd652291606480830192602092919082900301816000875af11580156110c7573d6000803e3d6000fd5b600254600160c81b9004600116156113bf576113bf63029c1cb760e01b600560009054906101000a90046001600160a01b03166001600160a01b031663029c1cb7338b8b8b8b8b8b8b6040518963ffffffff1660e01b815260040180896001600160a01b03168152602001886001600160a01b031681526020018715158152602001868152602001856001600160a01b031681526020018415158152602001806020018281038252848482818152602001925080828437600081840152601f19601f82011690508083019250505099505050505050505050506020604051808303816000875af11580156110c7573d6000803e3d6000fd5b600254600160e01b900460ff166122af57604051636798480960e11b815260040160405180910390fd5b6002805460ff60e01b19169055565b6000806122c9612b02565b6122d1612dad565b90925090506001600160801b038211806122f157506001600160801b0381115b156123b4576006546001600160a01b03166001600160801b0383111561235a5761234f7f0000000000000000000000000000000000000000000000000000000000000000826ffffffffffffffffffffffffffffffffe198601612a91565b6001600160801b0392505b6001600160801b038211156123b2576123a77f0000000000000000000000000000000000000000000000000000000000000000826ffffffffffffffffffffffffffffffffe198501612a91565b6001600160801b0391505b505b600854660100000000000090046001600160801b031660008190036123d857509091565b600b546001600160801b0380821691600160801b90041681851181851181806123fe5750805b1561248c5781156124365761242c846001600160801b03168803600160801b876001600160801b03166134ce565b6000805490910190555b80156124695761245f836001600160801b03168703600160801b876001600160801b03166134ce565b6001805490910190555b6001600160801b03808816908716600160801b026001600160801b03191617600b555b50505050509091565b600080600080600080876000036124bf576040516301e76e6160e61b815260040160405180910390fd5b600160ff1b88036124e3576040516334cb3a0160e11b815260040160405180910390fd5b6040805161014081018252600060208201819052606082018190526080820181905260a08201819052808b1360c08301529181018a9052600854600281810b61012084015263010000008204810b610100840152805461ffff600160d01b820481168552600160b81b82041660e08501526001600160a01b0381169850600160a01b9004900b9550660100000000000090046001600160801b03169350908590036125a15760405163812eb65560e01b815260040160405180910390fd5b891561260157846001600160a01b0316886001600160a01b03161015806125d657506401000276a36001600160a01b03891611155b156125f457604051631662672360e01b815260040160405180910390fd5b6000546080820152612666565b846001600160a01b0316886001600160a01b031611158061263f575073fffd8963efd1fc6a506488495d951d5263988d266001600160a01b03891610155b1561265d57604051631662672360e01b815260040160405180910390fd5b60015460808201525b6126986040518060a0016040528060008152602001600081526020016000815260200160008152602001600081525090565b60008b6126aa578261012001516126b1565b8261010001515b6001600160a01b038816835290506126c881613bf0565b6001600160a01b0390811660208401819052612705918e918a918e1611821515146126f75784602001516126f9565b8c5b888f8860e00151613ecb565b60808601526060850152604084015260c08401519097501561275d5761273482608001518360400151016135d1565b8b039a5061275361274883606001516135d1565b60608501519061409d565b6060840152612795565b61276a82606001516135d1565b8b019a5061278f61278483608001518460400151016135d1565b6060850151906140b9565b60608401525b8251156127d757825160808301516000916103e8916127b3916140cf565b816127c0576127c061509e565b608085018051929091049182900390529490940193505b6001600160801b0385161561280e576128028260800151600160801b876001600160801b03166134ce565b60808401805190910190525b8160200151876001600160a01b03160361292a57826020015161284957600160208401528b61283f57600054612843565b6001545b60a08401525b60008c156128b85750608083015160a0840151600283810b600081815260036020819052604082209081018054828601805490980390975595909403909455600190920154600160801b810490910b61010087015261012086019190915260001983019750600f0b9003612918565b5060a08301516080840151600283810b60008181526003602081905260409091209081018054828501805490970390965594909303909355600190910154600160981b810490910b6101208601526101008501919091529095508590600f0b5b61292286826140f9565b95505061294c565b81516001600160a01b0388161461294c576129448761383e565b955050612973565b50891580159061296e5750886001600160a01b0316866001600160a01b031614155b612698575b60008a83604001510390508260c0015115158c1515146129985782606001518161299f565b8083606001515b600280547fffffffffffffffffff000000000000000000000000000000000000000000000016600160a01b62ffffff8b16026001600160a01b031916176001600160a01b038b161790556020850151919a509850159050612a67576101008201516101208301516008805462ffffff92831665ffffffffffff199091161763010000009290931691909102919091177fffffffffffffffffffff00000000000000000000000000000000ffffffffffff1666010000000000006001600160801b038716021790555b8a15612a7a576080820151600055612a83565b60808201516001555b505093975093979195509350565b612a9c838383614173565b505050565b604051631644ac7b60e11b81523390632c8958f690612aca908790879087908790600401615120565b600060405180830381600087803b158015612ae457600080fd5b505af1158015612af8573d6000803e3d6000fd5b5050505050505050565b6040516370a0823160e01b81523060048201526000907f00000000000000000000000000000000000000000000000000000000000000006001600160a01b0316906370a08231906024015b602060405180830381865afa158015612b6a573d6000803e3d6000fd5b505050506040513d601f19601f82011682018060405250810190612b8e9190615140565b905090565b81811715612d23576004546cffffffffffffffffffffffffff64010000000082048116840191600160881b90041682016000612bcc4290565b600454909150610e1063ffffffff9182168303909116101580612bfb57506cffffffffffffffffffffffffff83115b80612c1257506cffffffffffffffffffffffffff82115b15612cbe576006546001600160a01b03168315612c5457612c547f00000000000000000000000000000000000000000000000000000000000000008286612a91565b8215612c8557612c857f00000000000000000000000000000000000000000000000000000000000000008285612a91565b6004805463ffffffff191663ffffffff8416179055612ca3846135d1565b8803612cae846135d1565b9098509096039550600092508291505b50600480547fffff0000000000000000000000000000000000000000000000000000ffffffff16600160881b6cffffffffffffffffffffffffff9384160270ffffffffffffffffffffffffff0000000019161764010000000093909216929092021790555b83831715612da757600b546001600160801b0380821691600160801b9004168515612d6657612d5a612d558784615159565b6141d7565b6001600160801b031691505b8415612d8557612d79612d558683615159565b6001600160801b031690505b6001600160801b039182169116600160801b026001600160801b03191617600b555b50505050565b6040516370a0823160e01b81523060048201526000907f00000000000000000000000000000000000000000000000000000000000000006001600160a01b0316906370a0823190602401612b4d565b60028054600160c81b90041615612af857612af8639cb5a96360e01b600560009054906101000a90046001600160a01b03166001600160a01b0316639cb5a963338c8c8c8c8c8c8c8c6040518a63ffffffff1660e01b8152600401808a6001600160a01b03168152602001896001600160a01b031681526020018815158152602001878152602001866001600160a01b03168152602001858152602001848152602001806020018281038252848482818152602001925080828437600081840152601f19601f8201169050808301925050509a50505050505050505050506020604051808303816000875af11580156110c7573d6000803e3d6000fd5b600254600160e01b900460ff16612f2357604051636798480960e11b815260040160405180910390fd5b565b6040805163e8ae2b6960e01b81527fb73ce166ead2f8e9add217713a7989e4edfba9625f71dfd2516204bb67ad3442600482015233602482015290516001600160a01b037f0000000000000000000000000000000000000000000000000000000000000000169163e8ae2b699160448083019260209291908290030181865afa158015612fb6573d6000803e3d6000fd5b505050506040513d6020811015612fcc57600080fd5b5051612f2357604051634994c26960e11b815260040160405180910390fd5b6002805461ffff60d01b1916600160d01b61ffff8416908102919091179091556040519081527f3647dccc990d4941b0b05b32527ef493a98d6187b20639ca2f9743f3b55ca5e1906020015b60405180910390a150565b61304f620d89e719615181565b60020b8160020b131561307557604051631445443d60e01b815260040160405180910390fd5b8160020b8160020b1361309b5760405163d9a841a760e01b815260040160405180910390fd5b620d89e719600283900b121561162d57604051631d1ac7f160e21b815260040160405180910390fd5b600254600160c81b90046004161561319357600554604051632f1208d960e11b80825233600483018181526001600160a01b038b8116602486015260028b810b60448701528a900b6064860152600f89900b608486015260c060a4860190815260c486018890526131939694959190941693635e2411b293928d928d928d928d928d928d929160e401848480828437600081840152601f19601f820116905080830192505050985050505050505050506020604051808303816000875af11580156110c7573d6000803e3d6000fd5b505050505050565b62ffffff818116908316601885811b91909117901b176000908152600a602052604090205b9392505050565b6002805460008054600154919384936001600160a01b03811693600160a01b90910490910b918491829190600f89900b156132235761320d60038c878c868660006141ed565b935061322060038b878c868660016141ed565b92505b60008061323560038e8e8a88886142de565b915091506132458e8c848461437c565b5050505086600f0b6000146132df57818061325d5750805b1561327657613276898984848760008d600f0b12614471565b60006132858a8a8a87896135f8565b91985096509050600f81900b156132dd576008546132b690660100000000000090046001600160801b0316896140f9565b600860066101000a8154816001600160801b0302191690836001600160801b031602179055505b505b5050505094509492505050565b600254600160c81b900460081615612af857612af863d685201060e01b600560009054906101000a90046001600160a01b03166001600160a01b031663d6852010338c8c8c8c8c8c8c8c6040518a63ffffffff1660e01b8152600401808a6001600160a01b03168152602001896001600160a01b031681526020018860020b81526020018760020b815260200186600f0b8152602001858152602001848152602001806020018281038252848482818152602001925080828437600081840152601f19601f8201169050808301925050509a50505050505050505050506020604051808303816000875af11580156110c7573d6000803e3d6000fd5b6001600160e01b03198281169082161461162d5760405163d3f5153b60e01b81526001600160e01b03198216600482015260240160405180910390fd5b6000831580613446575050828202828482816134435761344361509e565b04145b15613467576000821161345857600080fd5b818104908290061515016131c0565b6134728484846134ce565b9050600082806134845761348461509e565b84860911156131c057600019811061349b57600080fd5b6001019392505050565b604051632982c34f60e21b8152339063a60b0d3c90612aca908790879087908790600401615120565b600083830281600019858709828110838203039150508084116134f057600080fd5b80600003613503575082900490506131c0565b8385870960008581038616958690049560026003880281188089028203028089028203028089028203028089028203028089028203028089029091030291819003819004600101858411909403939093029190930391909104170290509392505050565b600280547fffffffffffffff0000ffffffffffffffffffffffffffffffffffffffffffffff16600160b81b61ffff8416908102919091179091556040519081527f598b9f043c813aa6be3426ca60d1c65d17256312890be5118dab55b0775ebe2a90602001613037565b8060008112156135e057600080fd5b919050565b806000600f82900b12156135e057600080fd5b60008060008061360789613bf0565b9050600061361489613bf0565b90506000808b60020b8960020b12156136395761363284848c61456a565b9150613677565b8a60020b8960020b12156136695761365288848c61456a565b915061365f84898c6145aa565b9050899450613677565b61367484848c6145aa565b90505b60008a600f0b12613689578181613692565b81600003816000035b909d909c50949a509398505050505050505050565b604051633dd657c560e01b81523390633dd657c590612aca908790879087908790600401615120565b600280547fffffffffffff00ffffffffffffffffffffffffffffffffffffffffffffffffff16600160c81b60ff8416908102919091179091556040519081527f3a6271b36c1b44bd6a0a0d56230602dc6919b7c17af57254306fadf5fee69dc390602001613037565b600580546001600160a01b0319166001600160a01b0383169081179091556040519081527f27a3944eff2135a57675f17e72501038982b73620d01f794c72e93d61a3932a290602001613037565b600680546001600160a01b0319166001600160a01b0383169081179091556040519081527fb0b573c1f636e1f8bd9b415ba6c04d6dd49100bc25493fc6305b65ec0e581df390602001613037565b600880547fffffffffffffff000000ffffffffffffffffffffffffffffffffffffffffffff16600160b01b62ffffff841602179055604051600282900b81527f01413b1d5d4c359e9a0daa7909ecda165f6e8c51fe2ff529d74b22a5a7c0264590602001613037565b60006401000276a36001600160a01b0383161080613879575073fffd8963efd1fc6a506488495d951d5263988d266001600160a01b03831610155b15613897576040516355cf1e2360e01b815260040160405180910390fd5b77ffffffffffffffffffffffffffffffffffffffff00000000602083901b166001600160801b03811160071b81811c67ffffffffffffffff811160061b90811c63ffffffff811160051b90811c61ffff811160041b90811c60ff8111600390811b91821c600f811160021b90811c918211600190811b92831c9790881196179094179092171790911717176080811061393857607f810383901c9150613942565b80607f0383901b91505b908002607f81811c60ff83811c9190911c800280831c81831c1c800280841c81841c1c800280851c81851c1c800280861c81861c1c800280871c81871c1c800280881c81881c1c800280891c81891c1c8002808a1c818a1c1c8002808b1c818b1c1c8002808c1c818c1c1c8002808d1c818d1c1c8002808e1c9c81901c9c909c1c80029c8d901c9e9d607f198f0160401b60c09190911c678000000000000000161760c19b909b1c674000000000000000169a909a1760c29990991c672000000000000000169890981760c39790971c671000000000000000169690961760c49590951c670800000000000000169490941760c59390931c670400000000000000169290921760c69190911c670200000000000000161760c79190911c670100000000000000161760c89190911c6680000000000000161760c99190911c6640000000000000161760ca9190911c6620000000000000161760cb9190911c6610000000000000161760cc9190911c6608000000000000161760cd9190911c66040000000000001617693627a301d71055774c8581026f028f6481ab7f045a5af012a19d003aa9198101608090811d906fdb2df09e81959a81455e260799a0632f8301901d600281810b9083900b14613b4257886001600160a01b0316613b2782613bf0565b6001600160a01b03161115613b3c5781613b44565b80613b44565b815b9998505050505050505050565b6040516382b13d8d60e01b81523060048201526000908190819081906001600160a01b037f000000000000000000000000000000000000000000000000000000000000000016906382b13d8d90602401608060405180830381865afa158015613bbe573d6000803e3d6000fd5b505050506040513d601f19601f82011682018060405250810190613be2919061519a565b935093509350935090919293565b6000600282900b60171d62ffffff818401821816620d89e8811115613c2857604051633c10250f60e01b815260040160405180910390fd5b600160801b6001821615613c4957506ffffcb933bd6fad37aa2d162d1a5940015b6002821615613c68576ffff97272373d413259a46990580e213a0260801c5b6004821615613c87576ffff2e50f5f656932ef12357cf3c7fdcc0260801c5b6008821615613ca6576fffe5caca7e10e4e61c3624eaa0941cd00260801c5b6010821615613cc5576fffcb9843d60f6159c9db58835c9266440260801c5b6020821615613ce4576fff973b41fa98c081472e6896dfb254c00260801c5b6040821615613d03576fff2ea16466c96a3843ec78b326b528610260801c5b6080821615613d22576ffe5dee046a99a2a811c461f1969c30530260801c5b610100821615613d42576ffcbe86c7900a88aedcffc83b479aa3a40260801c5b610200821615613d62576ff987a7253ac413176f2b074cf7815e540260801c5b610400821615613d82576ff3392b0822b70005940c7a398e4b70f30260801c5b610800821615613da2576fe7159475a2c29b7443b29c7fa6e889d90260801c5b611000821615613dc2576fd097f3bdfd2022b8845ad8f792aa58250260801c5b612000821615613de2576fa9f746462d870fdf8a65dc1f90e061e50260801c5b614000821615613e02576f70d869a156d2a1b890bb3df62baf32f70260801c5b618000821615613e22576f31be135f97d08fd981231505542fcfa60260801c5b62010000821615613e43576f09aa508b5b7a84e1c677de54f3e99bc90260801c5b62020000821615613e63576e5d6af8dedb81196699c329225ee6040260801c5b620400008210613ea95762040000821615613e8c576d2216e584f5fa1ea926041bedfe980260801c5b62080000821615613ea9576b048a170391f7dc42444e8fa20260801c5b60008560020b1315613eba57600019045b63ffffffff0160201c949350505050565b6000806000806150048a613ee1576145da613ee5565b6145e95b905060008712613fbd576000613f12888861ffff16620f42400362ffffff16620f424062ffffff166134ce565b9050613f238a8c8b8563ffffffff16565b9450848110613f5057899550613f498561ffff891662ffffff620f424082900316613425565b9250613f96565b613f5c8b8a838f6145f8565b9550856001600160a01b03168a6001600160a01b031603613f7f57613f7f6150b4565b613f8e868c8b8563ffffffff16565b945084880392505b613fb5868c8b8f613fa957614611613fad565b6146205b63ffffffff16565b93505061408f565b6150048b613fcd57614611613fd1565b6146205b9050613fe28a8c8b8463ffffffff16565b9350876000039750600088121561400c576040516334cb3a0160e11b815260040160405180910390fd5b83881061401b57899550614060565b6140278b8a8a8f61462f565b9550856001600160a01b03168a6001600160a01b03161461405457614051868c8b8463ffffffff16565b93505b87841115614060578793505b61406f868c8b8563ffffffff16565b945061408b8561ffff891662ffffff620f424082900316613425565b9250505b509650965096509692505050565b808203828113156000831215146140b357600080fd5b92915050565b818101828112156000831215146140b357600080fd5b60008215806140f0575050818102818382816140ed576140ed61509e565b04145b6140b357600080fd5b60008082600f0b121561413b57508082016001600160801b0380841690821610614136576040516302603ee960e31b815260040160405180910390fd5b6140b3565b826001600160801b03168284019150816001600160801b031610156140b357604051634cba017960e11b815260040160405180910390fd5b600060405163a9059cbb60e01b6000526001600160a01b03841660045282602452602060006044600080895af19150813d1560203d146001600051141617169150806040525080612da757604051637232c81f60e11b815260040160405180910390fd5b806001600160801b03811681146135e057600080fd5b600286900b600090815260208890526040812080548261420d82896140f9565b6001600160801b031690506d09745258e83de0d0f4e400fce799811115614247576040516312dc1b2560e11b815260040160405180910390fd5b6001830154600f0b8561426b5788600f0b81600f0b6142669190615159565b61427d565b88600f0b81600f0b61427d9190615204565b6001850180546001600160801b0319166001600160801b03929092169190911790558184558115945060008390036142cf57841594508960020b8b60020b136142cf5760038401879055600284018890555b50505050979650505050505050565b600285810b60009081526020889052604080822087840b8084529183209293849391929088900b1215614354578860020b8760020b1261432f5781600201548603935081600301548503925061433e565b81600201549350816003015492505b600281015460038201549403939092039161436f565b81600201548160020154039350816003015481600301540392505b5050965096945050505050565b8354600f84900b6000036143a657806001600160801b03166000036143a15750612da7565b6143bc565b6143b081856140f9565b6001600160801b031685555b6001850154600286015460008583146143f357600188018690556143f08387036001600160801b038616600160801b6134ce565b90505b6000858314614420576002890186905561441d8387036001600160801b038716600160801b6134ce565b90505b6001600160801b03828217161561446657600389018054600160801b6001600160801b03808316860181166001600160801b031990931683178290048116850116021790555b505050505050505050565b60085463010000008104600290810b919081900b90600160c81b900463ffffffff1682828289156144b2576144aa8c898386868c61463f565b919450925090505b88156144ce576144c68b898386868c61463f565b919450925090505b8260020b8660020b1415806144e957508160020b8560020b14155b8061450057508363ffffffff168163ffffffff1614155b1561455c576008805462ffffff80861663010000000265ffffffffffff1963ffffffff8616600160c81b02167fffffff00000000ffffffffffffffffffffffffffffffffffffff00000000000090931692909217908516171790555b505050505050505050505050565b60008082600f0b12156145925761458a61172e8585856000036000614734565b6000036145a2565b6145a261172e8585856001614734565b949350505050565b60008082600f0b12156145ca5761458a61172e85858560000360006147e1565b6145a261172e85858560016147e1565b60006145a283858460016147e1565b60006145a28484846001614734565b6000614608858585856001614852565b95945050505050565b60006145a28385846000614734565b60006145a284848460006147e1565b6000614608858585856000614852565b600080600083156146895760008061465860038c614a82565b915091508a60020b8860020b0361467157819750614682565b8a60020b8760020b03614682578096505b5050614712565b6000808a60020b8860020b1280156146a657508a60020b8760020b135b156146cf57508690508560028a810b908c900b13156146c7578a9650614702565b8a9750614702565b6146dd600760098b8e614bf0565b600281810b600090815260036020526040902060010154600160801b9004900b925090505b61470f60038c8484614ca5565b50505b6000614722600760098a8d614d9b565b969a9599509597509395505050505050565b60006001600160a01b038585038116908516811061475157600080fd5b7bffffffffffffffffffffffffffffffff000000000000000000000000606085901b16836147aa57866001600160a01b03166147978383896001600160a01b03166134ce565b816147a4576147a461509e565b046147d6565b6147d66147c18383896001600160a01b0316613425565b886001600160a01b0316808204910615150190565b979650505050505050565b6000846001600160a01b0316846001600160a01b0316101561480257600080fd5b6001600160a01b0385850316826148305761482b81856001600160801b0316600160601b6134ce565b614848565b61484881856001600160801b0316600160601b613425565b9695505050505050565b6000856001600160a01b031660000361486a57600080fd5b846001600160801b031660000361488057600080fd5b8360000361488f575084614608565b8115158315150361499d577bffffffffffffffffffffffffffffffff000000000000000000000000606086901b16821561494b576001600160a01b038716858102908682816148e0576148e061509e565b04036149105781810182811061490e57614904838a6001600160a01b031683613425565b9350505050614608565b505b61494282614937888b6001600160a01b031686816149305761493061509e565b0490614e33565b808204910615150190565b92505050614608565b6001600160a01b038716858102908682816149685761496861509e565b041461497357600080fd5b80821161497f57600080fd5b614942614998838a6001600160a01b0316848603613425565b614e43565b8115614a0a57614a036149986001600160a01b038611156149d5576149d086600160601b896001600160801b03166134ce565b6149f3565b6001600160801b038716606087901b816149f1576149f161509e565b045b6001600160a01b03891690614e33565b9050614608565b60006001600160a01b03851115614a3857614a3385600160601b886001600160801b0316613425565b614a55565b614a55606086901b6001600160801b038816808204910615150190565b905080876001600160a01b031611614a6c57600080fd5b6001600160a01b03871603905095945050505050565b600281810b60008181526020859052604081206001810180548383557fffffffffffffffffffff000000000000000000000000000000000000000000008116909155818501839055600390910191909155600160801b8104830b92600160981b909104900b90620d89e7191480614b0a5750614b01620d89e719615181565b60020b8360020b145b15614b6357600283900b6000908152602085905260409020600101805462ffffff808516600160801b0262ffffff60801b19918516600160981b029190911665ffffffffffff60801b1990921691909117179055614be9565b8060020b8260020b03614b8957604051630d6e094960e01b815260040160405180910390fd5b600282810b6000908152602086905260408082206001908101805462ffffff808816600160981b0262ffffff60981b19909216919091179091559385900b83529120018054918416600160801b0262ffffff60801b199092169190911790555b9250929050565b600190810190600090600883811d610d8a01901c90829061ffff83161b851663ffffffff1615614c5357614c248785614e59565b90945090925090508015614c395750506145a2565b614c4a86610d8b840160010b614e59565b90945090925090505b80614c9657614c718563ffffffff168360010193508360010b614e8a565b909350905080614c895750620d89e891506145a29050565b614c938684614fd8565b92505b6147d687610d89198501614fd8565b600283900b620d89e7191480614ccc5750614cc3620d89e719615181565b60020b8360020b145b612da7578260020b8260020b128015614cea57508260020b8160020b135b614d075760405163e45ac17d60e01b815260040160405180910390fd5b600283810b600090815260209590955260408086206001908101805465ffffffffffff60801b1916600160981b62ffffff878116820262ffffff60801b1990811693909317600160801b8a831681029190911790945597860b8a52848a208401805462ffffff60981b191698909916908102979097179097559390920b865290942090930180549092169202919091179055565b81600080614dd88785600881901d600181810b60009081526020949094526040909320805460ff9093169390931b80831890935591811490151891565b915091508115614e2957610d8a01600181810b60081d80820b6000908152602089905260409020805460ff9094169290921b808418909255821591909214818118935014614e29576001811b831892505b5050949350505050565b808201828110156140b357600080fd5b806001600160a01b03811681146135e057600080fd5b600881901d600181900b6000908152602084905260408120548190614e7e9085614e8a565b93969095509293505050565b60008060ff831684811c808303614ea6578460ff179350614fcf565b7f555555555555555555555555555555555555555555555555555555555555555560008290038216908116156001600160801b0382161560071b1777ffffffffffffffff0000000000000000ffffffffffffffff82161560061b177bffffffff00000000ffffffff00000000ffffffff00000000ffffffff82161560051b177dffff0000ffff0000ffff0000ffff0000ffff0000ffff0000ffff0000ffff82161560041b177eff00ff00ff00ff00ff00ff00ff00ff00ff00ff00ff00ff00ff00ff00ff00ff82161560031b177f0f0f0f0f0f0f0f0f0f0f0f0f0f0f0f0f0f0f0f0f0f0f0f0f0f0f0f0f0f0f0f0f82161560021b177f33333333333333333333333333333333333333333333333333333333333333339091161560011b1760ff1685019350600192505b50509250929050565b600181900b600090815260208390526040902054600882901b90614ffc9082614e8a565b509392505050565b612f23615224565b634e487b7160e01b600052601160045260246000fd5b808201808211156140b3576140b361500c565b600081600f0b6f7fffffffffffffffffffffffffffffff19810361505b5761505b61500c565b60000392915050565b6001600160801b038181168382160190808211156150845761508461500c565b5092915050565b818103818111156140b3576140b361500c565b634e487b7160e01b600052601260045260246000fd5b634e487b7160e01b600052600160045260246000fd5b805161ffff811681146135e057600080fd5b6000602082840312156150ee57600080fd5b6131c0826150ca565b81835281816020850137506000828201602090810191909152601f909101601f19169091010190565b8481528360208201526060604082015260006148486060830184866150f7565b60006020828403121561515257600080fd5b5051919050565b80820182811260008312801582168215821617156151795761517961500c565b505092915050565b60008160020b627fffff19810361505b5761505b61500c565b600080600080608085870312156151b057600080fd5b6151b9856150ca565b935060208501518060020b81146151cf57600080fd5b92506151dd604086016150ca565b915060608501516001600160a01b03811681146151f957600080fd5b939692955090935050565b81810360008312801583831316838312821617156150845761508461500c565b634e487b7160e01b600052605160045260246000fdfea164736f6c6343000814000aa164736f6c6343000814000a",
  "linkReferences": {},
  "deployedLinkReferences": {}
}