{
  "_format": "hh-sol-artifact-1",
  "contractName": "AlgebraPoolDeployer",
  "sourceName": "contracts/AlgebraPoolDeployer.sol",
  "abi": [
    {
      "inputs": [
        {
          "internalType": "address",
          "name": "_blastGovernor",
          "type": "address"
        },
        {
          "internalType": "address",
          "name": "_factory",
          "type": "address"
        }
      ],
      "stateMutability": "nonpayable",
      "type": "constructor"
    },
    {
      "inputs": [],
      "name": "AddressZero",
      "type": "error"
    },
    {
      "inputs": [
        {
          "internalType": "address",
          "name": "blastGovernor",
          "type": "address"
        },
        {
          "internalType": "address",
          "name": "plugin",
          "type": "address"
        },
        {
          "internalType": "address",
          "name": "token0",
          "type": "address"
        },
        {
          "internalType": "address",
          "name": "token1",
          "type": "address"
        }
      ],
      "name": "deploy",
      "outputs": [
        {
          "internalType": "address",
          "name": "pool",
          "type": "address"
        }
      ],
      "stateMutability": "nonpayable",
      "type": "function"
    },
    {
      "inputs": [],
      "name": "getDeployParameters",
      "outputs": [
        {
          "internalType": "address",
          "name": "_blastGovernor",
          "type": "address"
        },
        {
          "internalType": "address",
          "name": "_plugin",
          "type": "address"
        },
        {
          "internalType": "address",
          "name": "_factory",
          "type": "address"
        },
        {
          "internalType": "address",
          "name": "_token0",
          "type": "address"
        },
        {
          "internalType": "address",
          "name": "_token1",
          "type": "address"
        }
      ],
      "stateMutability": "view",
      "type": "function"
    }
  ],
  "bytecode": "0x60a060405234801561001057600080fd5b506040516160e93803806160e98339818101604052604081101561003357600080fd5b5080516020909101516100458261006a565b6001600160a01b03811661005857600080fd5b6001600160a01b031660805250610101565b6001600160a01b03811661009157604051639fabe1c160e01b815260040160405180910390fd5b604051631d70c8d360e31b81526001600160a01b03821660048201527343000000000000000000000000000000000000029063eb86469890602401600060405180830381600087803b1580156100e657600080fd5b505af11580156100fa573d6000803e3d6000fd5b5050505050565b608051615fc7610122600039600081816062015261010b0152615fc76000f3fe608060405234801561001057600080fd5b50600436106100365760003560e01c806304889e261461003b578063fd82b73a146100a4575b600080fd5b600054600154600254600354604080516001600160a01b03958616815293851660208501527f0000000000000000000000000000000000000000000000000000000000000000851684820152918416606084015292909216608082015290519081900360a00190f35b6100e2600480360360808110156100ba57600080fd5b506001600160a01b0381358116916020810135821691604082013581169160600135166100fe565b604080516001600160a01b039092168252519081900360200190f35b6000336001600160a01b037f0000000000000000000000000000000000000000000000000000000000000000161461013557600080fd5b6003805473ffffffffffffffffffffffffffffffffffffffff199081166001600160a01b038581169182179093556002805483168785169081179091556001805484168986161790556000805490931693891693909317909155604080516020808201949094528082019290925280518083038201815260609092019081905281519190920120906101c690610229565b8190604051809103906000f59050801580156101e6573d6000803e3d6000fd5b506003805473ffffffffffffffffffffffffffffffffffffffff199081169091556002805482169055600180548216905560008054909116905595945050505050565b615d84806102378339019056fe60e06040523480156200001157600080fd5b506000806200001f620000c0565b6001600160a01b0390811660c05290811660a052166080529250905062000046816200013e565b620d89e719620000568162000322565b6008805462ffffff93841663010000000265ffffffffffff1990911693909216929092171790556002805460ff60e01b1916600160e01b1790556001600160a01b03821615620000ab57620000ab82620001d8565b50620000ba905060036200022c565b620003e0565b6000806000806000336001600160a01b03166304889e266040518163ffffffff1660e01b815260040160a060405180830381865afa15801562000107573d6000803e3d6000fd5b505050506040513d601f19601f820116820180604052508101906200012d919062000370565b945094509450945094509091929394565b6001600160a01b0381166200016657604051639fabe1c160e01b815260040160405180910390fd5b604051631d70c8d360e31b81526001600160a01b03821660048201527343000000000000000000000000000000000000029063eb86469890602401600060405180830381600087803b158015620001bc57600080fd5b505af1158015620001d1573d6000803e3d6000fd5b5050505050565b600580546001600160a01b0319166001600160a01b0383169081179091556040519081527f27a3944eff2135a57675f17e72501038982b73620d01f794c72e93d61a3932a29060200160405180910390a150565b620d89e7196200023c8162000322565b620d89e7196000818152602085905260409020600101805465ffffffffffff60801b1916600160981b62ffffff9485160262ffffff60801b191617600160801b949093169390930291909117909155620002968162000322565b826000620002a8620d89e71962000322565b60020b60020b81526020019081526020016000206001016010846000620d89e719620002d49062000322565b60020b81526020810191909152604001600020600101805462ffffff948516600160981b0262ffffff60981b1990911617905581549383166101009190910a90810292021990921617905550565b60008160020b627fffff1981036200034a57634e487b7160e01b600052601160045260246000fd5b60000392915050565b80516001600160a01b03811681146200036b57600080fd5b919050565b600080600080600060a086880312156200038957600080fd5b620003948662000353565b9450620003a46020870162000353565b9350620003b46040870162000353565b9250620003c46060870162000353565b9150620003d46080870162000353565b90509295509295909350565b60805160a05160c0516158e86200049c60003960008181610a4701528181610cd701528181611314015281816116b901528181611afe01528181611bc001528181611fa70152818161272c0152818161308101526131fe01526000818161032901528181610d5d015281816112d00152818161167601528181611b3601528181611b8801528181611f58015281816126d401528181612f3c01526130500152600081816109b9015281816133bd01526140f801526158e86000f3fe608060405234801561001057600080fd5b50600436106102ad5760003560e01c806397ce1c511161017b578063d5c35a7e116100d8578063ecdecf421161008c578063f085a61011610071578063f085a61014610b99578063f30dba9314610bb9578063f637731d14610c5357600080fd5b8063ecdecf4214610b7d578063ef01df4f14610b8657600080fd5b8063d8619037116100bd578063d861903714610a9c578063ddca3f4314610ac9578063e76c01e414610ae857600080fd5b8063d5c35a7e14610a69578063d8544cf314610a7657600080fd5b8063c45a01551161012f578063cc1f97cf11610114578063cc1f97cf14610a08578063d0c93a7c14610a2e578063d21220a714610a4257600080fd5b8063c45a0155146109b4578063c677e3e0146109db57600080fd5b80639e4e0227116101605780639e4e022714610821578063aafe29c0146108c0578063bca57f811461099457600080fd5b806397ce1c511461078a578063996cba68146107eb57600080fd5b8063490e6cbc116102295780636378ae44116101dd5780637bd78025116101c25780637bd780251461071f5780638380edb7146107485780638e0055531461076957600080fd5b80636378ae441461070157806370cf754a1461070a57600080fd5b8063514ea4bf1161020e578063514ea4bf1461064d57806353e97868146106d7578063578b9a36146106ea57600080fd5b8063490e6cbc146105705780634f1eb3d8146105fc57600080fd5b8063128acb0811610280578063240a875a11610265578063240a875a146104785780633b3bc70e1461049b5780633bdbe9a51461052f57600080fd5b8063128acb08146103905780631a6865021461043f57600080fd5b8063050a4d21146102b25780630902f1ac146102dd5780630dfe1681146103245780631131b11014610367575b600080fd5b6008546102c6906301000000900460020b81565b6040805160029290920b8252519081900360200190f35b600b546001600160801b0380821691600160801b9004165b60405180836001600160801b03168152602001826001600160801b031681526020019250505060405180910390f35b61034b7f000000000000000000000000000000000000000000000000000000000000000081565b604080516001600160a01b039092168252519081900360200190f35b6004546103779063ffffffff1681565b6040805163ffffffff9092168252519081900360200190f35b610426600480360360a08110156103a657600080fd5b6001600160a01b0382358116926020810135151592604082013592606083013516919081019060a0810160808201356401000000008111156103e757600080fd5b8201836020820111156103f957600080fd5b8035906020019184600183028401116401000000008311171561041b57600080fd5b509092509050610c79565b6040805192835260208301919091528051918290030190f35b60085461045c90660100000000000090046001600160801b031681565b604080516001600160801b039092168252519081900360200190f35b6104996004803603602081101561048e57600080fd5b503561ffff16610e89565b005b610426600480360360808110156104b157600080fd5b8135600290810b92602081013590910b916001600160801b0360408301351691908101906080810160608201356401000000008111156104f057600080fd5b82018360208201111561050257600080fd5b8035906020019184600183028401116401000000008311171561052457600080fd5b509092509050610f08565b61055e6004803603604081101561054557600080fd5b5080356001600160a01b0316906020013560ff166110e5565b60408051918252519081900360200190f35b6104996004803603608081101561058657600080fd5b6001600160a01b0382351691602081013591604082013591908101906080810160608201356401000000008111156105bd57600080fd5b8201836020820111156105cf57600080fd5b803590602001918460018302840111640100000000831117156105f157600080fd5b509092509050611180565b6102f5600480360360a081101561061257600080fd5b506001600160a01b03813516906020810135600290810b91604081013590910b906001600160801b03606082013581169160800135166115a2565b6106a06004803603602081101561066357600080fd5b50600a60205235600090815260409020805460018201546002830154600390930154919290916001600160801b0380821691600160801b90041685565b604080519586526020860194909452848401929092526001600160801b039081166060850152166080830152519081900360a00190f35b60065461034b906001600160a01b031681565b60085461037790600160c81b900463ffffffff1681565b61055e60005481565b61045c6d09745258e83de0d0f4e400fce79981565b6004546cffffffffffffffffffffffffff6401000000008204811691600160881b9004166102f5565b600254600160e01b900460ff16604080519115158252519081900360200190f35b6104996004803603602081101561077f57600080fd5b503561ffff16611793565b610792611865565b604080516001600160a01b039098168852600296870b602089015261ffff9095168786015260ff90931660608701526001600160801b039091166080860152830b60a085015290910b60c0830152519081900360e00190f35b61055e6004803603606081101561080157600080fd5b506001600160a01b038135811691602081013590911690604001356118fb565b610426600480360360c081101561083757600080fd5b6001600160a01b0382358116926020810135821692604082013515159260608301359260808101359091169181019060c0810160a082013564010000000081111561088157600080fd5b82018360208201111561089357600080fd5b803590602001918460018302840111640100000000831117156108b557600080fd5b50909250905061199b565b61096d600480360360c08110156108d657600080fd5b6001600160a01b0382358116926020810135909116916040820135600290810b92606081013590910b916001600160801b03608083013516919081019060c0810160a082013564010000000081111561092e57600080fd5b82018360208201111561094057600080fd5b8035906020019184600183028401116401000000008311171561096257600080fd5b509092509050611ca1565b6040805193845260208401929092526001600160801b031682820152519081900360600190f35b610499600480360360208110156109aa57600080fd5b503560ff166120ad565b61034b7f000000000000000000000000000000000000000000000000000000000000000081565b61055e600480360360208110156109f157600080fd5b5060076020523560010b6000908152604090205481565b61049960048036036020811015610a1e57600080fd5b50356001600160a01b0316612119565b6008546102c690600160b01b900460020b81565b61034b7f000000000000000000000000000000000000000000000000000000000000000081565b6008546102c69060020b81565b61049960048036036020811015610a8c57600080fd5b50356001600160a01b031661213c565b61055e60048036036020811015610ab257600080fd5b5060096020523560010b6000908152604090205481565b610ad1612187565b6040805161ffff9092168252519081900360200190f35b60028054610b33916001600160a01b03821691600160a01b810490910b9061ffff600160b81b820481169160ff600160c81b8204811692600160d01b83041691600160e01b90041686565b604080516001600160a01b03909716875260029590950b602087015261ffff9384168686015260ff90921660608601529091166080840152151560a0830152519081900360c00190f35b61055e60015481565b60055461034b906001600160a01b031681565b61049960048036036020811015610baf57600080fd5b503560020b61222b565b610c1760048036036020811015610bcf57600080fd5b50600360208190529035600290810b600090815260409020805460018201548284015492909401549093600f81900b93600160801b8204810b93600160981b909204900b9186565b60408051968752600f9590950b6020870152600293840b868601529190920b6060850152608084019190915260a0830152519081900360c00190f35b61049960048036036020811015610c6957600080fd5b50356001600160a01b03166122ad565b600080610c8c888888886000898961254b565b610c94612643565b600080610c9f61267c565b91509150600080600080610cb48d8d8d61285c565b949c50929a509096509450925090508c15610d4f576000871215610d0057610d007f00000000000000000000000000000000000000000000000000000000000000008f89600003612e9a565b610d0c88888c8c612eaa565b610d14612f24565b610d1e898861568c565b1115610d3d57604051633ed6d50560e21b815260040160405180910390fd5b610d4a8888836000612fb5565b610dd0565b6000881215610d8657610d867f00000000000000000000000000000000000000000000000000000000000000008f8a600003612e9a565b610d9288888c8c612eaa565b610d9a6131e6565b610da4888761568c565b1115610dc357604051633ed6d50560e21b815260040160405180910390fd5b610dd08888600084612fb5565b8d6001600160a01b0316336001600160a01b03167fc42079f94a6350d7e6235f29174924f928cc2ac818eb64fed8004e115fbcca678a8a88878960405180868152602001858152602001846001600160a01b03168152602001836001600160801b031681526020018260020b81526020019550505050505060405180910390a3505050505050610e6e6002805460ff60e01b1916600160e01b179055565b610e7e8888888886868a8a613235565b965096945050505050565b610e91613332565b610e9961335e565b6103e861ffff82161180610ebc575060025461ffff828116600160d01b90920416145b80610ede575061ffff811615801590610ede57506006546001600160a01b0316155b15610efc5760405163a709b9af60e01b815260040160405180910390fd5b610f0581613456565b50565b6000808686610f1782826134ad565b6f7fffffffffffffffffffffffffffffff6001600160801b0388161115610f6a576040517f8995290f00000000000000000000000000000000000000000000000000000000815260040160405180910390fd5b6000610f758861569f565b9050610f85338b8b848b8b61357a565b610f8d612643565b610f9561267c565b50506000610fc3338c8c62ffffff9081169116601892831b1790911b176000908152600a6020526040902090565b9050610fd1818c8c8561366a565b909650945085851715611044576003810154610ff79087906001600160801b03166156dd565b6003820154611017908790600160801b90046001600160801b03166156dd565b6001600160801b039182169116600160801b026fffffffffffffffffffffffffffffffff19161760038201555b6001600160801b03891686178517156110af57604080516001600160801b038b16815260208101889052808201879052905160028c810b92908e900b9133917f0c396cd989a39f4459b5fa1aed6a9a8dcdbc45908acfd67e028cd568da98982c919081900360600190a45b6110c76002805460ff60e01b1916600160e01b179055565b6110d7338c8c858a8a8e8e61378f565b505050509550959350505050565b60006110ef61388b565b6040517f1a33757d0000000000000000000000000000000000000000000000000000000081526001600160a01b03841690631a33757d90611134908590600401615704565b6020604051808303816000875af1158015611153573d6000803e3d6000fd5b505050506040513d601f19601f82011682018060405250810190611177919061572c565b90505b92915050565b600254600160c81b900460101615611297576005546040517f8de0a8ee0000000000000000000000000000000000000000000000000000000080825233600483018181526001600160a01b038a81166024860152604485018a90526064850189905260a06084860190815260a486018890526112979694959190941693638de0a8ee93928c928c928c928c928c929060c401848480828437600081840152601f19601f8201169050808301925050509750505050505050506020604051808303816000875af1158015611257573d6000803e3d6000fd5b505050506040513d602081101561126d57600080fd5b50517fffffffff000000000000000000000000000000000000000000000000000000001690613893565b61129f612643565b6000806000806112ad61267c565b9092509050600088156112f6576112c9896064620f4240613919565b90506112f67f00000000000000000000000000000000000000000000000000000000000000008b8b612e9a565b6000881561133a5761130d896064620f4240613919565b905061133a7f00000000000000000000000000000000000000000000000000000000000000008c8b612e9a565b61134682828a8a613999565b61134e612f24565b95508561135b838661568c565b1115611393576040517f6dbca1fe00000000000000000000000000000000000000000000000000000000815260040160405180910390fd5b61139b6131e6565b9450846113a8828561568c565b11156113e0576040517fc998149f00000000000000000000000000000000000000000000000000000000815260040160405180910390fd5b60025495849003959483900394600160d01b900461ffff16801561143d57600087156114165761141388836103e86139db565b90505b6000871561142e5761142b88846103e86139db565b90505b61143a82828484612fb5565b50505b604080518c8152602081018c90528082018990526060810188905290516001600160a01b038e169133917fbdbdb71d7860376ba52b25a5028beea23581364a40522f6bcfb86bb1f2dca6339181900360800190a350505050506114ae6002805460ff60e01b1916600160e01b179055565b600254600160c81b9004602016156115995761159963343d37ff60e01b600560009054906101000a90046001600160a01b03166001600160a01b031663343d37ff338b8b8b89898d8d6040518963ffffffff1660e01b815260040180896001600160a01b03168152602001886001600160a01b03168152602001878152602001868152602001858152602001848152602001806020018281038252848482818152602001925080828437600081840152601f19601f82011690508083019250505099505050505050505050506020604051808303816000875af1158015611257573d6000803e3d6000fd5b50505050505050565b6000806115ad612643565b60006115d933888862ffffff9081169116601892831b1790911b176000908152600a6020526040902090565b60038101549091506001600160801b0380821691600160801b90048116908716821015611604578196505b806001600160801b0316866001600160801b03161115611622578095505b6001600160801b03878717161561176e576001600160801b0387830381168783038216600160801b026fffffffffffffffffffffffffffffffff19161760038501558795508694508516156116a5576116a57f00000000000000000000000000000000000000000000000000000000000000008b876001600160801b0316612e9a565b6001600160801b038416156116e8576116e87f00000000000000000000000000000000000000000000000000000000000000008b866001600160801b0316612e9a565b61170d856001600160801b0316600003856001600160801b0316600003600080612fb5565b604080516001600160a01b038c1681526001600160801b038088166020830152861681830152905160028a810b92908c900b9133917f70935338e69775456a85ddef226c395fb668b63fa0115f5f20610b388e6ca9c0919081900360600190a45b6117866002805460ff60e01b1916600160e01b179055565b5050509550959350505050565b600254600160c81b8104608016151590600160e01b900460ff166117ca57604051636798480960e11b815260040160405180910390fd5b6005546001600160a01b031633036118185780611813576040517f3a4528ef00000000000000000000000000000000000000000000000000000000815260040160405180910390fd5b611858565b8015611850576040517fd39b8e0e00000000000000000000000000000000000000000000000000000000815260040160405180910390fd5b61185861335e565b61186182613a74565b5050565b600280546001600160a01b03811691600160a01b8204900b9061ffff600160b81b8204169060ff600160c81b820481169160009182918291600160e01b90910416806118c457604051636798480960e11b815260040160405180910390fd5b505060085495969495939492936001600160801b03660100000000000082041693600282810b9450630100000090920490910b9150565b600061190561388b565b6040517faad3ec960000000000000000000000000000000000000000000000000000000081526001600160a01b0384811660048301526024820184905285169063aad3ec96906044016020604051808303816000875af115801561196d573d6000803e3d6000fd5b505050506040513d601f19601f82011682018060405250810190611991919061572c565b90505b9392505050565b60008060008612156119c0576040516334cb3a0160e11b815260040160405180910390fd5b6119c8612643565b60008715611a1e5760006119da612f24565b90506119e98860008888612eaa565b60006119f3612f24565b9050611a07611a028383615745565b613ade565b9250611a17836000806000612fb5565b5050611a63565b6000611a286131e6565b9050611a376000898888612eaa565b6000611a416131e6565b9050611a50611a028383615745565b9250611a60600084600080612fb5565b50505b868114611a6e578096505b5085600003611a9057604051633ed6d50560e21b815260040160405180910390fd5b611aa86002805460ff60e01b1916600160e01b179055565b611ab8888888886001898961254b565b611ac0612643565b611ac861267c565b5050600080600080611adb8b8b8b61285c565b949a509298509096509450925090508a15611b7a576000851215611b2757611b277f00000000000000000000000000000000000000000000000000000000000000008d87600003612e9a565b858a038a8714611b5c57611b5c7f00000000000000000000000000000000000000000000000000000000000000008f83612e9a565b611b74611b6882613ade565b60000387846000612fb5565b50611c00565b6000861215611bb157611bb17f00000000000000000000000000000000000000000000000000000000000000008d88600003612e9a565b848a038a8614611be657611be67f00000000000000000000000000000000000000000000000000000000000000008f83612e9a565b611bfe87611bf383613ade565b600003600085612fb5565b505b60408051878152602081018790526001600160a01b03868116828401526001600160801b0385166060830152600286900b60808301529151918e169133917fc42079f94a6350d7e6235f29174924f928cc2ac818eb64fed8004e115fbcca67919081900360a00190a3611c816002805460ff60e01b1916600160e01b179055565b611c918c8c8c8c8a8a8e8e613235565b5050505097509795505050505050565b60008060008787611cb282826134ad565b876001600160801b0316600003611cf5576040517fe6ace6df00000000000000000000000000000000000000000000000000000000815260040160405180910390fd5b611d148b8b8b611d0d8c6001600160801b0316613af2565b8b8b61357a565b611d1c612643565b60028054600160a01b810490910b906001600160a01b03166000819003611d565760405163812eb65560e01b815260040160405180910390fd5b600854600160b01b9004600290810b9081908d900b81611d7857611d78615758565b078160020b8e60020b81611d8e57611d8e615758565b071760020b15611dca576040517f5f6e14f300000000000000000000000000000000000000000000000000000000815260040160405180910390fd5b50611de98c8c611de28d6001600160801b0316613af2565b8585613b05565b50909750955060009150819050611dfe61267c565b91509150611e0e87878b8b613bb4565b8615611e2c5781611e1d612f24565b611e279190615745565b611e2f565b60005b91508515611e4f5780611e406131e6565b611e4a9190615745565b611e52565b60005b905086821015611e7757611e708a6001600160801b031683896139db565b9450611e7b565b8994505b85811015611ebb576000611e998b6001600160801b031683896139db565b9050856001600160801b0316816001600160801b03161015611eb9578095505b505b846001600160801b0316600003611efe576040517fbeba2a6c00000000000000000000000000000000000000000000000000000000815260040160405180910390fd5b62ffffff8b8116908d1660188f811b91909117901b176000908152600a60205260409020611f3f818e8e611f3a6001600160801b038b16613af2565b61366a565b9098509650508615611f945786821115611f8557611f807f00000000000000000000000000000000000000000000000000000000000000008f898503612e9a565b611f94565b868214611f9457611f9461576e565b8515611fe35785811115611fd457611fcf7f00000000000000000000000000000000000000000000000000000000000000008f888403612e9a565b611fe3565b858114611fe357611fe361576e565b611ff08787600080612fb5565b8a60020b8c60020b8e6001600160a01b03167f7a53080ba414158be7ec69b987b5fb7d07dee101fe85488f0853ae16239d0bde33898c8c60405180856001600160a01b03168152602001846001600160801b0316815260200183815260200182815260200194505050505060405180910390a461207b6002805460ff60e01b1916600160e01b179055565b61209c8d8d8d612093896001600160801b0316613af2565b8b8b8f8f61378f565b505050509750975097945050505050565b6120b5613332565b6005546001600160a01b0316806120f8576040517f9e727ce300000000000000000000000000000000000000000000000000000000815260040160405180910390fd5b336001600160a01b038216146121105761211061335e565b61186182613bf6565b612121613332565b61212961335e565b6121336000613bf6565b610f0581613c5f565b612144613332565b61214c61335e565b6001600160a01b03811615801561216f5750600254600160d01b900461ffff1615155b1561217e5761217e6000613456565b610f0581613cba565b600254600160b81b810461ffff1690600160c81b900460ff8116906080161561222757600560009054906101000a90046001600160a01b03166001600160a01b031663f70d93626040518163ffffffff1660e01b8152600401602060405180830381865afa1580156121fd573d6000803e3d6000fd5b505050506040513d601f19601f820116820180604052508101906122219190615796565b91505090565b5090565b612233613332565b61223b61335e565b60008160020b13158061225357506101f4600282900b135b8061226d5750600854600282810b600160b01b909204900b145b156122a4576040517fafe09f4400000000000000000000000000000000000000000000000000000000815260040160405180910390fd5b610f0581613d15565b60006122b882613d7e565b6002549091506001600160a01b0316156122fe576040517f52669adc00000000000000000000000000000000000000000000000000000000815260040160405180910390fd5b6002805473ffffffffffffffffffffffffffffffffffffffff19166001600160a01b038481169190911790915560055416156123ad57600554604080517f636fd804000000000000000000000000000000000000000000000000000000008082523360048301526001600160a01b03868116602484015292516123ad9491939091169163636fd80491604480830192602092919082900301816000875af1158015611257573d6000803e3d6000fd5b6000806000806123bb6140b9565b600280547fffffffff0000ffffff000000ffffffffffffffffffffffffffffffffffffffff8116600160a01b62ffffff8d160261ffff60d01b191617600160d01b61ffff881602178255604080516001600160a01b038e168152928c900b60208401528051969a50949850929650909450600160c81b90910460ff16927f98636036cb66a9c19a37435efc1e90142190214e8abeb821bdba3f2990dd4c95929181900390910190a161246c83613a74565b61247584613d15565b61247e82613cba565b61ffff85161580159061249857506001600160a01b038216155b156124b65760405163a709b9af60e01b815260040160405180910390fd5b6124bf85613456565b604081161561159957600554604080517f82dd6522000000000000000000000000000000000000000000000000000000008082523360048301526001600160a01b038b8116602484015260028b900b60448401529251611599949193909116916382dd652291606480830192602092919082900301816000875af1158015611257573d6000803e3d6000fd5b600254600160c81b9004600116156115995761159963029c1cb760e01b600560009054906101000a90046001600160a01b03166001600160a01b031663029c1cb7338b8b8b8b8b8b8b6040518963ffffffff1660e01b815260040180896001600160a01b03168152602001886001600160a01b031681526020018715158152602001868152602001856001600160a01b031681526020018415158152602001806020018281038252848482818152602001925080828437600081840152601f19601f82011690508083019250505099505050505050505050506020604051808303816000875af1158015611257573d6000803e3d6000fd5b600254600160e01b900460ff1661266d57604051636798480960e11b815260040160405180910390fd5b6002805460ff60e01b19169055565b600080612687612f24565b61268f6131e6565b90925090506001600160801b038211806126af57506001600160801b0381115b15612772576006546001600160a01b03166001600160801b038311156127185761270d7f0000000000000000000000000000000000000000000000000000000000000000826ffffffffffffffffffffffffffffffffe198601612e9a565b6001600160801b0392505b6001600160801b03821115612770576127657f0000000000000000000000000000000000000000000000000000000000000000826ffffffffffffffffffffffffffffffffe198501612e9a565b6001600160801b0391505b505b600854660100000000000090046001600160801b0316600081900361279657509091565b600b546001600160801b0380821691600160801b90041681851181851181806127bc5750805b156128535781156127f4576127ea846001600160801b03168803600160801b876001600160801b03166139db565b6000805490910190555b80156128275761281d836001600160801b03168703600160801b876001600160801b03166139db565b6001805490910190555b6001600160801b03808816908716600160801b026fffffffffffffffffffffffffffffffff191617600b555b50505050509091565b6000806000806000808760000361289f576040517f79db984000000000000000000000000000000000000000000000000000000000815260040160405180910390fd5b7f800000000000000000000000000000000000000000000000000000000000000088036128df576040516334cb3a0160e11b815260040160405180910390fd5b6040805161014081018252600060208201819052606082018190526080820181905260a08201819052808b1360c08301529181018a9052600854600281810b61012084015263010000008204810b610100840152805461ffff600160d01b820481168552600160b81b82041660e08501526001600160a01b0381169850600160a01b9004900b9550660100000000000090046001600160801b031693509085900361299d5760405163812eb65560e01b815260040160405180910390fd5b89156129fd57846001600160a01b0316886001600160a01b03161015806129d257506401000276a36001600160a01b03891611155b156129f057604051631662672360e01b815260040160405180910390fd5b6000546080820152612a62565b846001600160a01b0316886001600160a01b0316111580612a3b575073fffd8963efd1fc6a506488495d951d5263988d266001600160a01b03891610155b15612a5957604051631662672360e01b815260040160405180910390fd5b60015460808201525b612a946040518060a0016040528060008152602001600081526020016000815260200160008152602001600081525090565b60008b612aa657826101200151612aad565b8261010001515b6001600160a01b03881683529050612ac481614171565b6001600160a01b0390811660208401819052612b01918e918a918e161182151514612af3578460200151612af5565b8c5b888f8860e00151614465565b60808601526060850152604084015260c084015190975015612b5957612b308260800151836040015101613ade565b8b039a50612b4f612b448360600151613ade565b606085015190614637565b6060840152612b91565b612b668260600151613ade565b8b019a50612b8b612b808360800151846040015101613ade565b60608501519061464d565b60608401525b825115612bd357825160808301516000916103e891612baf91614663565b81612bbc57612bbc615758565b608085018051929091049182900390529490940193505b6001600160801b03851615612c0a57612bfe8260800151600160801b876001600160801b03166139db565b60808401805190910190525b8160200151876001600160a01b031603612d26578260200151612c4557600160208401528b612c3b57600054612c3f565b6001545b60a08401525b60008c15612cb45750608083015160a0840151600283810b600081815260036020819052604082209081018054828601805490980390975595909403909455600190920154600160801b810490910b61010087015261012086019190915260001983019750600f0b9003612d14565b5060a08301516080840151600283810b60008181526003602081905260409091209081018054828501805490970390965594909303909355600190910154600160981b810490910b6101208601526101008501919091529095508590600f0b5b612d1e868261468d565b955050612d48565b81516001600160a01b03881614612d4857612d4087613d7e565b955050612d6f565b508915801590612d6a5750886001600160a01b0316866001600160a01b031614155b612a94575b60008a83604001510390508260c0015115158c151514612d9457826060015181612d9b565b8083606001515b600280547fffffffffffffffffff000000000000000000000000000000000000000000000016600160a01b62ffffff8b160273ffffffffffffffffffffffffffffffffffffffff1916176001600160a01b038b161790556020850151919a509850159050612e70576101008201516101208301516008805462ffffff92831665ffffffffffff199091161763010000009290931691909102919091177fffffffffffffffffffff00000000000000000000000000000000ffffffffffff1666010000000000006001600160801b038716021790555b8a15612e83576080820151600055612e8c565b60808201516001555b505093975093979195509350565b612ea5838383614739565b505050565b6040517f2c8958f60000000000000000000000000000000000000000000000000000000081523390632c8958f690612eec9087908790879087906004016157da565b600060405180830381600087803b158015612f0657600080fd5b505af1158015612f1a573d6000803e3d6000fd5b5050505050505050565b6040516370a0823160e01b81523060048201526000907f00000000000000000000000000000000000000000000000000000000000000006001600160a01b0316906370a08231906024015b602060405180830381865afa158015612f8c573d6000803e3d6000fd5b505050506040513d601f19601f82011682018060405250810190612fb0919061572c565b905090565b81811715613153576004546cffffffffffffffffffffffffff64010000000082048116840191600160881b90041682016000612fee4290565b600454909150610e1063ffffffff918216830390911610158061301d57506cffffffffffffffffffffffffff83115b8061303457506cffffffffffffffffffffffffff82115b156130e0576006546001600160a01b03168315613076576130767f00000000000000000000000000000000000000000000000000000000000000008286612e9a565b82156130a7576130a77f00000000000000000000000000000000000000000000000000000000000000008285612e9a565b6004805463ffffffff191663ffffffff84161790556130c584613ade565b88036130d084613ade565b9098509096039550600092508291505b50600480547fffff0000000000000000000000000000000000000000000000000000ffffffff16600160881b6cffffffffffffffffffffffffff938416027fffffffffffffffffffffffffffffff00000000000000000000000000ffffffff161764010000000093909216929092021790555b838317156131e057600b546001600160801b0380821691600160801b90041685156131965761318a61318587846157fa565b6147cf565b6001600160801b031691505b84156131b5576131a961318586836157fa565b6001600160801b031690505b6001600160801b039182169116600160801b026fffffffffffffffffffffffffffffffff191617600b555b50505050565b6040516370a0823160e01b81523060048201526000907f00000000000000000000000000000000000000000000000000000000000000006001600160a01b0316906370a0823190602401612f6f565b60028054600160c81b90041615612f1a57612f1a639cb5a96360e01b600560009054906101000a90046001600160a01b03166001600160a01b0316639cb5a963338c8c8c8c8c8c8c8c6040518a63ffffffff1660e01b8152600401808a6001600160a01b03168152602001896001600160a01b031681526020018815158152602001878152602001866001600160a01b03168152602001858152602001848152602001806020018281038252848482818152602001925080828437600081840152601f19601f8201169050808301925050509a50505050505050505050506020604051808303816000875af1158015611257573d6000803e3d6000fd5b600254600160e01b900460ff1661335c57604051636798480960e11b815260040160405180910390fd5b565b604080517fe8ae2b690000000000000000000000000000000000000000000000000000000081527fb73ce166ead2f8e9add217713a7989e4edfba9625f71dfd2516204bb67ad3442600482015233602482015290516001600160a01b037f0000000000000000000000000000000000000000000000000000000000000000169163e8ae2b699160448083019260209291908290030181865afa158015613408573d6000803e3d6000fd5b505050506040513d602081101561341e57600080fd5b505161335c576040517f932984d200000000000000000000000000000000000000000000000000000000815260040160405180910390fd5b6002805461ffff60d01b1916600160d01b61ffff8416908102919091179091556040519081527f3647dccc990d4941b0b05b32527ef493a98d6187b20639ca2f9743f3b55ca5e1906020015b60405180910390a150565b6134ba620d89e719615822565b60020b8160020b13156134f9576040517f1445443d00000000000000000000000000000000000000000000000000000000815260040160405180910390fd5b8160020b8160020b13613538576040517fd9a841a700000000000000000000000000000000000000000000000000000000815260040160405180910390fd5b620d89e719600283900b1215611861576040517f746b1fc400000000000000000000000000000000000000000000000000000000815260040160405180910390fd5b600254600160c81b900460041615613662576005546040517f5e2411b20000000000000000000000000000000000000000000000000000000080825233600483018181526001600160a01b038b8116602486015260028b810b60448701528a900b6064860152600f89900b608486015260c060a4860190815260c486018890526136629694959190941693635e2411b293928d928d928d928d928d928d929160e401848480828437600081840152601f19601f820116905080830192505050985050505050505050506020604051808303816000875af1158015611257573d6000803e3d6000fd5b505050505050565b6002805460008054600154919384936001600160a01b03811693600160a01b90910490910b918491829190600f89900b156136c6576136b060038c878c868660006147e5565b93506136c360038b878c868660016147e5565b92505b6000806136d860038e8e8a88886148f8565b915091506136e88e8c8484614996565b5050505086600f0b6000146137825781806137005750805b1561371957613719898984848760008d600f0b12614a94565b60006137288a8a8a8789613b05565b91985096509050600f81900b156137805760085461375990660100000000000090046001600160801b03168961468d565b600860066101000a8154816001600160801b0302191690836001600160801b031602179055505b505b5050505094509492505050565b600254600160c81b900460081615612f1a57612f1a63d685201060e01b600560009054906101000a90046001600160a01b03166001600160a01b031663d6852010338c8c8c8c8c8c8c8c6040518a63ffffffff1660e01b8152600401808a6001600160a01b03168152602001896001600160a01b031681526020018860020b81526020018760020b815260200186600f0b8152602001858152602001848152602001806020018281038252848482818152602001925080828437600081840152601f19601f8201169050808301925050509a50505050505050505050506020604051808303816000875af1158015611257573d6000803e3d6000fd5b61335c61335e565b7fffffffff0000000000000000000000000000000000000000000000000000000082811690821614611861576040517fd3f5153b0000000000000000000000000000000000000000000000000000000081527fffffffff000000000000000000000000000000000000000000000000000000008216600482015260240160405180910390fd5b600083158061393a5750508282028284828161393757613937615758565b04145b1561395b576000821161394c57600080fd5b81810490829006151501611994565b6139668484846139db565b90506000828061397857613978615758565b848609111561199457600019811061398f57600080fd5b6001019392505050565b6040517fa60b0d3c000000000000000000000000000000000000000000000000000000008152339063a60b0d3c90612eec9087908790879087906004016157da565b600083830281600019858709828110838203039150508084116139fd57600080fd5b80600003613a1057508290049050611994565b8385870960008581038616958690049560026003880281188089028203028089028203028089028203028089028203028089028203028089029091030291819003819004600101858411909403939093029190930391909104170290509392505050565b600280547fffffffffffffff0000ffffffffffffffffffffffffffffffffffffffffffffff16600160b81b61ffff8416908102919091179091556040519081527f598b9f043c813aa6be3426ca60d1c65d17256312890be5118dab55b0775ebe2a906020016134a2565b806000811215613aed57600080fd5b919050565b806000600f82900b1215613aed57600080fd5b600080600080613b1489614171565b90506000613b2189614171565b90506000808b60020b8960020b1215613b4657613b3f84848c614b8d565b9150613b84565b8a60020b8960020b1215613b7657613b5f88848c614b8d565b9150613b6c84898c614bc5565b9050899450613b84565b613b8184848c614bc5565b90505b60008a600f0b12613b96578181613b9f565b81600003816000035b909d909c50949a509398505050505050505050565b6040517f3dd657c50000000000000000000000000000000000000000000000000000000081523390633dd657c590612eec9087908790879087906004016157da565b600280547fffffffffffff00ffffffffffffffffffffffffffffffffffffffffffffffffff16600160c81b60ff8416908102919091179091556040519081527f3a6271b36c1b44bd6a0a0d56230602dc6919b7c17af57254306fadf5fee69dc3906020016134a2565b6005805473ffffffffffffffffffffffffffffffffffffffff19166001600160a01b0383169081179091556040519081527f27a3944eff2135a57675f17e72501038982b73620d01f794c72e93d61a3932a2906020016134a2565b6006805473ffffffffffffffffffffffffffffffffffffffff19166001600160a01b0383169081179091556040519081527fb0b573c1f636e1f8bd9b415ba6c04d6dd49100bc25493fc6305b65ec0e581df3906020016134a2565b600880547fffffffffffffff000000ffffffffffffffffffffffffffffffffffffffffffff16600160b01b62ffffff841602179055604051600282900b81527f01413b1d5d4c359e9a0daa7909ecda165f6e8c51fe2ff529d74b22a5a7c02645906020016134a2565b60006401000276a36001600160a01b0383161080613db9575073fffd8963efd1fc6a506488495d951d5263988d266001600160a01b03831610155b15613df0576040517f55cf1e2300000000000000000000000000000000000000000000000000000000815260040160405180910390fd5b77ffffffffffffffffffffffffffffffffffffffff00000000602083901b166001600160801b03811160071b81811c67ffffffffffffffff811160061b90811c63ffffffff811160051b90811c61ffff811160041b90811c60ff8111600390811b91821c600f811160021b90811c918211600190811b92831c97908811961790941790921717909117171760808110613e9157607f810383901c9150613e9b565b80607f0383901b91505b908002607f81811c60ff83811c9190911c800280831c81831c1c800280841c81841c1c800280851c81851c1c800280861c81861c1c800280871c81871c1c800280881c81881c1c800280891c81891c1c8002808a1c818a1c1c8002808b1c818b1c1c8002808c1c818c1c1c8002808d1c818d1c1c8002808e1c9c81901c9c909c1c80029c8d901c9e9d607f198f0160401b60c09190911c678000000000000000161760c19b909b1c674000000000000000169a909a1760c29990991c672000000000000000169890981760c39790971c671000000000000000169690961760c49590951c670800000000000000169490941760c59390931c670400000000000000169290921760c69190911c670200000000000000161760c79190911c670100000000000000161760c89190911c6680000000000000161760c99190911c6640000000000000161760ca9190911c6620000000000000161760cb9190911c6610000000000000161760cc9190911c6608000000000000161760cd9190911c66040000000000001617693627a301d71055774c8581027ffffffffffffffffffffffffffffffffffd709b7e5480fba5a50fed5e62ffc5568101608090811d906fdb2df09e81959a81455e260799a0632f8301901d600281810b9083900b146140aa57886001600160a01b031661408f82614171565b6001600160a01b031611156140a457816140ac565b806140ac565b815b9998505050505050505050565b6040517f82b13d8d0000000000000000000000000000000000000000000000000000000081523060048201526000908190819081906001600160a01b037f000000000000000000000000000000000000000000000000000000000000000016906382b13d8d90602401608060405180830381865afa15801561413f573d6000803e3d6000fd5b505050506040513d601f19601f82011682018060405250810190614163919061583b565b935093509350935090919293565b6000600282900b60171d62ffffff818401821816620d89e88111156141c2576040517f3c10250f00000000000000000000000000000000000000000000000000000000815260040160405180910390fd5b600160801b60018216156141e357506ffffcb933bd6fad37aa2d162d1a5940015b6002821615614202576ffff97272373d413259a46990580e213a0260801c5b6004821615614221576ffff2e50f5f656932ef12357cf3c7fdcc0260801c5b6008821615614240576fffe5caca7e10e4e61c3624eaa0941cd00260801c5b601082161561425f576fffcb9843d60f6159c9db58835c9266440260801c5b602082161561427e576fff973b41fa98c081472e6896dfb254c00260801c5b604082161561429d576fff2ea16466c96a3843ec78b326b528610260801c5b60808216156142bc576ffe5dee046a99a2a811c461f1969c30530260801c5b6101008216156142dc576ffcbe86c7900a88aedcffc83b479aa3a40260801c5b6102008216156142fc576ff987a7253ac413176f2b074cf7815e540260801c5b61040082161561431c576ff3392b0822b70005940c7a398e4b70f30260801c5b61080082161561433c576fe7159475a2c29b7443b29c7fa6e889d90260801c5b61100082161561435c576fd097f3bdfd2022b8845ad8f792aa58250260801c5b61200082161561437c576fa9f746462d870fdf8a65dc1f90e061e50260801c5b61400082161561439c576f70d869a156d2a1b890bb3df62baf32f70260801c5b6180008216156143bc576f31be135f97d08fd981231505542fcfa60260801c5b620100008216156143dd576f09aa508b5b7a84e1c677de54f3e99bc90260801c5b620200008216156143fd576e5d6af8dedb81196699c329225ee6040260801c5b6204000082106144435762040000821615614426576d2216e584f5fa1ea926041bedfe980260801c5b62080000821615614443576b048a170391f7dc42444e8fa20260801c5b60008560020b131561445457600019045b63ffffffff0160201c949350505050565b60008060008061566e8a61447b57614bf561447f565b614c045b9050600087126145575760006144ac888861ffff16620f42400362ffffff16620f424062ffffff166139db565b90506144bd8a8c8b8563ffffffff16565b94508481106144ea578995506144e38561ffff891662ffffff620f424082900316613919565b9250614530565b6144f68b8a838f614c13565b9550856001600160a01b03168a6001600160a01b0316036145195761451961576e565b614528868c8b8563ffffffff16565b945084880392505b61454f868c8b8f61454357614c2e614547565b614c3d5b63ffffffff16565b935050614629565b61566e8b61456757614c2e61456b565b614c3d5b905061457c8a8c8b8463ffffffff16565b935087600003975060008812156145a6576040516334cb3a0160e11b815260040160405180910390fd5b8388106145b5578995506145fa565b6145c18b8a8a8f614c4c565b9550856001600160a01b03168a6001600160a01b0316146145ee576145eb868c8b8463ffffffff16565b93505b878411156145fa578793505b614609868c8b8563ffffffff16565b94506146258561ffff891662ffffff620f424082900316613919565b9250505b509650965096509692505050565b8082038281131560008312151461117a57600080fd5b8181018281121560008312151461117a57600080fd5b60008215806146845750508181028183828161468157614681615758565b04145b61117a57600080fd5b60008082600f0b12156146e857508082016001600160801b03808416908216106146e3576040517f1301f74800000000000000000000000000000000000000000000000000000000815260040160405180910390fd5b61117a565b826001600160801b03168284019150816001600160801b0316101561117a576040517f997402f200000000000000000000000000000000000000000000000000000000815260040160405180910390fd5b60006040517fa9059cbb000000000000000000000000000000000000000000000000000000006000526001600160a01b03841660045282602452602060006044600080895af19150813d1560203d1460016000511416171691508060405250806131e0576040517fe465903e00000000000000000000000000000000000000000000000000000000815260040160405180910390fd5b806001600160801b0381168114613aed57600080fd5b600286900b6000908152602088905260408120805482614805828961468d565b6001600160801b031690506d09745258e83de0d0f4e400fce799811115614858576040517f25b8364a00000000000000000000000000000000000000000000000000000000815260040160405180910390fd5b6001830154600f0b8561487c5788600f0b81600f0b61487791906157fa565b61488e565b88600f0b81600f0b61488e91906158a5565b6001850180546fffffffffffffffffffffffffffffffff19166001600160801b03929092169190911790558184558115945060008390036148e957841594508960020b8b60020b136148e95760038401879055600284018890555b50505050979650505050505050565b600285810b60009081526020889052604080822087840b8084529183209293849391929088900b121561496e578860020b8760020b1261494957816002015486039350816003015485039250614958565b81600201549350816003015492505b6002810154600382015494039390920391614989565b81600201548160020154039350816003015481600301540392505b5050965096945050505050565b8354600f84900b6000036149c057806001600160801b03166000036149bb57506131e0565b6149d6565b6149ca818561468d565b6001600160801b031685555b600185015460028601546000858314614a0d5760018801869055614a0a8387036001600160801b038616600160801b6139db565b90505b6000858314614a3a5760028901869055614a378387036001600160801b038716600160801b6139db565b90505b6001600160801b038282171615614a8957600389018054600160801b6001600160801b03808316860181166fffffffffffffffffffffffffffffffff1990931683178290048116850116021790555b505050505050505050565b60085463010000008104600290810b919081900b90600160c81b900463ffffffff168282828915614ad557614acd8c898386868c614c5c565b919450925090505b8815614af157614ae98b898386868c614c5c565b919450925090505b8260020b8660020b141580614b0c57508160020b8560020b14155b80614b2357508363ffffffff168163ffffffff1614155b15614b7f576008805462ffffff80861663010000000265ffffffffffff1963ffffffff8616600160c81b02167fffffff00000000ffffffffffffffffffffffffffffffffffffff00000000000090931692909217908516171790555b505050505050505050505050565b60008082600f0b1215614bb557614bad611a028585856000036000614d51565b600003611991565b611991611a028585856001614d51565b60008082600f0b1215614be557614bad611a028585856000036000614dfe565b611991611a028585856001614dfe565b60006119918385846001614dfe565b60006119918484846001614d51565b6000614c23858585856001614e6f565b90505b949350505050565b60006119918385846000614d51565b60006119918484846000614dfe565b6000614c23858585856000614e6f565b60008060008315614ca657600080614c7560038c6150a0565b915091508a60020b8860020b03614c8e57819750614c9f565b8a60020b8760020b03614c9f578096505b5050614d2f565b6000808a60020b8860020b128015614cc357508a60020b8760020b135b15614cec57508690508560028a810b908c900b1315614ce4578a9650614d1f565b8a9750614d1f565b614cfa600760098b8e615234565b600281810b600090815260036020526040902060010154600160801b9004900b925090505b614d2c60038c84846152e9565b50505b6000614d3f600760098a8d615405565b969a9599509597509395505050505050565b60006001600160a01b0385850381169085168110614d6e57600080fd5b7bffffffffffffffffffffffffffffffff000000000000000000000000606085901b1683614dc757866001600160a01b0316614db48383896001600160a01b03166139db565b81614dc157614dc1615758565b04614df3565b614df3614dde8383896001600160a01b0316613919565b886001600160a01b0316808204910615150190565b979650505050505050565b6000846001600160a01b0316846001600160a01b03161015614e1f57600080fd5b6001600160a01b038585031682614e4d57614e4881856001600160801b0316600160601b6139db565b614e65565b614e6581856001600160801b0316600160601b613919565b9695505050505050565b6000856001600160a01b0316600003614e8757600080fd5b846001600160801b0316600003614e9d57600080fd5b83600003614eac575084615097565b81151583151503614fba577bffffffffffffffffffffffffffffffff000000000000000000000000606086901b168215614f68576001600160a01b03871685810290868281614efd57614efd615758565b0403614f2d57818101828110614f2b57614f21838a6001600160a01b031683613919565b9350505050615097565b505b614f5f82614f54888b6001600160a01b03168681614f4d57614f4d615758565b049061549d565b808204910615150190565b92505050615097565b6001600160a01b03871685810290868281614f8557614f85615758565b0414614f9057600080fd5b808211614f9c57600080fd5b614f5f614fb5838a6001600160a01b0316848603613919565b6154ad565b811561502757615020614fb56001600160a01b03861115614ff257614fed86600160601b896001600160801b03166139db565b615010565b6001600160801b038716606087901b8161500e5761500e615758565b045b6001600160a01b0389169061549d565b9050615097565b60006001600160a01b038511156150555761505085600160601b886001600160801b0316613919565b615072565b615072606086901b6001600160801b038816808204910615150190565b905080876001600160a01b03161161508957600080fd5b6001600160a01b0387160390505b95945050505050565b600281810b60008181526020859052604081206001810180548383557fffffffffffffffffffff000000000000000000000000000000000000000000008116909155818501839055600390910191909155600160801b8104830b92600160981b909104900b90620d89e7191480615128575061511f620d89e719615822565b60020b8360020b145b1561518e57600283900b6000908152602085905260409020600101805462ffffff808516600160801b0262ffffff60801b19918516600160981b029190911675ffffffffffff00000000000000000000000000000000199092169190911717905561522d565b8060020b8260020b036151cd576040517f0d6e094900000000000000000000000000000000000000000000000000000000815260040160405180910390fd5b600282810b6000908152602086905260408082206001908101805462ffffff808816600160981b0262ffffff60981b19909216919091179091559385900b83529120018054918416600160801b0262ffffff60801b199092169190911790555b9250929050565b600190810190600090600883811d610d8a01901c90829061ffff83161b851663ffffffff16156152975761526887856154c3565b9094509092509050801561527d575050614c26565b61528e86610d8b840160010b6154c3565b90945090925090505b806152da576152b58563ffffffff168360010193508360010b6154f4565b9093509050806152cd5750620d89e89150614c269050565b6152d78684615642565b92505b614df387610d89198501615642565b600283900b620d89e71914806153105750615307620d89e719615822565b60020b8360020b145b6131e0578260020b8260020b12801561532e57508260020b8160020b135b615364576040517fe45ac17d00000000000000000000000000000000000000000000000000000000815260040160405180910390fd5b600283810b600090815260209590955260408086206001908101805475ffffffffffff000000000000000000000000000000001916600160981b62ffffff878116820262ffffff60801b1990811693909317600160801b8a831681029190911790945597860b8a52848a208401805462ffffff60981b191698909916908102979097179097559390920b865290942090930180549092169202919091179055565b816000806154428785600881901d600181810b60009081526020949094526040909320805460ff9093169390931b80831890935591811490151891565b91509150811561549357610d8a01600181810b60081d80820b6000908152602089905260409020805460ff9094169290921b808418909255821591909214818118935014615493576001811b831892505b5050949350505050565b8082018281101561117a57600080fd5b806001600160a01b0381168114613aed57600080fd5b600881901d600181900b60009081526020849052604081205481906154e890856154f4565b93969095509293505050565b60008060ff831684811c808303615510578460ff179350615639565b7f555555555555555555555555555555555555555555555555555555555555555560008290038216908116156001600160801b0382161560071b1777ffffffffffffffff0000000000000000ffffffffffffffff82161560061b177bffffffff00000000ffffffff00000000ffffffff00000000ffffffff82161560051b177dffff0000ffff0000ffff0000ffff0000ffff0000ffff0000ffff0000ffff82161560041b177eff00ff00ff00ff00ff00ff00ff00ff00ff00ff00ff00ff00ff00ff00ff00ff82161560031b177f0f0f0f0f0f0f0f0f0f0f0f0f0f0f0f0f0f0f0f0f0f0f0f0f0f0f0f0f0f0f0f0f82161560021b177f33333333333333333333333333333333333333333333333333333333333333339091161560011b1760ff1685019350600192505b50509250929050565b600181900b600090815260208390526040902054600882901b9061566690826154f4565b509392505050565b61335c6158c5565b634e487b7160e01b600052601160045260246000fd5b8082018082111561117a5761117a615676565b600081600f0b7fffffffffffffffffffffffffffffffff8000000000000000000000000000000081036156d4576156d4615676565b60000392915050565b6001600160801b038181168382160190808211156156fd576156fd615676565b5092915050565b602081016003831061572657634e487b7160e01b600052602160045260246000fd5b91905290565b60006020828403121561573e57600080fd5b5051919050565b8181038181111561117a5761117a615676565b634e487b7160e01b600052601260045260246000fd5b634e487b7160e01b600052600160045260246000fd5b805161ffff81168114613aed57600080fd5b6000602082840312156157a857600080fd5b61117782615784565b81835281816020850137506000828201602090810191909152601f909101601f19169091010190565b848152836020820152606060408201526000614e656060830184866157b1565b808201828112600083128015821682158216171561581a5761581a615676565b505092915050565b60008160020b627fffff1981036156d4576156d4615676565b6000806000806080858703121561585157600080fd5b61585a85615784565b935060208501518060020b811461587057600080fd5b925061587e60408601615784565b915060608501516001600160a01b038116811461589a57600080fd5b939692955090935050565b81810360008312801583831316838312821617156156fd576156fd615676565b634e487b7160e01b600052605160045260246000fdfea164736f6c6343000814000aa164736f6c6343000814000a",
  "linkReferences": {},
  "deployedLinkReferences": {}
}