{
  "_format": "hh-sol-artifact-1",
  "contractName": "AlgebraFactory",
  "sourceName": "contracts/AlgebraFactory.sol",
  "abi": [
    {
      "inputs": [
        {
          "internalType": "address",
          "name": "_blastGovernor",
          "type": "address"
        },
        {
          "internalType": "address",
          "name": "_blastPoints",
          "type": "address"
        },
        {
          "internalType": "address",
          "name": "_blastPointsOperaotor",
          "type": "address"
        },
        {
          "internalType": "address",
          "name": "_poolDeployer",
          "type": "address"
        }
      ],
      "stateMutability": "nonpayable",
      "type": "constructor"
    },
    {
      "inputs": [],
      "name": "AddressZero",
      "type": "error"
    },
    {
      "anonymous": false,
      "inputs": [
        {
          "indexed": false,
          "internalType": "address",
          "name": "token",
          "type": "address"
        },
        {
          "indexed": false,
          "internalType": "bool",
          "name": "isRebase",
          "type": "bool"
        },
        {
          "indexed": false,
          "internalType": "enum YieldMode",
          "name": "mode",
          "type": "uint8"
        }
      ],
      "name": "ConfigurationForRebaseToken",
      "type": "event"
    },
    {
      "anonymous": false,
      "inputs": [
        {
          "indexed": true,
          "internalType": "address",
          "name": "defaultBlastGovernor",
          "type": "address"
        }
      ],
      "name": "DefaultBlastGovernor",
      "type": "event"
    },
    {
      "anonymous": false,
      "inputs": [
        {
          "indexed": true,
          "internalType": "address",
          "name": "defaultBlastPoints",
          "type": "address"
        }
      ],
      "name": "DefaultBlastPoints",
      "type": "event"
    },
    {
      "anonymous": false,
      "inputs": [
        {
          "indexed": true,
          "internalType": "address",
          "name": "defaultBlastPointsOperator",
          "type": "address"
        }
      ],
      "name": "DefaultBlastPointsOperator",
      "type": "event"
    },
    {
      "anonymous": false,
      "inputs": [
        {
          "indexed": false,
          "internalType": "uint16",
          "name": "newDefaultCommunityFee",
          "type": "uint16"
        }
      ],
      "name": "DefaultCommunityFee",
      "type": "event"
    },
    {
      "anonymous": false,
      "inputs": [
        {
          "indexed": false,
          "internalType": "uint16",
          "name": "newDefaultFee",
          "type": "uint16"
        }
      ],
      "name": "DefaultFee",
      "type": "event"
    },
    {
      "anonymous": false,
      "inputs": [
        {
          "indexed": false,
          "internalType": "address",
          "name": "defaultPluginFactoryAddress",
          "type": "address"
        }
      ],
      "name": "DefaultPluginFactory",
      "type": "event"
    },
    {
      "anonymous": false,
      "inputs": [
        {
          "indexed": false,
          "internalType": "int24",
          "name": "newDefaultTickspacing",
          "type": "int24"
        }
      ],
      "name": "DefaultTickspacing",
      "type": "event"
    },
    {
      "anonymous": false,
      "inputs": [
        {
          "indexed": true,
          "internalType": "address",
          "name": "previousOwner",
          "type": "address"
        },
        {
          "indexed": true,
          "internalType": "address",
          "name": "newOwner",
          "type": "address"
        }
      ],
      "name": "OwnershipTransferStarted",
      "type": "event"
    },
    {
      "anonymous": false,
      "inputs": [
        {
          "indexed": true,
          "internalType": "address",
          "name": "previousOwner",
          "type": "address"
        },
        {
          "indexed": true,
          "internalType": "address",
          "name": "newOwner",
          "type": "address"
        }
      ],
      "name": "OwnershipTransferred",
      "type": "event"
    },
    {
      "anonymous": false,
      "inputs": [
        {
          "indexed": true,
          "internalType": "address",
          "name": "token0",
          "type": "address"
        },
        {
          "indexed": true,
          "internalType": "address",
          "name": "token1",
          "type": "address"
        },
        {
          "indexed": false,
          "internalType": "address",
          "name": "pool",
          "type": "address"
        }
      ],
      "name": "Pool",
      "type": "event"
    },
    {
      "anonymous": false,
      "inputs": [
        {
          "indexed": false,
          "internalType": "bool",
          "name": "mode_",
          "type": "bool"
        }
      ],
      "name": "PublicPoolCreationMode",
      "type": "event"
    },
    {
      "anonymous": false,
      "inputs": [
        {
          "indexed": false,
          "internalType": "uint256",
          "name": "timestamp",
          "type": "uint256"
        }
      ],
      "name": "RenounceOwnershipFinish",
      "type": "event"
    },
    {
      "anonymous": false,
      "inputs": [
        {
          "indexed": false,
          "internalType": "uint256",
          "name": "timestamp",
          "type": "uint256"
        },
        {
          "indexed": false,
          "internalType": "uint256",
          "name": "finishTimestamp",
          "type": "uint256"
        }
      ],
      "name": "RenounceOwnershipStart",
      "type": "event"
    },
    {
      "anonymous": false,
      "inputs": [
        {
          "indexed": false,
          "internalType": "uint256",
          "name": "timestamp",
          "type": "uint256"
        }
      ],
      "name": "RenounceOwnershipStop",
      "type": "event"
    },
    {
      "anonymous": false,
      "inputs": [
        {
          "indexed": true,
          "internalType": "bytes32",
          "name": "role",
          "type": "bytes32"
        },
        {
          "indexed": true,
          "internalType": "bytes32",
          "name": "previousAdminRole",
          "type": "bytes32"
        },
        {
          "indexed": true,
          "internalType": "bytes32",
          "name": "newAdminRole",
          "type": "bytes32"
        }
      ],
      "name": "RoleAdminChanged",
      "type": "event"
    },
    {
      "anonymous": false,
      "inputs": [
        {
          "indexed": true,
          "internalType": "bytes32",
          "name": "role",
          "type": "bytes32"
        },
        {
          "indexed": true,
          "internalType": "address",
          "name": "account",
          "type": "address"
        },
        {
          "indexed": true,
          "internalType": "address",
          "name": "sender",
          "type": "address"
        }
      ],
      "name": "RoleGranted",
      "type": "event"
    },
    {
      "anonymous": false,
      "inputs": [
        {
          "indexed": true,
          "internalType": "bytes32",
          "name": "role",
          "type": "bytes32"
        },
        {
          "indexed": true,
          "internalType": "address",
          "name": "account",
          "type": "address"
        },
        {
          "indexed": true,
          "internalType": "address",
          "name": "sender",
          "type": "address"
        }
      ],
      "name": "RoleRevoked",
      "type": "event"
    },
    {
      "anonymous": false,
      "inputs": [
        {
          "indexed": false,
          "internalType": "address",
          "name": "newVaultFactory",
          "type": "address"
        }
      ],
      "name": "VaultFactory",
      "type": "event"
    },
    {
      "inputs": [],
      "name": "DEFAULT_ADMIN_ROLE",
      "outputs": [
        {
          "internalType": "bytes32",
          "name": "",
          "type": "bytes32"
        }
      ],
      "stateMutability": "view",
      "type": "function"
    },
    {
      "inputs": [],
      "name": "POOLS_ADMINISTRATOR_ROLE",
      "outputs": [
        {
          "internalType": "bytes32",
          "name": "",
          "type": "bytes32"
        }
      ],
      "stateMutability": "view",
      "type": "function"
    },
    {
      "inputs": [],
      "name": "POOLS_CREATOR_ROLE",
      "outputs": [
        {
          "internalType": "bytes32",
          "name": "",
          "type": "bytes32"
        }
      ],
      "stateMutability": "view",
      "type": "function"
    },
    {
      "inputs": [],
      "name": "POOL_INIT_CODE_HASH",
      "outputs": [
        {
          "internalType": "bytes32",
          "name": "",
          "type": "bytes32"
        }
      ],
      "stateMutability": "view",
      "type": "function"
    },
    {
      "inputs": [],
      "name": "acceptOwnership",
      "outputs": [],
      "stateMutability": "nonpayable",
      "type": "function"
    },
    {
      "inputs": [
        {
          "internalType": "address",
          "name": "token0",
          "type": "address"
        },
        {
          "internalType": "address",
          "name": "token1",
          "type": "address"
        }
      ],
      "name": "computePoolAddress",
      "outputs": [
        {
          "internalType": "address",
          "name": "pool",
          "type": "address"
        }
      ],
      "stateMutability": "view",
      "type": "function"
    },
    {
      "inputs": [
        {
          "internalType": "address",
          "name": "",
          "type": "address"
        }
      ],
      "name": "configurationForBlastRebaseTokens",
      "outputs": [
        {
          "internalType": "enum YieldMode",
          "name": "",
          "type": "uint8"
        }
      ],
      "stateMutability": "view",
      "type": "function"
    },
    {
      "inputs": [
        {
          "internalType": "address",
          "name": "tokenA",
          "type": "address"
        },
        {
          "internalType": "address",
          "name": "tokenB",
          "type": "address"
        }
      ],
      "name": "createPool",
      "outputs": [
        {
          "internalType": "address",
          "name": "pool",
          "type": "address"
        }
      ],
      "stateMutability": "nonpayable",
      "type": "function"
    },
    {
      "inputs": [],
      "name": "defaultBlastGovernor",
      "outputs": [
        {
          "internalType": "address",
          "name": "",
          "type": "address"
        }
      ],
      "stateMutability": "view",
      "type": "function"
    },
    {
      "inputs": [],
      "name": "defaultBlastPoints",
      "outputs": [
        {
          "internalType": "address",
          "name": "",
          "type": "address"
        }
      ],
      "stateMutability": "view",
      "type": "function"
    },
    {
      "inputs": [],
      "name": "defaultBlastPointsOperator",
      "outputs": [
        {
          "internalType": "address",
          "name": "",
          "type": "address"
        }
      ],
      "stateMutability": "view",
      "type": "function"
    },
    {
      "inputs": [],
      "name": "defaultCommunityFee",
      "outputs": [
        {
          "internalType": "uint16",
          "name": "",
          "type": "uint16"
        }
      ],
      "stateMutability": "view",
      "type": "function"
    },
    {
      "inputs": [
        {
          "internalType": "address",
          "name": "pool",
          "type": "address"
        }
      ],
      "name": "defaultConfigurationForPool",
      "outputs": [
        {
          "internalType": "uint16",
          "name": "communityFee",
          "type": "uint16"
        },
        {
          "internalType": "int24",
          "name": "tickSpacing",
          "type": "int24"
        },
        {
          "internalType": "uint16",
          "name": "fee",
          "type": "uint16"
        },
        {
          "internalType": "address",
          "name": "communityVault",
          "type": "address"
        }
      ],
      "stateMutability": "view",
      "type": "function"
    },
    {
      "inputs": [],
      "name": "defaultFee",
      "outputs": [
        {
          "internalType": "uint16",
          "name": "",
          "type": "uint16"
        }
      ],
      "stateMutability": "view",
      "type": "function"
    },
    {
      "inputs": [],
      "name": "defaultPluginFactory",
      "outputs": [
        {
          "internalType": "contract IAlgebraPluginFactory",
          "name": "",
          "type": "address"
        }
      ],
      "stateMutability": "view",
      "type": "function"
    },
    {
      "inputs": [],
      "name": "defaultTickspacing",
      "outputs": [
        {
          "internalType": "int24",
          "name": "",
          "type": "int24"
        }
      ],
      "stateMutability": "view",
      "type": "function"
    },
    {
      "inputs": [
        {
          "internalType": "bytes32",
          "name": "role",
          "type": "bytes32"
        }
      ],
      "name": "getRoleAdmin",
      "outputs": [
        {
          "internalType": "bytes32",
          "name": "",
          "type": "bytes32"
        }
      ],
      "stateMutability": "view",
      "type": "function"
    },
    {
      "inputs": [
        {
          "internalType": "bytes32",
          "name": "role",
          "type": "bytes32"
        },
        {
          "internalType": "uint256",
          "name": "index",
          "type": "uint256"
        }
      ],
      "name": "getRoleMember",
      "outputs": [
        {
          "internalType": "address",
          "name": "",
          "type": "address"
        }
      ],
      "stateMutability": "view",
      "type": "function"
    },
    {
      "inputs": [
        {
          "internalType": "bytes32",
          "name": "role",
          "type": "bytes32"
        }
      ],
      "name": "getRoleMemberCount",
      "outputs": [
        {
          "internalType": "uint256",
          "name": "",
          "type": "uint256"
        }
      ],
      "stateMutability": "view",
      "type": "function"
    },
    {
      "inputs": [
        {
          "internalType": "bytes32",
          "name": "role",
          "type": "bytes32"
        },
        {
          "internalType": "address",
          "name": "account",
          "type": "address"
        }
      ],
      "name": "grantRole",
      "outputs": [],
      "stateMutability": "nonpayable",
      "type": "function"
    },
    {
      "inputs": [
        {
          "internalType": "bytes32",
          "name": "role",
          "type": "bytes32"
        },
        {
          "internalType": "address",
          "name": "account",
          "type": "address"
        }
      ],
      "name": "hasRole",
      "outputs": [
        {
          "internalType": "bool",
          "name": "",
          "type": "bool"
        }
      ],
      "stateMutability": "view",
      "type": "function"
    },
    {
      "inputs": [
        {
          "internalType": "bytes32",
          "name": "role",
          "type": "bytes32"
        },
        {
          "internalType": "address",
          "name": "account",
          "type": "address"
        }
      ],
      "name": "hasRoleOrOwner",
      "outputs": [
        {
          "internalType": "bool",
          "name": "",
          "type": "bool"
        }
      ],
      "stateMutability": "view",
      "type": "function"
    },
    {
      "inputs": [],
      "name": "isPublicPoolCreationMode",
      "outputs": [
        {
          "internalType": "bool",
          "name": "",
          "type": "bool"
        }
      ],
      "stateMutability": "view",
      "type": "function"
    },
    {
      "inputs": [
        {
          "internalType": "address",
          "name": "",
          "type": "address"
        }
      ],
      "name": "isRebaseToken",
      "outputs": [
        {
          "internalType": "bool",
          "name": "",
          "type": "bool"
        }
      ],
      "stateMutability": "view",
      "type": "function"
    },
    {
      "inputs": [],
      "name": "owner",
      "outputs": [
        {
          "internalType": "address",
          "name": "",
          "type": "address"
        }
      ],
      "stateMutability": "view",
      "type": "function"
    },
    {
      "inputs": [],
      "name": "pendingOwner",
      "outputs": [
        {
          "internalType": "address",
          "name": "",
          "type": "address"
        }
      ],
      "stateMutability": "view",
      "type": "function"
    },
    {
      "inputs": [
        {
          "internalType": "address",
          "name": "",
          "type": "address"
        },
        {
          "internalType": "address",
          "name": "",
          "type": "address"
        }
      ],
      "name": "poolByPair",
      "outputs": [
        {
          "internalType": "address",
          "name": "",
          "type": "address"
        }
      ],
      "stateMutability": "view",
      "type": "function"
    },
    {
      "inputs": [],
      "name": "poolDeployer",
      "outputs": [
        {
          "internalType": "address",
          "name": "",
          "type": "address"
        }
      ],
      "stateMutability": "view",
      "type": "function"
    },
    {
      "inputs": [],
      "name": "renounceOwnership",
      "outputs": [],
      "stateMutability": "nonpayable",
      "type": "function"
    },
    {
      "inputs": [],
      "name": "renounceOwnershipStartTimestamp",
      "outputs": [
        {
          "internalType": "uint256",
          "name": "",
          "type": "uint256"
        }
      ],
      "stateMutability": "view",
      "type": "function"
    },
    {
      "inputs": [
        {
          "internalType": "bytes32",
          "name": "role",
          "type": "bytes32"
        },
        {
          "internalType": "address",
          "name": "account",
          "type": "address"
        }
      ],
      "name": "renounceRole",
      "outputs": [],
      "stateMutability": "nonpayable",
      "type": "function"
    },
    {
      "inputs": [
        {
          "internalType": "bytes32",
          "name": "role",
          "type": "bytes32"
        },
        {
          "internalType": "address",
          "name": "account",
          "type": "address"
        }
      ],
      "name": "revokeRole",
      "outputs": [],
      "stateMutability": "nonpayable",
      "type": "function"
    },
    {
      "inputs": [
        {
          "internalType": "address",
          "name": "token_",
          "type": "address"
        },
        {
          "internalType": "bool",
          "name": "isRebase_",
          "type": "bool"
        },
        {
          "internalType": "enum YieldMode",
          "name": "mode_",
          "type": "uint8"
        }
      ],
      "name": "setConfigurationForRebaseToken",
      "outputs": [],
      "stateMutability": "nonpayable",
      "type": "function"
    },
    {
      "inputs": [
        {
          "internalType": "address",
          "name": "defaultBlastGovernor_",
          "type": "address"
        }
      ],
      "name": "setDefaultBlastGovernor",
      "outputs": [],
      "stateMutability": "nonpayable",
      "type": "function"
    },
    {
      "inputs": [
        {
          "internalType": "address",
          "name": "defaultBlastPoints_",
          "type": "address"
        }
      ],
      "name": "setDefaultBlastPoints",
      "outputs": [],
      "stateMutability": "nonpayable",
      "type": "function"
    },
    {
      "inputs": [
        {
          "internalType": "address",
          "name": "defaultBlastPointsOperator_",
          "type": "address"
        }
      ],
      "name": "setDefaultBlastPointsOperator",
      "outputs": [],
      "stateMutability": "nonpayable",
      "type": "function"
    },
    {
      "inputs": [
        {
          "internalType": "uint16",
          "name": "newDefaultCommunityFee",
          "type": "uint16"
        }
      ],
      "name": "setDefaultCommunityFee",
      "outputs": [],
      "stateMutability": "nonpayable",
      "type": "function"
    },
    {
      "inputs": [
        {
          "internalType": "uint16",
          "name": "newDefaultFee",
          "type": "uint16"
        }
      ],
      "name": "setDefaultFee",
      "outputs": [],
      "stateMutability": "nonpayable",
      "type": "function"
    },
    {
      "inputs": [
        {
          "internalType": "address",
          "name": "newDefaultPluginFactory",
          "type": "address"
        }
      ],
      "name": "setDefaultPluginFactory",
      "outputs": [],
      "stateMutability": "nonpayable",
      "type": "function"
    },
    {
      "inputs": [
        {
          "internalType": "int24",
          "name": "newDefaultTickspacing",
          "type": "int24"
        }
      ],
      "name": "setDefaultTickspacing",
      "outputs": [],
      "stateMutability": "nonpayable",
      "type": "function"
    },
    {
      "inputs": [
        {
          "internalType": "bool",
          "name": "mode_",
          "type": "bool"
        }
      ],
      "name": "setIsPublicPoolCreationMode",
      "outputs": [],
      "stateMutability": "nonpayable",
      "type": "function"
    },
    {
      "inputs": [
        {
          "internalType": "address",
          "name": "newVaultFactory",
          "type": "address"
        }
      ],
      "name": "setVaultFactory",
      "outputs": [],
      "stateMutability": "nonpayable",
      "type": "function"
    },
    {
      "inputs": [],
      "name": "startRenounceOwnership",
      "outputs": [],
      "stateMutability": "nonpayable",
      "type": "function"
    },
    {
      "inputs": [],
      "name": "stopRenounceOwnership",
      "outputs": [],
      "stateMutability": "nonpayable",
      "type": "function"
    },
    {
      "inputs": [
        {
          "internalType": "bytes4",
          "name": "interfaceId",
          "type": "bytes4"
        }
      ],
      "name": "supportsInterface",
      "outputs": [
        {
          "internalType": "bool",
          "name": "",
          "type": "bool"
        }
      ],
      "stateMutability": "view",
      "type": "function"
    },
    {
      "inputs": [
        {
          "internalType": "address",
          "name": "newOwner",
          "type": "address"
        }
      ],
      "name": "transferOwnership",
      "outputs": [],
      "stateMutability": "nonpayable",
      "type": "function"
    },
    {
      "inputs": [],
      "name": "vaultFactory",
      "outputs": [
        {
          "internalType": "contract IAlgebraVaultFactory",
          "name": "",
          "type": "address"
        }
      ],
      "stateMutability": "view",
      "type": "function"
    }
  ],
  "bytecode": "0x60a06040523480156200001157600080fd5b50604051620032ef380380620032ef833981016040819052620000349162000626565b6200003f336200019f565b6001600160a01b0381166200005357600080fd5b6001600160a01b0383166200006757600080fd5b6001600160a01b0382166200007b57600080fd5b6200008684620001fd565b600480546001600160a01b03199081166001600160a01b038781169190911790925560058054909116858316179055600680548383166080529184167fffffffff000000ffffffffff000000000000000000000000000000000000000090921691909117600f60ca1b1761ffff60b81b1916607d60ba1b1790556200012c7fa7106ea771a74f2d048c62cace8c00d3e120b24b61327e6415035f60d47ce8883362000297565b604051603c81527f7d7979096f943139ebee59f01c077a0f0766d06c40c86d596f23ed2561547cce9060200160405180910390a16040516101f481527fddc0c6f0b581e0d51bfe90ff138e4a548f94515c4dbcb12f5e98fdf0f75039839060200160405180910390a150505050620006d1565b620001be6000620001b86000546001600160a01b031690565b620002c2565b620001c981620002e8565b6000546001600160a01b031615620001fa57620001fa6000620001f46000546001600160a01b031690565b62000297565b50565b6001600160a01b0381166200022557604051639fabe1c160e01b815260040160405180910390fd5b604051631d70c8d360e31b81526001600160a01b03821660048201527343000000000000000000000000000000000000029063eb86469890602401600060405180830381600087803b1580156200027b57600080fd5b505af115801562000290573d6000803e3d6000fd5b5050505050565b620002a3828262000303565b6000828152600360205260409020620002bd9082620003a8565b505050565b620002ce8282620003c8565b6000828152600360205260409020620002bd90826200044c565b600180546001600160a01b0319169055620001fa8162000463565b60008281526002602090815260408083206001600160a01b038516845290915290205460ff16620003a45760008281526002602090815260408083206001600160a01b03851684529091529020805460ff19166001179055620003633390565b6001600160a01b0316816001600160a01b0316837f2f8788117e7eff1d82e926ec794901d17c78024a50270940304540a733656f0d60405160405180910390a45b5050565b6000620003bf836001600160a01b038416620004b3565b90505b92915050565b60008281526002602090815260408083206001600160a01b038516845290915290205460ff1615620003a45760008281526002602090815260408083206001600160a01b0385168085529252808320805460ff1916905551339285917ff6391f5c32d9c69d2a47ea670b442974b53935d1edc7fd64eb21e047a839171b9190a45050565b6000620003bf836001600160a01b03841662000505565b600080546001600160a01b038381166001600160a01b0319831681178455604051919092169283917f8be0079c531659141344cd1fd0a4f28419497f9722a3daafe3b4186f6b6457e09190a35050565b6000818152600183016020526040812054620004fc57508154600181810184556000848152602080822090930184905584548482528286019093526040902091909155620003c2565b506000620003c2565b60008181526001830160205260408120548015620005fe5760006200052c60018362000683565b8554909150600090620005429060019062000683565b9050818114620005ae576000866000018281548110620005665762000566620006a5565b90600052602060002001549050808760000184815481106200058c576200058c620006a5565b6000918252602080832090910192909255918252600188019052604090208390555b8554869080620005c257620005c2620006bb565b600190038181906000526020600020016000905590558560010160008681526020019081526020016000206000905560019350505050620003c2565b6000915050620003c2565b80516001600160a01b03811681146200062157600080fd5b919050565b600080600080608085870312156200063d57600080fd5b620006488562000609565b9350620006586020860162000609565b9250620006686040860162000609565b9150620006786060860162000609565b905092959194509250565b81810381811115620003c257634e487b7160e01b600052601160045260246000fd5b634e487b7160e01b600052603260045260246000fd5b634e487b7160e01b600052603160045260246000fd5b608051612bf4620006fb60003960008181610428015281816112fd01526116df0152612bf46000f3fe608060405234801561001057600080fd5b50600436106103155760003560e01c80638d5a8711116101a7578063d547741f116100ee578063e343361511610097578063f09489ac11610071578063f09489ac1461085c578063f2fde38b1461086f578063fb6cd2761461088257600080fd5b8063e343361514610823578063e72b63de14610836578063e8ae2b691461084957600080fd5b8063d9a641e1116100c8578063d9a641e11461079d578063dc6fd8ab146107de578063e30c39781461080557600080fd5b8063d547741f14610757578063d8a06f731461076a578063d8ed22411461078a57600080fd5b8063a6df1ec911610150578063ca15c8731161012a578063ca15c873146106f4578063d0ad279214610707578063d1dc415e1461072757600080fd5b8063a6df1ec91461068a578063b500a48b146106aa578063c073b7a5146106d157600080fd5b806391d148541161018157806391d1485414610629578063998709e01461066f578063a217fddf1461068257600080fd5b80638d5a8711146105e55780638da5cb5b146105f85780639010d07c1461061657600080fd5b80633821a08a1161026b57806363d212731161021457806377326584116101ee578063773265841461057357806379ba50971461058657806382b13d8d1461058e57600080fd5b806363d212731461051f5780636e1433dc14610544578063715018a61461056b57600080fd5b80635a6c72d0116102455780635a6c72d0146104d05780635d2493ab146104f95780635f67e7bc1461050c57600080fd5b80633821a08a146104a25780633ea7fbdb146104b5578063469388c4146104c857600080fd5b806329bc3446116102cd5780633119049a116102a75780633119049a1461042357806332cf1b011461046f57806336568abe1461048f57600080fd5b806329bc3446146103995780632f2ff15d146103d65780632f8a39dd146103e957600080fd5b8063238a1d74116102fe578063238a1d7414610359578063248a9ca3146103635780632939dd971461038657600080fd5b806301ffc9a71461031a578063084bfff914610342575b600080fd5b61032d6103283660046126d3565b6108a2565b60405190151581526020015b60405180910390f35b61034b60075481565b604051908152602001610339565b6103616108fe565b005b61034b610371366004612715565b60009081526002602052604090206001015490565b610361610394366004612750565b610950565b6006546103c390790100000000000000000000000000000000000000000000000000900460020b81565b60405160029190910b8152602001610339565b6103616103e436600461276d565b6109fa565b600654610410907501000000000000000000000000000000000000000000900461ffff1681565b60405161ffff9091168152602001610339565b61044a7f000000000000000000000000000000000000000000000000000000000000000081565b60405173ffffffffffffffffffffffffffffffffffffffff9091168152602001610339565b60065461044a9073ffffffffffffffffffffffffffffffffffffffff1681565b61036161049d36600461276d565b610a24565b6103616104b03660046127b2565b610adc565b6103616104c3366004612750565b610b9f565b610361610c87565b6006546104109077010000000000000000000000000000000000000000000000900461ffff1681565b6103616105073660046127ff565b610ce6565b61036161051a366004612750565b610d67565b60065461032d9074010000000000000000000000000000000000000000900460ff1681565b61034b7fa7106ea771a74f2d048c62cace8c00d3e120b24b61327e6415035f60d47ce88881565b610361610dfe565b61036161058136600461281a565b610e6f565b610361610f38565b6105a161059c366004612750565b610fed565b6040805161ffff958616815260029490940b6020850152919093169082015273ffffffffffffffffffffffffffffffffffffffff9091166060820152608001610339565b6103616105f336600461281a565b611116565b60005473ffffffffffffffffffffffffffffffffffffffff1661044a565b61044a61062436600461283e565b611207565b61032d61063736600461276d565b600091825260026020908152604080842073ffffffffffffffffffffffffffffffffffffffff93909316845291905290205460ff1690565b61036161067d366004612750565b611226565b61034b600081565b60055461044a9073ffffffffffffffffffffffffffffffffffffffff1681565b61034b7fb73ce166ead2f8e9add217713a7989e4edfba9625f71dfd2516204bb67ad344281565b61032d6106df366004612750565b600c6020526000908152604090205460ff1681565b61034b610702366004612715565b6112bd565b60085461044a9073ffffffffffffffffffffffffffffffffffffffff1681565b61074a610735366004612750565b600b6020526000908152604090205460ff1681565b60405161033991906128ca565b61036161076536600461276d565b6112d4565b60095461044a9073ffffffffffffffffffffffffffffffffffffffff1681565b61044a6107983660046128d8565b6112f9565b61044a6107ab3660046128d8565b600a60209081526000928352604080842090915290825290205473ffffffffffffffffffffffffffffffffffffffff1681565b61034b7fcad5f96e8f697c706e90420ae40cf6d0ca754d0b5af05b084f46a03ad1f0d49681565b60015473ffffffffffffffffffffffffffffffffffffffff1661044a565b61044a6108313660046128d8565b611452565b610361610844366004612750565b611afb565b61032d61085736600461276d565b611b92565b61036161086a366004612906565b611c1f565b61036161087d366004612750565b611cfe565b60045461044a9073ffffffffffffffffffffffffffffffffffffffff1681565b60007fffffffff0000000000000000000000000000000000000000000000000000000082167f5a05180f0000000000000000000000000000000000000000000000000000000014806108f857506108f882611dad565b92915050565b610906611e44565b60075460000361091557600080fd5b60006007556040514281527fa2492902a0a1d28dc73e6ab22e473239ef077bb7bc8174dc7dab9fc0818e7135906020015b60405180910390a1565b610958611e44565b60085473ffffffffffffffffffffffffffffffffffffffff9081169082160361098057600080fd5b600880547fffffffffffffffffffffffff00000000000000000000000000000000000000001673ffffffffffffffffffffffffffffffffffffffff83169081179091556040519081527f5e38e259ec1f8a38b98fc65a27e266bb9cc87c76eb8c96c957450d1cff4591ef906020015b60405180910390a150565b600082815260026020526040902060010154610a1581611ec7565b610a1f8383611ed1565b505050565b73ffffffffffffffffffffffffffffffffffffffff81163314610ace576040517f08c379a000000000000000000000000000000000000000000000000000000000815260206004820152602f60248201527f416363657373436f6e74726f6c3a2063616e206f6e6c792072656e6f756e636560448201527f20726f6c657320666f722073656c66000000000000000000000000000000000060648201526084015b60405180910390fd5b610ad88282611ef3565b5050565b610ae4611e44565b73ffffffffffffffffffffffffffffffffffffffff83166000908152600c6020908152604080832080548615157fffffffffffffffffffffffffffffffffffffffffffffffffffffffffffffff0091821617909155600b90925290912080548392166001836002811115610b5a57610b5a612860565b02179055507fc244cc4619d68855ca697d0fe5d61c1b111eba4fa67ce88213543a8f32fb826b838383604051610b9293929190612929565b60405180910390a1505050565b610ba7611e44565b60095473ffffffffffffffffffffffffffffffffffffffff90811690821603610bcf57600080fd5b73ffffffffffffffffffffffffffffffffffffffff8116610c14576006547501000000000000000000000000000000000000000000900461ffff1615610c1457600080fd5b600980547fffffffffffffffffffffffff00000000000000000000000000000000000000001673ffffffffffffffffffffffffffffffffffffffff83169081179091556040519081527fa006ea05a14783821b0248e75d2342cd1681b07509e10a0f08487b080c29dea8906020016109ef565b610c8f611e44565b60075415610c9c57600080fd5b4260078190557fcd60f5d54996130c21c3f063279b39230bcbafc12f763a1ac1dfaec2e9b61d2990610cd16201518082612992565b60408051928352602083019190915201610946565b610cee611e44565b6006805482151574010000000000000000000000000000000000000000027fffffffffffffffffffffff00ffffffffffffffffffffffffffffffffffffffff9091161790556040517f13774274833ad11ec849e7f7be5ebc1359269e40abfe1eda7b7ca06c31979cc3906109ef90831515815260200190565b610d6f611e44565b73ffffffffffffffffffffffffffffffffffffffff8116610d8f57600080fd5b600580547fffffffffffffffffffffffff00000000000000000000000000000000000000001673ffffffffffffffffffffffffffffffffffffffff83169081179091556040517f5c8d06d98ca8b113607c6acf634d1fc8a835566b483210b1699b2205ca301c3e90600090a250565b610e06611e44565b600754600003610e1557600080fd5b6201518060075442610e2791906129a5565b1015610e3257600080fd5b6000600755610e3f611f15565b6040514281527fa24203c457ce43a097fa0c491fc9cf5e0a893af87a5e0a9785f29491deb11e2390602001610946565b610e77611e44565b61c35061ffff82161115610e8a57600080fd5b60065461ffff808316770100000000000000000000000000000000000000000000009092041603610eba57600080fd5b600680547fffffffffffffff0000ffffffffffffffffffffffffffffffffffffffffffffff167701000000000000000000000000000000000000000000000061ffff8416908102919091179091556040519081527fddc0c6f0b581e0d51bfe90ff138e4a548f94515c4dbcb12f5e98fdf0f7503983906020016109ef565b600154339073ffffffffffffffffffffffffffffffffffffffff168114610fe1576040517f08c379a000000000000000000000000000000000000000000000000000000000815260206004820152602960248201527f4f776e61626c6532537465703a2063616c6c6572206973206e6f74207468652060448201527f6e6577206f776e657200000000000000000000000000000000000000000000006064820152608401610ac5565b610fea81611f23565b50565b60095460009081908190819073ffffffffffffffffffffffffffffffffffffffff16156110ab576009546040517f7570e38900000000000000000000000000000000000000000000000000000000815273ffffffffffffffffffffffffffffffffffffffff878116600483015290911690637570e38990602401602060405180830381865afa158015611084573d6000803e3d6000fd5b505050506040513d601f19601f820116820180604052508101906110a891906129b8565b90505b60065461ffff7501000000000000000000000000000000000000000000820481169550790100000000000000000000000000000000000000000000000000820460020b9450770100000000000000000000000000000000000000000000009091041691509193509193565b61111e611e44565b6103e861ffff8216111561113157600080fd5b60065461ffff8083167501000000000000000000000000000000000000000000909204160361115f57600080fd5b61ffff81161561118b5760095473ffffffffffffffffffffffffffffffffffffffff1661118b57600080fd5b600680547fffffffffffffffffff0000ffffffffffffffffffffffffffffffffffffffffff16750100000000000000000000000000000000000000000061ffff8416908102919091179091556040519081527f6b5c342391f543846fce47a925e7eba910f7bec232b08633308ca93fdd0fdf0d906020016109ef565b600082815260036020526040812061121f9083611f9c565b9392505050565b61122e611e44565b73ffffffffffffffffffffffffffffffffffffffff811661124e57600080fd5b600480547fffffffffffffffffffffffff00000000000000000000000000000000000000001673ffffffffffffffffffffffffffffffffffffffff83169081179091556040517f7abdc4975133587e2e798bf8ada0f6b11ae12688d0dac360555ca2e931ba9ced90600090a250565b60008181526003602052604081206108f890611fa8565b6000828152600260205260409020600101546112ef81611ec7565b610a1f8383611ef3565b60007f0000000000000000000000000000000000000000000000000000000000000000838360405160200161135192919073ffffffffffffffffffffffffffffffffffffffff92831681529116602082015260400190565b604080517fffffffffffffffffffffffffffffffffffffffffffffffffffffffffffffffe0818403018152908290528051602091820120611415939290917fcad5f96e8f697c706e90420ae40cf6d0ca754d0b5af05b084f46a03ad1f0d49691017fff00000000000000000000000000000000000000000000000000000000000000815260609390931b7fffffffffffffffffffffffffffffffffffffffff0000000000000000000000001660018401526015830191909152603582015260550190565b604080517fffffffffffffffffffffffffffffffffffffffffffffffffffffffffffffffe081840301815291905280516020909101209392505050565b60065460009074010000000000000000000000000000000000000000900460ff166114a0576114a07fa7106ea771a74f2d048c62cace8c00d3e120b24b61327e6415035f60d47ce888611ec7565b8173ffffffffffffffffffffffffffffffffffffffff168373ffffffffffffffffffffffffffffffffffffffff16036114d857600080fd5b6000808373ffffffffffffffffffffffffffffffffffffffff168573ffffffffffffffffffffffffffffffffffffffff1610611515578385611518565b84845b909250905073ffffffffffffffffffffffffffffffffffffffff821661153d57600080fd5b73ffffffffffffffffffffffffffffffffffffffff8281166000908152600a602090815260408083208585168452909152902054161561157c57600080fd5b60085460009073ffffffffffffffffffffffffffffffffffffffff16156116675760085473ffffffffffffffffffffffffffffffffffffffff16639533ff106115c585856112f9565b6040517fffffffff0000000000000000000000000000000000000000000000000000000060e084901b16815273ffffffffffffffffffffffffffffffffffffffff9182166004820152818716602482015290851660448201526064016020604051808303816000875af1158015611640573d6000803e3d6000fd5b505050506040513d601f19601f8201168201806040525081019061166491906129b8565b90505b600480546005546006546040517f0bcf6b4c00000000000000000000000000000000000000000000000000000000815273ffffffffffffffffffffffffffffffffffffffff938416948101949094529082166024840152811660448301528281166064830152848116608483015283811660a48301527f00000000000000000000000000000000000000000000000000000000000000001690630bcf6b4c9060c4016020604051808303816000875af1158015611728573d6000803e3d6000fd5b505050506040513d601f19601f8201168201806040525081019061174c91906129b8565b73ffffffffffffffffffffffffffffffffffffffff84166000908152600c602052604090205490945060ff161561182c5773ffffffffffffffffffffffffffffffffffffffff8381166000908152600b6020526040908190205490517f3bdbe9a500000000000000000000000000000000000000000000000000000000815291861691633bdbe9a5916117e791879160ff16906004016129d5565b6020604051808303816000875af1158015611806573d6000803e3d6000fd5b505050506040513d601f19601f8201168201806040525081019061182a91906129ff565b505b73ffffffffffffffffffffffffffffffffffffffff82166000908152600c602052604090205460ff16156119095773ffffffffffffffffffffffffffffffffffffffff8281166000908152600b6020526040908190205490517f3bdbe9a500000000000000000000000000000000000000000000000000000000815291861691633bdbe9a5916118c491869160ff16906004016129d5565b6020604051808303816000875af11580156118e3573d6000803e3d6000fd5b505050506040513d601f19601f8201168201806040525081019061190791906129ff565b505b73ffffffffffffffffffffffffffffffffffffffff8381166000818152600a602081815260408084208887168086529083528185208054978c167fffffffffffffffffffffffff0000000000000000000000000000000000000000988916811790915593835281852086865283529381902080549096168317909555935190815290927f91ccaa7a278130b65168c3a0c8d3bcae84cf5e43704342bd3ec0b59e59c036db910160405180910390a360095473ffffffffffffffffffffffffffffffffffffffff1615611af2576009546040517fcbc4801500000000000000000000000000000000000000000000000000000000815273ffffffffffffffffffffffffffffffffffffffff86811660048301529091169063cbc48015906024016020604051808303816000875af1158015611a47573d6000803e3d6000fd5b505050506040513d601f19601f82011682018060405250810190611a6b91906129b8565b506009546040517f12e3b4d100000000000000000000000000000000000000000000000000000000815273ffffffffffffffffffffffffffffffffffffffff8681166004830152909116906312e3b4d190602401600060405180830381600087803b158015611ad957600080fd5b505af1158015611aed573d6000803e3d6000fd5b505050505b50505092915050565b611b03611e44565b73ffffffffffffffffffffffffffffffffffffffff8116611b2357600080fd5b600680547fffffffffffffffffffffffff00000000000000000000000000000000000000001673ffffffffffffffffffffffffffffffffffffffff83169081179091556040517f3f4f4a8f9721ec3786da9a944d596306b980063581bd1e31aea8bea27dd9115690600090a250565b60008173ffffffffffffffffffffffffffffffffffffffff16611bca60005473ffffffffffffffffffffffffffffffffffffffff1690565b73ffffffffffffffffffffffffffffffffffffffff16148061121f5750600083815260026020908152604080832073ffffffffffffffffffffffffffffffffffffffff8616845290915290205460ff1661121f565b611c27611e44565b6001600282900b1215611c3957600080fd5b6101f4600282900b1315611c4c57600080fd5b6006547901000000000000000000000000000000000000000000000000009004600290810b9082900b03611c7f57600080fd5b600680547fffffffff000000ffffffffffffffffffffffffffffffffffffffffffffffffff1679010000000000000000000000000000000000000000000000000062ffffff841602179055604051600282900b81527f7d7979096f943139ebee59f01c077a0f0766d06c40c86d596f23ed2561547cce906020016109ef565b611d06611e44565b600180547fffffffffffffffffffffffff00000000000000000000000000000000000000001673ffffffffffffffffffffffffffffffffffffffff8316908117909155611d6860005473ffffffffffffffffffffffffffffffffffffffff1690565b73ffffffffffffffffffffffffffffffffffffffff167f38d16b8cac22d99fc7c124b9cd0de2d3fa1faef420bfe791d8c362d765e2270060405160405180910390a350565b60007fffffffff0000000000000000000000000000000000000000000000000000000082167f7965db0b0000000000000000000000000000000000000000000000000000000014806108f857507f01ffc9a7000000000000000000000000000000000000000000000000000000007fffffffff000000000000000000000000000000000000000000000000000000008316146108f8565b60005473ffffffffffffffffffffffffffffffffffffffff163314611ec5576040517f08c379a000000000000000000000000000000000000000000000000000000000815260206004820181905260248201527f4f776e61626c653a2063616c6c6572206973206e6f7420746865206f776e65726044820152606401610ac5565b565b610fea8133611fb2565b611edb828261206c565b6000828152600360205260409020610a1f9082612160565b611efd8282612182565b6000828152600360205260409020610a1f908261223d565b611f1d611e44565b611ec560005b611f4c6000611f4760005473ffffffffffffffffffffffffffffffffffffffff1690565b611ef3565b611f558161225f565b60005473ffffffffffffffffffffffffffffffffffffffff1615610fea57610fea6000611f9760005473ffffffffffffffffffffffffffffffffffffffff1690565b611ed1565b600061121f8383612290565b60006108f8825490565b600082815260026020908152604080832073ffffffffffffffffffffffffffffffffffffffff8516845290915290205460ff16610ad857611ff2816122ba565b611ffd8360206122d9565b60405160200161200e929190612a3c565b604080517fffffffffffffffffffffffffffffffffffffffffffffffffffffffffffffffe0818403018152908290527f08c379a0000000000000000000000000000000000000000000000000000000008252610ac591600401612abd565b600082815260026020908152604080832073ffffffffffffffffffffffffffffffffffffffff8516845290915290205460ff16610ad857600082815260026020908152604080832073ffffffffffffffffffffffffffffffffffffffff85168452909152902080547fffffffffffffffffffffffffffffffffffffffffffffffffffffffffffffff001660011790556121023390565b73ffffffffffffffffffffffffffffffffffffffff168173ffffffffffffffffffffffffffffffffffffffff16837f2f8788117e7eff1d82e926ec794901d17c78024a50270940304540a733656f0d60405160405180910390a45050565b600061121f8373ffffffffffffffffffffffffffffffffffffffff841661251c565b600082815260026020908152604080832073ffffffffffffffffffffffffffffffffffffffff8516845290915290205460ff1615610ad857600082815260026020908152604080832073ffffffffffffffffffffffffffffffffffffffff8516808552925280832080547fffffffffffffffffffffffffffffffffffffffffffffffffffffffffffffff0016905551339285917ff6391f5c32d9c69d2a47ea670b442974b53935d1edc7fd64eb21e047a839171b9190a45050565b600061121f8373ffffffffffffffffffffffffffffffffffffffff841661256b565b600180547fffffffffffffffffffffffff0000000000000000000000000000000000000000169055610fea8161265e565b60008260000182815481106122a7576122a7612b0e565b9060005260206000200154905092915050565b60606108f873ffffffffffffffffffffffffffffffffffffffff831660145b606060006122e8836002612b3d565b6122f3906002612992565b67ffffffffffffffff81111561230b5761230b612b54565b6040519080825280601f01601f191660200182016040528015612335576020820181803683370190505b5090507f30000000000000000000000000000000000000000000000000000000000000008160008151811061236c5761236c612b0e565b60200101907effffffffffffffffffffffffffffffffffffffffffffffffffffffffffffff1916908160001a9053507f7800000000000000000000000000000000000000000000000000000000000000816001815181106123cf576123cf612b0e565b60200101907effffffffffffffffffffffffffffffffffffffffffffffffffffffffffffff1916908160001a905350600061240b846002612b3d565b612416906001612992565b90505b60018111156124b3577f303132333435363738396162636465660000000000000000000000000000000085600f166010811061245757612457612b0e565b1a60f81b82828151811061246d5761246d612b0e565b60200101907effffffffffffffffffffffffffffffffffffffffffffffffffffffffffffff1916908160001a90535060049490941c936124ac81612b83565b9050612419565b50831561121f576040517f08c379a000000000000000000000000000000000000000000000000000000000815260206004820181905260248201527f537472696e67733a20686578206c656e67746820696e73756666696369656e746044820152606401610ac5565b6000818152600183016020526040812054612563575081546001818101845560008481526020808220909301849055845484825282860190935260409020919091556108f8565b5060006108f8565b6000818152600183016020526040812054801561265457600061258f6001836129a5565b85549091506000906125a3906001906129a5565b90508181146126085760008660000182815481106125c3576125c3612b0e565b90600052602060002001549050808760000184815481106125e6576125e6612b0e565b6000918252602080832090910192909255918252600188019052604090208390555b855486908061261957612619612bb8565b6001900381819060005260206000200160009055905585600101600086815260200190815260200160002060009055600193505050506108f8565b60009150506108f8565b6000805473ffffffffffffffffffffffffffffffffffffffff8381167fffffffffffffffffffffffff0000000000000000000000000000000000000000831681178455604051919092169283917f8be0079c531659141344cd1fd0a4f28419497f9722a3daafe3b4186f6b6457e09190a35050565b6000602082840312156126e557600080fd5b81357fffffffff000000000000000000000000000000000000000000000000000000008116811461121f57600080fd5b60006020828403121561272757600080fd5b5035919050565b73ffffffffffffffffffffffffffffffffffffffff81168114610fea57600080fd5b60006020828403121561276257600080fd5b813561121f8161272e565b6000806040838503121561278057600080fd5b8235915060208301356127928161272e565b809150509250929050565b803580151581146127ad57600080fd5b919050565b6000806000606084860312156127c757600080fd5b83356127d28161272e565b92506127e06020850161279d565b91506040840135600381106127f457600080fd5b809150509250925092565b60006020828403121561281157600080fd5b61121f8261279d565b60006020828403121561282c57600080fd5b813561ffff8116811461121f57600080fd5b6000806040838503121561285157600080fd5b50508035926020909101359150565b7f4e487b7100000000000000000000000000000000000000000000000000000000600052602160045260246000fd5b600381106128c6577f4e487b7100000000000000000000000000000000000000000000000000000000600052602160045260246000fd5b9052565b602081016108f8828461288f565b600080604083850312156128eb57600080fd5b82356128f68161272e565b915060208301356127928161272e565b60006020828403121561291857600080fd5b81358060020b811461121f57600080fd5b73ffffffffffffffffffffffffffffffffffffffff8416815282151560208201526060810161295b604083018461288f565b949350505050565b7f4e487b7100000000000000000000000000000000000000000000000000000000600052601160045260246000fd5b808201808211156108f8576108f8612963565b818103818111156108f8576108f8612963565b6000602082840312156129ca57600080fd5b815161121f8161272e565b73ffffffffffffffffffffffffffffffffffffffff831681526040810161121f602083018461288f565b600060208284031215612a1157600080fd5b5051919050565b60005b83811015612a33578181015183820152602001612a1b565b50506000910152565b7f416363657373436f6e74726f6c3a206163636f756e7420000000000000000000815260008351612a74816017850160208801612a18565b7f206973206d697373696e6720726f6c65200000000000000000000000000000006017918401918201528351612ab1816028840160208801612a18565b01602801949350505050565b6020815260008251806020840152612adc816040850160208701612a18565b601f017fffffffffffffffffffffffffffffffffffffffffffffffffffffffffffffffe0169190910160400192915050565b7f4e487b7100000000000000000000000000000000000000000000000000000000600052603260045260246000fd5b80820281158282048414176108f8576108f8612963565b7f4e487b7100000000000000000000000000000000000000000000000000000000600052604160045260246000fd5b600081612b9257612b92612963565b507fffffffffffffffffffffffffffffffffffffffffffffffffffffffffffffffff0190565b7f4e487b7100000000000000000000000000000000000000000000000000000000600052603160045260246000fdfea164736f6c6343000814000a",
  "linkReferences": {},
  "deployedLinkReferences": {}
}