{
  "_format": "hh-sol-artifact-1",
  "contractName": "AlgebraVaultFactoryStub",
  "sourceName": "contracts/AlgebraVaultFactoryStub.sol",
  "abi": [
    {
      "inputs": [
        {
          "internalType": "address",
          "name": "_modeSfs",
          "type": "address"
        },
        {
          "internalType": "uint256",
          "name": "_sfsAssignTokenId",
          "type": "uint256"
        },
        {
          "internalType": "address",
          "name": "_algebraCommunityVault",
          "type": "address"
        }
      ],
      "stateMutability": "nonpayable",
      "type": "constructor"
    },
    {
      "inputs": [],
      "name": "AddressZero",
      "type": "error"
    },
    {
      "inputs": [],
      "name": "ZeroSfsAssignTokenId",
      "type": "error"
    },
    {
      "inputs": [
        {
          "internalType": "address",
          "name": "",
          "type": "address"
        }
      ],
      "name": "afterPoolInitialize",
      "outputs": [],
      "stateMutability": "nonpayable",
      "type": "function"
    },
    {
      "inputs": [
        {
          "internalType": "address",
          "name": "",
          "type": "address"
        }
      ],
      "name": "createVaultForPool",
      "outputs": [
        {
          "internalType": "address",
          "name": "",
          "type": "address"
        }
      ],
      "stateMutability": "view",
      "type": "function"
    },
    {
      "inputs": [],
      "name": "defaultAlgebraCommunityVault",
      "outputs": [
        {
          "internalType": "address",
          "name": "",
          "type": "address"
        }
      ],
      "stateMutability": "view",
      "type": "function"
    },
    {
      "inputs": [
        {
          "internalType": "address",
          "name": "",
          "type": "address"
        }
      ],
      "name": "getVaultForPool",
      "outputs": [
        {
          "internalType": "address",
          "name": "",
          "type": "address"
        }
      ],
      "stateMutability": "view",
      "type": "function"
    }
  ],
  "bytecode": "0x60a060405234801561001057600080fd5b506040516102c83803806102c88339818101604052606081101561003357600080fd5b508051602082015160409092015190919061004e8383610075565b6001600160a01b03811661006157600080fd5b6001600160a01b0316608052506101ae9050565b6001600160a01b03821661009c57604051639fabe1c160e01b815260040160405180910390fd5b806000036100bd576040516362906a7f60e01b815260040160405180910390fd5b6000826001600160a01b0316826040516024016100dc91815260200190565b60408051601f198184030181529181526020820180516001600160e01b0316630981022760e31b179052516101119190610169565b6000604051808303816000865af19150503d806000811461014e576040519150601f19603f3d011682016040523d82523d6000602084013e610153565b606091505b505090508061016457610164610198565b505050565b6000825160005b8181101561018a5760208186018101518583015201610170565b506000920191825250919050565b634e487b7160e01b600052600160045260246000fd5b60805160fc6101cc60003960008181607c015260cd015260fc6000f3fe6080604052348015600f57600080fd5b506004361060465760003560e01c806312e3b4d114604b5780637570e389146065578063b7a854521460c9578063cbc48015146065575b600080fd5b606360048036036020811015605f57600080fd5b5050565b005b60a060048036036020811015607957600080fd5b507f0000000000000000000000000000000000000000000000000000000000000000919050565b6040805173ffffffffffffffffffffffffffffffffffffffff9092168252519081900360200190f35b60a07f00000000000000000000000000000000000000000000000000000000000000008156fea164736f6c6343000814000a",
  "linkReferences": {},
  "deployedLinkReferences": {}
}