{
  "_format": "hh-sol-artifact-1",
  "contractName": "AlgebraVaultFactoryStub",
  "sourceName": "contracts/AlgebraVaultFactoryStub.sol",
  "abi": [
    {
      "inputs": [
        {
          "internalType": "address",
          "name": "_blastGovernor",
          "type": "address"
        },
        {
          "internalType": "address",
          "name": "_algebraCommunityVault",
          "type": "address"
        }
      ],
      "stateMutability": "nonpayable",
      "type": "constructor"
    },
    {
      "inputs": [],
      "name": "AddressZero",
      "type": "error"
    },
    {
      "inputs": [
        {
          "internalType": "address",
          "name": "",
          "type": "address"
        }
      ],
      "name": "afterPoolInitialize",
      "outputs": [],
      "stateMutability": "nonpayable",
      "type": "function"
    },
    {
      "inputs": [
        {
          "internalType": "address",
          "name": "",
          "type": "address"
        }
      ],
      "name": "createVaultForPool",
      "outputs": [
        {
          "internalType": "address",
          "name": "",
          "type": "address"
        }
      ],
      "stateMutability": "view",
      "type": "function"
    },
    {
      "inputs": [],
      "name": "defaultAlgebraCommunityVault",
      "outputs": [
        {
          "internalType": "address",
          "name": "",
          "type": "address"
        }
      ],
      "stateMutability": "view",
      "type": "function"
    },
    {
      "inputs": [
        {
          "internalType": "address",
          "name": "",
          "type": "address"
        }
      ],
      "name": "getVaultForPool",
      "outputs": [
        {
          "internalType": "address",
          "name": "",
          "type": "address"
        }
      ],
      "stateMutability": "view",
      "type": "function"
    }
  ],
  "bytecode": "0x60a060405234801561001057600080fd5b5060405161021b38038061021b8339818101604052604081101561003357600080fd5b5080516020909101516100458261006a565b6001600160a01b03811661005857600080fd5b6001600160a01b031660805250610101565b6001600160a01b03811661009157604051639fabe1c160e01b815260040160405180910390fd5b604051631d70c8d360e31b81526001600160a01b03821660048201527343000000000000000000000000000000000000029063eb86469890602401600060405180830381600087803b1580156100e657600080fd5b505af11580156100fa573d6000803e3d6000fd5b5050505050565b60805160fc61011f60003960008181607c015260cd015260fc6000f3fe6080604052348015600f57600080fd5b506004361060465760003560e01c806312e3b4d114604b5780637570e389146065578063b7a854521460c9578063cbc48015146065575b600080fd5b606360048036036020811015605f57600080fd5b5050565b005b60a060048036036020811015607957600080fd5b507f0000000000000000000000000000000000000000000000000000000000000000919050565b6040805173ffffffffffffffffffffffffffffffffffffffff9092168252519081900360200190f35b60a07f00000000000000000000000000000000000000000000000000000000000000008156fea164736f6c6343000814000a",
  "linkReferences": {},
  "deployedLinkReferences": {}
}